:020000040800F2
:100000000080002001170008E5160008E716000828
:10001000E9160008EB160008ED16000800000000C5
:10002000000000000000000000000000EF160008C3
:10003000F116000800000000F3160008F51600088D
:1000400051170008511700085117000851170008F0
:1000500051170008511700085117000851170008E0
:1000600051170008511700085117000851170008D0
:1000700051170008511700085117000851170008C0
:1000800051170008511700085117000851170008B0
:100090000000000051170008511700085117000810
:1000A0005117000851170008511700085117000890
:1000B0005117000851170008511700085117000880
:1000C0005117000851170008511700085117000870
:1000D0005117000851170008511700085117000860
:1000E0005117000851170008511700085117000850
:1000F0005117000800000000000000005117000820
:10010000511700085117000851170008511700082F
:10011000511700085117000851170008511700081F
:10012000511700085117000851170008511700080F
:080130005117000851170008E7
:1001400010B5054C237833B9044B13B10448AFF311
:1001500000800123237010BD680000200000000013
:10016000782C000808B5034B1BB103490348AFF3D3
:10017000008008BD000000006C000020782C000802
:1001800001F0FF01102A2BDB10F0070F08D010F848
:10019000013B013A8B422DD010F0070F42B3F6D14C
:1001A000F0B441EA012141EA014122F007047FF065
:1001B00000070023F0E80256083C85EA010586EABC
:1001C000010685FA47F5A3FA87F586FA47F6A5FAF8
:1001D00087F68EB9EED1F0BC01F0FF0102F0070204
:1001E00032B110F8013B013A83EA010313B1F8D1AF
:1001F0000020704701387047002D06BF3546033890
:10020000073815F0010F07D1013015F4807F02BFC8
:10021000013015F4C03F0130F0BC0138704700BF19
:1002200007B548B90E4B00930E4A0F4B0F484FF4D9
:10023000797100F0B1FBFEE790F83930002B14BF64
:1002400004230323013BDB00013A21FA03F0083BBE
:1002500013F1080F02F8010FF7D103B05DF804FBAA
:100260008E2E00089E2C0008982C0008BC2C00083C
:100270001FB505220B468DF80F2048B90E4B009391
:100280000E4A0F4B0F484FF4717100F085FBFEE7EB
:1002900049B9094B0093094A0B4B0A4840F2C53152
:1002A00000F07AFBFEE701220092446A0DF10F0193
:1002B0002030A04704B010BD2E2E00089E2C000850
:1002C000982C0008BC2C0008DB2C000837B5056C06
:1002D00004460DF107012046FFF7CAFF9DF80730DD
:1002E00003F00103034313F0FF0009D0E36B1DB1DA
:1002F00003B19847013DECE7024800F06FFB042092
:1003000003B030BDE22C00082DE9F043894685B0EA
:1003100017461E46044648B92F4B00932F4A304BD0
:1003200030484FF4CA7100F037FBFEE74BB92A4B57
:1003300000932A4A2C4B2B4840F2951100F02CFBDD
:10034000FEE790F838304BB9234B0093234A274BF4
:10035000244840F2971100F01FFBFEE78B1802695A
:10036000934207D9224800F039FB0525284605B0FD
:10037000BDE8F083C36A00F120080BB140469847FE
:100380002046FFF7A3FF054660B994F84830032BD9
:100390000ED00097A56A334604F14802494640460C
:1003A000A8470546236B002BE0D040469847DDE781
:1003B0000DF10902494620468DF80830FFF730FF5D
:1003C00094F839300097002B656A334614BF052234
:1003D000042202A9E3E700BFA52E00089E2C000816
:1003E000982C0008BC2C0008072D00080C2D0008D4
:1003F0001B2D00087FB50D46044648B9174B0093E6
:10040000174A184B184840F2763100F0C5FAFEE75B
:1004100000290CBF042306238DF80E30002300931F
:10042000466A01220DF10E012030B04778B90DF176
:100430000F012046FFF71CFF48B99DF80F3003F06D
:10044000020335B11BB9094800F0C8FA022004B014
:1004500070BD002BFBD00648F6E700BF3F2E00081A
:100460009E2C0008982C0008BC2C0008412D000888
:10047000632D0008F0B5054685B048B9284B0093B8
:10048000284A294B294840F2C51100F085FAFEE7B9
:1004900090F838304BB9224B0093224A244B234822
:1004A00040F2C71100F078FAFEE7C36A00F12006B7
:1004B0000BB13046984701212846FFF79BFF0446C1
:1004C000D0B9C7238DF80C30AB8A6F6A1B071ED5D5
:1004D00094238DF80D3080238DF80E309A238DF8FB
:1004E0000F3000900346042203A93046B847044663
:1004F00088B1104800F072FA00212846FFF77AFF11
:100500002B6B0BB130469847204605B0F0BD0090EC
:1005100003460122E8E72846FFF7D8FE0446EBE74A
:100520007E2E00089E2C0008982C0008BC2C000889
:100530000C2D0008862D00082DE9FF478846164639
:10054000044648B9444B0093444A454B454840F261
:10055000012100F021FAFEE790F838304BB93E4B0C
:1005600000933E4A404B3F4840F2032100F014FA0A
:10057000FEE703698A189A4207D93C4800F02EFA30
:100580000525284604B0BDE8F08731B9B34204D14F
:1005900004B0BDE8F047FFF76DBFE36A04F1200A3D
:1005A0000BB150469847002E49D094F850309BB379
:1005B00032464146204600F0BFF904EBC00090F8F7
:1005C0006470D0F8609001212046FFF713FF0546C4
:1005D000C0B90DF10902414620468DF80870FFF7B9
:1005E0001FFE94F839300095002B676A2B4614BF24
:1005F0000522042202A95046B847054680B11C488E
:1006000000F0ECF900212046FFF7F4FE236B002BED
:10061000B7D050469847B4E7277FD4F81890D2E770
:100620002046FFF753FE05460028EBD1B8FBF9F34F
:1006300009FB138353B1A9EB0302B24201D3002596
:10064000E0E7A3EB09031E449044ACE74E45F6D91E
:10065000A6EB0906C844A6E7732E00089E2C0008E6
:10066000982C0008BC2C00080C2D00081B2D00083D
:10067000B52D00082DE9F74F8846164699460446E1
:1006800048B9434B0093434A434B444840F26621E8
:1006900000F082F9FEE7012B0CD0B3F5807F09D082
:1006A0003B4B00933B4A3E4B3C484FF41A7100F0E1
:1006B00073F9FEE794F838304BB9354B0093354A5F
:1006C000384B364840F26A2100F066F9FEE72269AD
:1006D00008EB0603934207D9334800F07FF905275A
:1006E000384603B0BDE8F08FE36A04F1200B0BB18C
:1006F00058469847DFF8B4A00EB9374631E00121DB
:100700002046FFF777FE074658BB0223284A8AF89F
:10071000003041462046FFF783FDB8FBF9F594F819
:10072000393009FB1585002B14BF0527042715B3A5
:10073000A9EB0505B54228BF35460C992A460AEBB8
:10074000070001F07BF8002300937A195146676A8D
:100750005846B847761BA844074670B1154800F0C4
:100760003DF900212046FFF745FE236B002BB7D053
:1007700058469847B4E74D46DCE72046FFF7A6FD0C
:1007800007460028EDD10C9B2B440C93B4E700BF27
:100790005B2E00089E2C0008982C0008BC2C00083A
:1007A000DF2D00080C2D00081B2D00088400002000
:1007B00085000020042E00082DE9F04F848A1E4693
:1007C000E30787B005468846174606D500964FF4DE
:1007D0008073FFF74FFF044619E014F00400FAD0CD
:1007E00095F838A0BAF1000F09D14D4B00934D4A4E
:1007F0004D4B4E4840F2BE2100F0CEF8FEE78B187C
:100800002A69934207D94A4800F0E8F805242046AF
:1008100007B0BDE8F08FEB6A05F120090BB148463F
:10082000984718F0010F0DD0012300961A46414653
:100830002846FFF71FFF0446002853D108F101089E
:100840000136013F01212846FFF7D4FD0446002868
:1008500048D1AD238DF810300236B844012FA6F1EF
:100860000203A8EB070B14D8002128460393FFF7D7
:10087000C1FD0446002835D1012F039B36D10093DA
:100880003A463B4659462846FFF7F4FE70B3044605
:1008900028E0BAF1000F2FD00DF111025946284679
:1008A000FFF7BEFC95F8393016F8021C002B14BF78
:1008B0000522042202F118036B4403F8081C02F11C
:1008C00018036B4416F8011C03F8071C00236C6A1C
:1008D0000093023204A94846A0470446B0B1154827
:1008E00000F07CF800212846FFF784FD2B6B002BDD
:1008F0008DD0484698478AE716F8023C8DF81130AB
:1009000016F8013C8DF812300122DFE72846FFF788
:10091000DDFC023604460028E4D1023F82469DE712
:10092000512E00089E2C00080C2D0008BC2C00083D
:100930001B2D0008042E000837B5034690F8500020
:1009400048B9114B0093114A114B12484FF4B7713B
:1009500000F022F8FEE71C6EB1FBF4F004FB10106F
:1009600070B90320603353F8304034B1944204D856
:10097000B1FBF4F504FB15141CB110B10138F2E71A
:10098000002003B030BD00BF072F00089E2C0008D8
:10099000F12E0008AF2E00080CB437B506AB0C4C96
:1009A00053F8045B01930A4601460A4801F026FB0E
:1009B000019B2A464FF48071204601F073FB2146CB
:1009C000054801F01BFB03B0BDE8304002B07047A2
:1009D00089010020252F0008352F00080FB437B5F6
:1009E00006AB0B4C53F8045B0A48019301F006FB7D
:1009F000019B2A464FF48071204601F053FB2146AB
:100A0000054801F0FBFA03B0BDE8304004B0704780
:100A1000890100203A2F0008352F000803680133B0
:100A200004D04068431C5842584170470120704729
:100A300010B50B6804689C4209D040684A6890422F
:100A400005D0944203D0181A18BF012010BD002011
:100A5000FCE740F30903B3F1FF3F08BF0130C0F3E7
:100A600009000430704710B5031F0439083053F8EB
:100A7000042F51F8044F834282EA04021A60F6D12F
:100A800010BD0346006830B95A682AB99868B0FAB0
:100A900080F0400970470020704708B503681B0DBF
:100AA000024613F4E06005D0101DFFF7C1FFB0FA55
:100AB00080F0400908BD836E1B6B10B5044613B966
:100AC000C06800F0A3FEA36E5B6B13B9E06900F091
:100AD0009DFEA36E9B6B13B9606E00F097FE002025
:100AE00010BD00002DE9F04F174687B0826E0493C9
:100AF000DDE910A4136A03905345DDE912868946A7
:100B000040F2A880D269A319934200F2A380049B0B
:100B1000013B05930EB9304699E0B9F1000F3AD088
:100B2000D9F800309A4536D1D9E9015205EB020BCC
:100B3000A34530D9A54211D8ABEB040BB345D9F886
:100B40000C1028BFB346651B40465A46294400F0A6
:100B500075FED8445C44A6EB0B06DBE72D1BB542C3
:100B600028BF35463B689A451BD1D7E901120A4494
:100B7000944216D28C4210D3121B9542FB6828BFB8
:100B80001546611A40462A46194400F057FEA8440B
:100B90002C44761BBEE73546E4E7091B8D4228BF8F
:100BA0000D46039B986E049BB3421ED84269B4FB6A
:100BB000F2F302FB1343C3B9964216D3B5FBF2F32B
:100BC00002FB1353A5EB030BCDF800B0029343686F
:100BD00022469C4651464346E047002837D1029BB7
:100BE0005D1BD8445C442E4494E7036A9A4505D3C0
:100BF0001A4B1B4A6B211B4800F0ACFD4169059D57
:100C0000B4FBF1F30D44254401FB1343B5FBF1FCA8
:100C100001FB1C516D1AC169C7F800A0E21A1B1B29
:100C20008D4294BF5B195B18816A7A608B4228BF42
:100C30000B460093BB604568FB685146A8470028F7
:100C400003DD094B064A7621D5E73FF463AF07B0D1
:100C5000BDE8F08F6FF05300F9E700BF8C2F00085C
:100C600080330008732F0008AA2F00082DE9F04FE9
:100C70009A46D1E9038387B006463C3091460593F6
:100C8000FFF70BFF0F46C9F3892B044658B1BBF1A0
:100C9000000F78D0F36B3D4CC3F38922CAF389234C
:100CA0009A4288BF0024059D2846FFF7D2FE031D07
:100CB000434534D80423A8EB0008039305ABCDE9E2
:100CC00001833B6800933246042300213046FFF73E
:100CD00009FF30BB059B1BBA6B4023F00043059313
:100CE000BBF1000F23D02A0D02F4E063B3F5806F4F
:100CF0001DD1AAEB0403C3F38920C5F389218842DF
:100D000015D323F07F4323F4700323F47F7323F080
:100D1000030343F0804343F48013AB4204D16FF0EC
:100D2000010007B0BDE8F08F52B204EB8224AAEBB9
:100D30000401694011EA0901B5D145F30903013302
:100D4000EDD0129BC5F30909994528BF9946119B1F
:100D50000293109BCDF80C900433434401933B68FD
:100D6000009332464B463046FFF7BCFE0028D8D1F0
:100D7000129BA3EB0902119B014603EB090000F053
:100D80006BFD6019CDE75C468DE700BF00FCFFFFFF
:100D90001FB5C3F309040294069C01940024009437
:100DA000FFF764FF04B010BD30B587B003AD094B49
:100DB00000951446084AFFF7EBFF002804DA831C6D
:100DC00008BF002007B030BD20462946FFF74BFE84
:100DD0000020F7E70C00F07F0000F07F2DE9F04FD6
:100DE00093B0154609931368826E126A93420746C0
:100DF0000C4680F0E28169688A4240F2DE8100217F
:100E00004FF004080CAACDE901120093CDF80C8034
:100E100043460246CDE90C11FFF764FE064610B1C9
:100E200010F1540F14D1CDF80C800DAB4FF0000829
:100E30000293CDF804806B6800933A460423414640
:100E40003846FFF74FFE064630B110F1540F52D02E
:100E5000304613B0BDE8F08FDDE90C31C91A002926
:100E6000D4BF0021012155F82130236081F0010316
:100E7000089355F82330636012AB03EB81014FF008
:100E8000FF3651F8183CA3600023E3600223069369
:100E9000AD4A92E803000EAB83E80300042204F19C
:100EA00008014FF0FF3000F0E1FB00230A90B0464C
:100EB000079305934FF0FF3A9B465046FFF7C9FD55
:100EC0000BAA8344CDE901B2BB6E226800924FF0B9
:100ED0000409CDF80C90DB693A4600213846FFF74B
:100EE00001FE054660B115F1540F40F044814FF00A
:100EF0000003A37526E04146B5E701230693C7E743
:100F00000A984A460BA900F0B1FB0B9B0A901BBA4A
:100F10008AEA0303002B04930B933DDA4FEA1A5A33
:100F20000AF4E06ABAF5A06F09D1BB6EE56898696A
:100F3000B5FBF0F300FB1355B5FA85F56D0905F027
:100F40000100A075E368002B00F01F81214607F126
:100F50003C00FFF7A2FD48B1FB6BC6F38922C3F347
:100F600089239A4240F0098146F000461D9B3BB11F
:100F7000A28AC6F38923934228BF13461D9A138081
:100F8000002EBFF665AFA38AC6F38926B3428CBF95
:100F90006FF0010600265BE70498FFF75AFDBB6E71
:100FA000DB6958449842A2D8049A120D02F4E06218
:100FB000B2F5A06F40F0848010AA02920BF10402F7
:100FC0000192226800922946CDF80C903A463846A4
:100FD000FFF788FD0546002885D1109A0A9B9A42A2
:100FE00085D10B9B049AF86A1B0D82EAC3730AA988
:100FF0004A46049300F03AFBF8620B98FFF729FD8C
:10100000049B2361059BA3820E9BA3610F9BE3615D
:10101000079BE37558444FF0FF330A93E060434663
:101020004646DDF810A0984647E70A980122514647
:1010300000F01CFB09F101090A900B98FFF709FD6C
:101040004845236817D90121CDE902A109EB0B011D
:10105000CDE90031BA6E0021D36938463A46FFF730
:1010600041FD05460028E0D010F1540F40F0838088
:101070004FF00003A3750B9B1A0D12F4E06122D10F
:10108000059AC3F389239A4201D8013305931C9B27
:101090000B9981EA0309099B19EA030950D12368D6
:1010A00010930BF10403119310AADDE91E30984749
:1010B000051E42DA15F1540F5DD184F8169041E710
:1010C0000DF1400AB9E7B1F5806F1DD1059851B215
:1010D00040FA82F292B205921C4A08EA020242F0F9
:1010E0009F4242F4E002934202D148F00048CEE72A
:1010F000B8F1FF3FCBD0C3F38923C8F389229342D1
:10110000C5D808EB8128C2E7B1F5C06FBFD102F0A6
:101110000103082203920EAA02920BF1040201922B
:1011200007932268BB6E0092DB693A46002138467D
:10113000FFF7D8FC5430AAD1D9E60B9B08D19846CA
:101140004346B0466CE700BF902C000800FC0F003F
:101150001B4988EA03020A420AD0022DF0D1C8F3E3
:101160008922C3F389218A42EAD343F00048E7E7A2
:101170004FF0FF38E4E72E466AE6711C3FF4F6AE06
:101180009A4288BFA6F58066F0E6089812A901EB9E
:101190008001D4E9002351F8181CA16006990129A7
:1011A000C4E900327FF4A9AE06490748CDE9002121
:1011B000064940F2CC4200F021FF6FF0530647E6AB
:1011C00000FCFF7F392F0008B32F0008732F0008A1
:1011D0002DE9F04F87B08046129E894617469A4601
:1011E00000240DF1100BA64201D800201AE0351B97
:1011F000109B082D28BF0825E318CDE900A3CDE9F1
:1012000002B53B1B4A4600214046FFF76BFC48B93C
:10121000119B2A461919584600F000FB002804D0FB
:1012200005DB022007B0BDE8F08F2C44DBE701208E
:10123000F8E730B513468268C1F3090585B0AA42C4
:1012400028BF2A46029241680191596800910168BD
:101250001B6804460846FFF7BBFF28B9A368AB42EA
:1012600002D02CBF0220012005B030BD10B50C46C5
:10127000826AE068FF2100F0EFFA4FF0FF3323604D
:1012800010BD000070B50D4681664969044631B94C
:10129000644B654A40F64871644800F05BFAAA69FD
:1012A00022B9634B604A40F64971F5E7AE6A26B948
:1012B000604B5D4A40F64A71EEE7B6FBF1F301FB85
:1012C000136323B15C4B584A40F64E71E4E7B6FB1A
:1012D000F2F302FB136323B1584B534A40F64F71AC
:1012E000DAE7EA69B2FBF6F306FB132323B1544BAA
:1012F0004D4A4FF47561CFE7A2F108014FF0FF337B
:10130000B3FBF1F3013BB3FA83F3C3F12003B2EB78
:10131000830F04D24B4B444A40F65371BCE76B6ACF
:1013200023B9494B404A40F65C71B5E72B6BA3B13A
:10133000C3606B6BEBB1E36128462146FFF796FF74
:10134000A06E04F11001FFF791FFA56EE86AB8B92D
:101350003E4B354A40F67A719EE7304600F04EFA31
:10136000E0600028E5D12046FFF7A5FB6FF00B00F9
:1013700057E0304600F042FAE0610028DCD1F2E7A5
:10138000410702D1AB6B9A0704D0314B264A40F695
:101390007B7181E743B16366EB6BFF2B0AD92D4B61
:1013A000214A40F6887177E700F028FA6066002845
:1013B000F2D1D8E743B1E3662B6C002B06DA264B5B
:1013C000194A40F68E7167E7FF23F4E708BF6FF014
:1013D00000436A6C236740F2FE339A4204D91F4BE4
:1013E000114A40F6947157E7002A18BF1346636705
:1013F000AA6CEB699A4204D9194B0B4A40F69A71D0
:101400004AE700204FF0FF33C4E90833C4E90A007B
:10141000C4E90F00C4E90C00C4E912006064A063D1
:10142000206570BDE82F00088C330008732F00087A
:10143000013000081A300008343000086430000819
:1014400094300008C5300008113100082D31000823
:101450004A3100089E310008B8310008D93100082F
:10146000F4310008FFF727BB2DE9F04397B004469D
:10147000FFF708FF0546002841D101461C220EA8AF
:1014800000F0EAF96B4FDFF8B081DFF8B09101238B
:1014900015932E4614A8FFF7C1FA002833D004F1A3
:1014A0002000FFF7BBFA002840F0C18004F13006AD
:1014B0003046FFF7E6FA60B9614B0293A36B0193E4
:1014C000636B00935F49236B5F4841F27B0200F03E
:1014D00095FD236B03EBD373236396E8070004F1B8
:1014E0003C0383E80700A36E1A6AE36AB3FBF2F1D8
:1014F00002FB113363650023C4E9163322662846D4
:1015000017B0BDE8F083A36E1B6AB6EB530F80F0F3
:101510008B800823079305ABCDE902834B4B0190E9
:10152000009314AA4A4B0EA92046CDE90547FFF7C0
:1015300055FC002806F1010624DB6BD040F30900BE
:10154000013067D00E9B23620F9B636208AB009350
:101550003F4A4B460EA92046FFF71AFC002811DB34
:10156000089A130C022B91B200D181B13449019138
:1015700092B234493748009241F2350200F03EFD04
:101580006FF0150005462046FFF76CFFB7E70B9B91
:101590005BB1E26E934207D929492F48CDE900217A
:1015A000284941F23E02E9E7E3660C9B5BB1226FFA
:1015B000934207D922492948CDE90021214941F226
:1015C0004902DBE723670D9B5BB1626F934207D94A
:1015D0001B492348CDE900211A4941F25402CDE7C5
:1015E0006367A26E0A9B116A8B4207D0144A1D489A
:1015F000CDE90012134941F25E02BFE7D2690999B1
:10160000914207D00E4A0F491748CDE9003241F206
:101610006502B3E704F130020EA92046FFF7C4FBD0
:1016200000283FF437AFADE76FF05300AAE76FF043
:101630001505A8E72332000833120008180010200F
:10164000392F0008732F0008493300080800F00FF5
:1016500000FCFF7F2C32000855320008863200085B
:10166000B7320008E83200081933000830B50C4DD5
:101670000A44914200D130BD11F8013B83EA0004D5
:1016800004F00F0455F8244084EA101080EA131384
:1016900003F00F0355F8233083EA1010E9E700BF89
:1016A0009833000808B506490648FFF7DDFE28B163
:1016B000BDE8084002490348FFF7D6BE08BD00BF99
:1016C000D83300088C02002070470000034A044B06
:1016D00011681B780B441360704700BF040300209F
:1016E00000000020FEE7FEE7FEE7FEE7FEE77047AA
:1016F00070477047FFF7EABF08B5FFF7D3FFFEE773
:101700000D488546FFF7E0FF0C480D490D4A0023C0
:1017100002E0D458C4500433C4188C42F9D30A4AA6
:101720000A4C002301E013600432A242FBD300F014
:1017300041F8FFF7E1FFFEE70080002000000020F5
:101740006800002008350008680000202003002001
:10175000FEE700001FB514461A46094B1B680546F4
:10176000D8684CB1074B0091CDE9013406492B46AE
:1017700000F00EF800F064FD044B1C46F3E700BFD8
:10178000040000202434000831340008392F0008F8
:101790000EB403B5014603AB054853F8042B0068AB
:1017A000019300F067F902B05DF804EB03B07047F5
:1017B0000400002070B50D4D0D4C641BA4100026D4
:1017C000A64209D10B4D0C4C01F056FA641BA41033
:1017D0000026A64205D170BD55F8043B9847013656
:1017E000EEE755F8043B98470136F2E7F834000875
:1017F000F8340008F8340008FC340008024B0146B5
:10180000186800F09BB800BF04000020024B01469E
:10181000186800F029B800BF0400002010B5013995
:101820000244904201D1002005E0037811F8014FF5
:10183000A34201D0181B10BD0130F2E70A449142C7
:1018400000F1FF3300D1704710B511F8014B03F8D8
:10185000014F9142F9D110BD02440346934200D199
:10186000704703F8011BF9E738B50546002941D058
:1018700051F8043C0C1F002BB8BFE41800F01EFF09
:101880001D4A136833B9636014602846BDE83840C8
:1018900000F01ABFA34208D9206821188B4201BF6B
:1018A00019685B6809182160EDE71A465B680BB19F
:1018B000A342FAD911685018A0420BD12068014404
:1018C000501883421160E0D118685B68536001448E
:1018D0001160DAE702D90C232B60D6E720682118C3
:1018E0008B4204BF19685B68636004BF09182160FC
:1018F0005460CAE738BD00BF0803002070B50E4E23
:101900000C463168054611B900F090FB3060214665
:10191000284600F08BFB431C0AD0C41C24F00304AF
:10192000A04207D0211A284600F080FB013001D1E7
:101930004FF0FF34204670BD0C0300202DE9F0412C
:10194000CD1C25F0030508350C2D38BF0C25002DC6
:10195000074601DBA94205D90C233B60002630462F
:10196000BDE8F0812E4E00F0A9FE33681C4634BB62
:1019700029463846FFF7C2FF431C04464DD1346860
:101980002646002E40D123683146384604EB030832
:1019900000F04CFB80453AD1216803356D1A25F0E3
:1019A000030508350C2D38BF0C2529463846FFF7AE
:1019B000A5FF01302BD023682B4423600EE0226862
:1019C000521B1ED40B2A16D96119A342256018BFD9
:1019D0005960636808BF316062514B60384604F15A
:1019E0000B0600F071FE26F00706231DF21AB6D092
:1019F0009B1BA350B3E76268A3420CBF32605A60DE
:101A0000ECE723466468B2E734467668B9E70C230E
:101A10003B60384600F058FEA1E72560DEE700BFD6
:101A2000080300209368013B002B10B4936007DA91
:101A30009469A34201DB0A2902D110BC00F040BB2B
:101A40001368581C10601970084610BC7047F8B530
:101A500006460F461446D518AC4201D1002007E0D7
:101A600014F8011B3A463046FFF7DCFF431CF3D164
:101A7000F8BD00002DE9F04F0D469DB01446984684
:101A8000064618B183690BB900F0F8FC894B9D42FA
:101A90001BD175686B6ED90705D4AB899A0502D442
:101AA000A86D00F089FDAB891B0701D52B69EBB947
:101AB0002946304600F056FBC0B16B6EDC070ED5F0
:101AC0004FF0FF301DB0BDE8F08F7B4B9D4201D140
:101AD000B568DFE7794B9D4208BFF568DAE7AB8967
:101AE0009805EDD4A86D00F068FDE9E7002309939F
:101AF00020238DF82930CDF80C803023DFF8C08109
:101B00008DF82A304FF0010923469A4613F8012B2D
:101B10000AB1252AF9D1BAEB040B0BD05B46224659
:101B200029463046FFF793FF013000F0AA80099A5A
:101B30005A4409929AF80030002B00F0A28000234A
:101B40004FF0FF32CDE905230AF1010A0493079310
:101B50008DF853301A935446052214F8011B584847
:101B6000FEF70EFB049AD8B9D10644BF20238DF8A6
:101B70005330130744BF2B238DF853309AF80030AD
:101B80002A2B15D0079A544600204FF00A0C214604
:101B900011F8013B303B092B4ED9B0B1079214E04C
:101BA000A0EB080309FA03F313430493A246D2E718
:101BB000039B191D1B680391002BBBBF5B4242F0C6
:101BC000020207930793B8BF049223782E2B0CD1FF
:101BD00063782A2B35D1039B1A1D1B680392002BB7
:101BE000B8BF4FF0FF3302340593DFF8D8A0217857
:101BF00003225046FEF7C4FA40B14023A0EB0A008E
:101C000003FA00F0049B03430134049314F8011B0E
:101C10002D488DF828100622FEF7B2FA00283FD092
:101C20002A4B1BBB039B073323F0070308330393A3
:101C3000099B3B44099367E70CFB02320C460120E9
:101C4000A5E700230134059319464FF00A0C2046FE
:101C500010F8012B303A092A03D9002BC5D0059181
:101C6000C3E70CFB012104460123F0E703AB00931B
:101C70002A46174B04A93046AFF300800746781C6C
:101C8000D6D16B6ED90705D4AB899A0502D4A86D5D
:101C900000F093FCAB895B063FF512AF099811E7A2
:101CA00003AB00932A460A4B04A9304600F080F8A3
:101CB000E4E700BFB8340008D834000898340008BE
:101CC000643400086A3400086E3400080000000024
:101CD0004F1A00082DE9F047164699468A680B69A5
:101CE000DDF820809342B8BF1346336091F843205B
:101CF00007460C460AB1013333602368990642BF98
:101D0000336802333360256815F0060506D104F107
:101D1000190AE36832689B1AAB4226DC94F8432028
:101D2000131E226818BF012392062BD404F143022C
:101D300049463846C04701301ED02368E5683268FE
:101D400003F00603042B08BFAD1AA36822690CBF79
:101D500025EAE57500259342C4BF9B1AED180026BD
:101D60001A34B5421AD1002008E0012352464946F0
:101D70003846C047013003D14FF0FF30BDE8F0874F
:101D80000135C6E7E1185A1C302081F8430022448F
:101D900094F8451082F843100233C7E70123224626
:101DA00049463846C0470130E6D00136D9E7000041
:101DB0002DE9FF470F7E0C9D782F914680460C46FB
:101DC0009A4601F1430207D8622F0AD8002F00F08B
:101DD000D880582F00F0A38004F1420584F84270A7
:101DE0003AE0A7F16303152BF6D801A151F823F0CF
:101DF000491E00085D1E0008D91D0008D91D0008F5
:101E0000D91D0008D91D00085D1E0008D91D000855
:101E1000D91D0008D91D0008D91D0008691F000838
:101E20008D1E00084B1F0008D91D0008D91D000891
:101E30008B1F0008D91D00088D1E0008D91D000841
:101E4000D91D0008531F00082B681A1D1B682A6043
:101E500004F1420584F842300123A3E02068296898
:101E6000060601F104030AD50E682B60002E03DA82
:101E70002D23764284F843305E480A2319E00E6829
:101E80002B6010F0400F18BF36B2EFE72B682068C8
:101E9000191D2960010601D51E6802E04606FBD522
:101EA0001E8854486F2F0CBF08230A23002184F892
:101EB00043106568A560002DA2BF216821F00401D0
:101EC00021600EB9002D4DD01546B6FBF3F103FB92
:101ED0001167C75D05F8017D3746BB420E46F4D950
:101EE000082B0BD12368DE0708D523696168994266
:101EF000DEBF302305F8013C05F1FF35521B22619E
:101F0000CDF800A04B4603AA21464046FFF7E2FE6B
:101F100001304CD14FF0FF3004B0BDE8F0873548B8
:101F200081F845702968236851F8046B29601D0603
:101F300014D5DF0744BF43F0200323601EB9236894
:101F400023F0200323601023B0E7236843F020032D
:101F500023607823284884F84530E3E7590648BFD2
:101F6000B6B2E6E71546BBE72B6826686169181D1F
:101F7000286035061B6801D5196002E07006FBD5A4
:101F80001980002323611546BAE72B681A1D2A60C1
:101F90001D68626800212846FEF7F2F808B1401B70
:101FA000606063682361002384F84330A8E72369F5
:101FB0002A4649464046D0470130ABD023689B07AC
:101FC00013D4E068039B9842B8BF1846A4E70123E6
:101FD000324649464046D04701309BD00135E36840
:101FE00003995B1AAB42F2DCEBE7002504F119061A
:101FF000F5E700BF75340008863400080FB40A4BBB
:1020000013B51C6824B1A36913B9204600F036FA51
:1020100005AB049AA16801932046FFF72BFD02B09F
:10202000BDE8104004B070470400002038B5064DEC
:102030000023044608462B6000F006FE431C02D134
:102040002B6803B1236038BD1403002030B514465B
:10205000002C9BB005461A4605DA8B2303604FF02F
:10206000FF301BB030BD4FF40273ADF80C3014BF1D
:1020700004F1FF332346029305934FF6FF7300915B
:102080000491ADF80E3069461E9B00F0ADFB431C79
:10209000BCBF8B232B60002CE3D0009B00221A7066
:1020A000DFE7000007B5009313460A4601460348E0
:1020B0000068FFF7CBFF03B05DF804FB04000020CD
:1020C000F8B50E461446054618B183690BB900F001
:1020D000D5F9214B9C422BD16C68A369A360A389DD
:1020E0001A072FD523696BB323692068C01A636967
:1020F000F6B28342374604DC2146284600F02AF92E
:1021000030BBA368013BA36023685A1C22601E7089
:1021100063690130834204D0A389DB0706D50A2E08
:1021200004D12146284600F015F988B93846F8BD93
:102130000A4B9C4201D1AC68CFE7094B9C4208BFD7
:10214000EC68CAE72146284600F00CF80028CBD0FE
:102150004FF0FF37EAE700BFB8340008D834000872
:1021600098340008324B70B51D6806460C4625B100
:10217000AB6913B9284600F081F92E4B9C420FD170
:102180006C68A389B4F90C2019072CD4DD0611D48E
:102190000923336042F04003A3814FF0FF303EE05B
:1021A000254B9C4201D1AC68EBE7244B9C4208BF15
:1021B000EC68E6E7580712D5616B41B104F14403BE
:1021C000994202D03046FFF74FFB00236363A38997
:1021D00023F02403A3810023636023692360A38980
:1021E00043F00803A38123694BB9A38903F4207347
:1021F000B3F5007F03D02146304600F005FAA089F0
:10220000B4F90C2010F001030AD00023A360636925
:102210005B42A361236943B910F08000BAD170BD5D
:10222000810758BF6369A360F4E70020F7E700BFA8
:1022300004000020B8340008D8340008983400089E
:1022400008B5062000F0F8FB012000F013FD0000A7
:102250008A89F8B5054610070C4657D44B68002B01
:1022600004DC0B6C002B01DC0020F8BDE66A002EBC
:10227000FAD0002312F480522F682B6032D0606DA8
:10228000A3895A0705D56368C01A636B0BB1236C29
:10229000C01A00230246E66A216A2846B047431C5A
:1022A000A38906D129681D292CD8294ACA40D607F6
:1022B00028D500226260D9042269226004D5421C1C
:1022C00001D12B6803B96065616B2F600029CBD009
:1022D00004F14403994202D02846FFF7C5FA0020D2
:1022E0006063C2E7216A01232846B047411CC7D179
:1022F0002B68002BC4D01D2B01D0162B01D12F60D1
:10230000B2E7A38943F04003A381AEE70F69002F32
:10231000AAD093070E6808BF4B690F6018BF00234F
:10232000F61B8B60002E9FDD216AD4F828C033464F
:102330003A462846E047002806DCA38943F04003DC
:10234000A3814FF0FF3090E70744361AEAE700BF59
:102350000100402038B50B6905460C4613B900252D
:10236000284638BD18B183690BB900F087F8144BC3
:102370009C421BD16C68B4F90C30002BEFD0626E1C
:10238000D00704D4990502D4A06D00F015F92846B1
:102390002146FFF75DFF636EDA070546E0D4A389A7
:1023A0009B05DDD4A06D00F008F9D9E7054B9C42F0
:1023B00001D1AC68DFE7044B9C4208BFEC68DAE768
:1023C000B8340008D834000898340008002310B549
:1023D0000446C0E90033C0E9043383608181436669
:1023E000C2818361194608225C30FFF735FA054B3C
:1023F0006362054BA362054BE362054B24622363D2
:1024000010BD00BF712A0008932A0008CB2A0008DB
:10241000EF2A0008014900F0AFB800BF55230008BB
:1024200070B568224D1E55430E4605F17401FFF745
:1024300085FA044640B10021C0E900160C30A060C6
:1024400005F16802FFF708FA204670BD014800F068
:10245000B3B800BF11030020014800F0AEB800BFC0
:1024600011030020014800F0A7B800BF12030020AC
:10247000014800F0A2B800BF1203002010B50446C6
:10248000FFF7F0FFA3691BB1BDE81040FFF7F0BFF5
:10249000C4E912332365134B134A1B68A262A3429B
:1024A00004BF0123A361204600F020F860602046AD
:1024B00000F01CF8A060204600F018F80022E06050
:1024C00004216068FFF782FFA06801220921FFF75D
:1024D0007DFFE06802221221FFF778FF0123A3614C
:1024E000D2E700BF6034000815240008F8B507469D
:1024F000FFF7ACFF1E4B1E68B36913B93046FFF7F8
:10250000BDFF4836D6E90134013B03D533680BB330
:102510003668F7E7B4F90C50D5B9164BE36004F10F
:102520005800656600F047F8FFF796FFC4E90155CB
:10253000C4E904552560A5610822294604F15C0020
:10254000FFF78AF9C4E90D55C4E912552046F8BDD4
:102550006834D9E704213846FFF762FF044630604B
:102560000028D5D1FFF778FF0C233B60EEE700BFD2
:10257000603400080100FFFF2DE9F8430646884655
:1025800000F148040027D4E90195B9F1010905D506
:102590002468002CF7D13846BDE8F883AB89012BBD
:1025A00007D9B5F90E30013303D029463046C0476C
:1025B00007436835E9E770477047704770B50E46C6
:1025C000B1F90E10002996B014461D4608DAB6F986
:1025D0000C3000222A601A0610D44FF480630EE0FB
:1025E0006A4600F0ABFA0028F1DB019A02F470426F
:1025F000A2F500535A425A412A60EEE740230020D8
:10260000236016B070BD00008B8973B59D07064628
:102610000C4607D504F1470323602361012363615E
:1026200002B070BD01AB6A46FFF7C8FF00990546CE
:102630003046FFF783F948B9B4F90C309A05EFD466
:1026400023F0030343F00203A381E3E70D4BB362DE
:10265000A389206043F08003A381009B6361019BF9
:1026600020615BB1B4F90E10304600F079FA28B160
:10267000A38923F0030343F00103A381A089054349
:10268000A581CDE715240008884210B501EB0204AE
:1026900002D98442234607D8431EA14208D011F82C
:1026A000012B03F8012FF8E7024401468A4200D1CA
:1026B00010BD13F8014D02F8014DF7E70148FFF78F
:1026C0007BBF00BF100300200148FFF776BF00BFAB
:1026D000100300202DE9F041804614460E4621B932
:1026E000BDE8F0411146FFF729B92AB9FFF7BCF858
:1026F00025462846BDE8F08100F054FA844207469A
:1027000002D8B4EB500F12D821464046FFF716F915
:1027100005460028EDD0BC422246314628BF3A4645
:10272000FFF78CF831464046FFF79EF8E1E7354663
:10273000DFE72DE9F0478E689E4282460C469046C0
:102740001F4638D88A8912F4906F32D025680969FB
:10275000A5EB0109656905EB450505EBD575013369
:102760004B446D109D4238BF1D46530531D5294657
:10277000FFF7E4F8064650B90C23CAF80030A389E5
:1027800043F04003A3814FF0FF30BDE8F08721699B
:102790004A46FFF753F8A38923F4906343F080037C
:1027A000A381266165614E44A5EB09052660A560FD
:1027B0003E46BE4200D93E46206832464146FFF7BB
:1027C00063FFA3689B1BA36023683344236000203E
:1027D000DBE72A46FFF77EFF06460028E1D12169A4
:1027E0005046FFF741F8C7E72DE9F04F98468B892F
:1027F0001B069DB007460D4614460ED50B6963B9FE
:102800004021FFF79BF82860286120B90C233B602A
:102810004FF0FF30D1E040236B6100230993202368
:102820008DF82930CDF80C803023DFF8A8818DF8A1
:102830002A304FF0010923469A4613F8012B0AB1BA
:10284000252AF9D1BAEB040B0BD05B462246294668
:102850003846FFF76EFF013000F0AA80099A5A440B
:1028600009929AF80030002B00F0A28000234FF06C
:10287000FF32CDE905230AF1010A049307938DF88D
:1028800053301A935446052214F8011B5148FDF7A2
:1028900077FC049AD8B9D00644BF20238DF8533072
:1028A000110744BF2B238DF853309AF800302A2BA0
:1028B00015D0079A544600204FF00A0C214611F813
:1028C000013B303B092B4ED9B0B1079214E0A0EB8D
:1028D000080309FA03F313430493A246D2E7039BC8
:1028E000191D1B680391002BBBBF5B4242F0020223
:1028F00007930793B8BF049223782E2B0CD16378EB
:102900002A2B35D1039B1A1D1B680392002BB8BFDD
:102910004FF0FF3302340593DFF8BCA02178032287
:102920005046FDF72DFC40B14023A0EB0A0003FA0E
:1029300000F0049B03430134049314F8011B27485F
:102940008DF828100622FDF71BFC002838D0244BF8
:102950001BBB039B073323F0070308330393099B37
:102960003344099367E70CFB02320C460120A5E7CC
:1029700000230134059319464FF00A0C204610F845
:10298000012B303A092A03D9002BC5D00591C3E7A2
:102990000CFB012104460123F0E703AB00932A4618
:1029A000104B04A93846AFF30080421C0646D6D12E
:1029B000AB895B063FF52CAF09981DB0BDE8F08FE1
:1029C00003AB00932A46074B04A93846FFF7F0F9FA
:1029D000EBE700BF643400086A3400086E34000876
:1029E00000000000332700081F2938B504460D46B3
:1029F00004D9162303604FF0FF3038BD426C12B18A
:102A000052F821304BB9204600F030F82A460146F2
:102A10002046BDE8384000F017B8012B0AD0591CF9
:102A200003D1162303600120E7E7002442F8254084
:102A3000284698470020E0E7024B01461868FFF758
:102A4000D3BF00BF0400002038B5074D0023044663
:102A5000084611462B6000F0DFF8431C02D12B68BA
:102A600003B1236038BD00BF1403002000F0C4B8D8
:102A700010B50C46B1F90E1000F09CF80028ABBF61
:102A8000636DA3891B1823F48053ACBF6365A381D6
:102A900010BD2DE9F0411F468B89DB0505460C462C
:102AA000164605D5B1F90E100223002200F068F891
:102AB000A389B4F90E1023F48053A38132463B4618
:102AC0002846BDE8F04100F017B810B50C46B1F942
:102AD0000E1000F055F8431CA38915BF606523F460
:102AE000805343F48053A38118BFA38110BDB1F973
:102AF0000E1000F013B8000038B5074D0446084624
:102B0000114600222A601A4600F0ACF8431C02D19C
:102B10002B6803B1236038BD1403002038B5064D7F
:102B20000023044608462B6000F056F8431C02D1EF
:102B30002B6803B1236038BD1403002038B5074D5E
:102B400000230446084611462B6000F04DF8431C54
:102B500002D12B6803B1236038BD00BF14030020ED
:102B600038B5064D0023044608462B6000F04CF8AB
:102B7000431C02D12B6803B1236038BD140300202D
:102B800038B5074D04460846114600222A601A4609
:102B900000F04AF8431C02D12B6803B1236038BD12
:102BA0001403002051F8043C181F002BBCBF0B5825
:102BB000C018704738B5074D044608461146002234
:102BC0002A601A4600F038F8431C02D12B6803B182
:102BD000236038BD14030020024B58221A604FF0C6
:102BE000FF30704714030020024B58221A604FF048
:102BF000FF30704714030020024B58221A604FF038
:102C0000FF30704714030020024B58221A60002046
:102C1000704700BF14030020024B58221A604FF087
:102C2000FF30704714030020024B58221A604FF007
:102C3000FF30704714030020024B58221A604FF0F7
:102C4000FF30704714030020044A05491368002B25
:102C500008BF0B4618441060184670471803002040
:102C600020030020024B58221A604FF0FF307047BB
:102C700014030020FEE700BFF8B500BFF8BC08BC95
:102C80009E467047F8B500BFF8BC08BC9E4670472A
:102C9000FFFFFFFFFFFFFFFF666C617368002825E1
:102CA0007329206861732061737365727420666193
:102CB000696C65642061742025732E006C696272F2
:102CC00061726965732F534655442F736675642F7F
:102CD0007372632F736675642E6300737461747509
:102CE00073004572726F723A20466C617368207788
:102CF00061697420627573792068617320616E2048
:102D00006572726F722E006461746100666C61732B
:102D1000682D3E696E69745F6F6B004572726F72E9
:102D20003A20466C61736820616464726573732035
:102D30006973206F7574206F6620626F756E642EE4
:102D4000004572726F723A2043616E277420656E7F
:102D500061626C6520777269746520737461747543
:102D6000732E004572726F723A2043616E27742091
:102D700064697361626C652077726974652073742D
:102D8000617475732E004572726F723A20466C61E1
:102D900073682063686970206572617365205350A1
:102DA0004920636F6D6D756E69636174652065722E
:102DB000726F722E004572726F723A20466C6173A8
:102DC000682065726173652053504920636F6D6D93
:102DD000756E6963617465206572726F722E00771B
:102DE000726974655F6772616E203D3D2031207CA1
:102DF0007C2077726974655F6772616E203D3D204B
:102E0000323536004572726F723A20466C617368D3
:102E10002077726974652053504920636F6D6D751A
:102E20006E6963617465206572726F722E007366DD
:102E300075645F726561645F737461747573007348
:102E400065745F77726974655F656E61626C6564F5
:102E5000006161695F7772697465007061676532EE
:102E600035365F6F725F315F627974655F77726963
:102E7000746500736675645F65726173650073667F
:102E800075645F636869705F6572617365006D6129
:102E90006B655F6164726573735F627974655F61AE
:102EA0007272617900736675645F72656164006C4B
:102EB00069627261726965732F534655442F736658
:102EC00075642F7372632F736675645F73666470C5
:102ED0002E630061646472203C20314C203C3C2015
:102EE000323400666C6173682D3E7370692E7772A0
:102EF00000666C6173682D3E736664702E61766146
:102F0000696C61626C6500736675645F736664709A
:102F10005F6765745F7375697461626C655F657224
:102F200061736572005B534655445D2825733A25ED
:102F30006C6429200025730D0A005B534655445DDF
:102F4000006C66735F7461675F73697A65286C668D
:102F5000732D3E6773746174652E74616729203E1A
:102F60002030207C7C206F727068616E73203E3D43
:102F70002030006C69627261726965732F6C6974CC
:102F8000746C6566732F6C66732E6300626C6F637E
:102F90006B203C206C66732D3E6366672D3E626C31
:102FA0006F636B5F636F756E7400657272203C3D7A
:102FB00020300025733A25643A6572726F723A20A8
:102FC000436F7272757074656420646972207061F9
:102FD0006972206174207B3078256C782C203078E1
:102FE000256C787D25730A006C66732D3E636667D9
:102FF0002D3E726561645F73697A6520213D2030E2
:10300000006C66732D3E6366672D3E70726F675F5E
:1030100073697A6520213D2030006C66732D3E6314
:1030200066672D3E63616368655F73697A65202119
:103030003D2030006C66732D3E6366672D3E6361F4
:103040006368655F73697A652025206C66732D3E21
:103050006366672D3E726561645F73697A65203DC2
:103060003D2030006C66732D3E6366672D3E6361C4
:103070006368655F73697A652025206C66732D3EF1
:103080006366672D3E70726F675F73697A65203D76
:103090003D2030006C66732D3E6366672D3E626C8A
:1030A0006F636B5F73697A652025206C66732D3EB4
:1030B0006366672D3E63616368655F73697A652047
:1030C0003D3D203000342A6C66735F6E7077322885
:1030D00030786666666666666666202F20286C66AF
:1030E000732D3E6366672D3E626C6F636B5F736921
:1030F0007A652D322A342929203C3D206C66732DB7
:103100003E6366672D3E626C6F636B5F73697A65C1
:10311000006C66732D3E6366672D3E626C6F636B59
:103120005F6379636C657320213D2030006C6673AA
:103130002D3E6366672D3E6C6F6F6B6168656164E1
:103140005F73697A65203E2030006C66732D3E63A4
:1031500066672D3E6C6F6F6B61686561645F736954
:103160007A6520252038203D3D2030202626202845
:1031700075696E747074725F74296C66732D3E632A
:1031800066672D3E6C6F6F6B61686561645F627529
:103190006666657220252034203D3D2030006C6637
:1031A000732D3E6366672D3E6E616D655F6D617860
:1031B000203C3D20323535006C66732D3E636667DA
:1031C0002D3E66696C655F6D6178203C3D20323133
:1031D0003437343833363437006C66732D3E6366CB
:1031E000672D3E617474725F6D6178203C3D2031C3
:1031F000303232006C66732D3E6366672D3E6D651E
:103200007461646174615F6D6178203C3D206C661F
:10321000732D3E6366672D3E626C6F636B5F7369EF
:103220007A65006C6974746C6566730025733A2561
:10323000643A6572726F723A20496E76616C6964A5
:103240002076657273696F6E20762568752E256805
:103250007525730A0025733A25643A6572726F7298
:103260003A20556E737570706F72746564206E616C
:103270006D655F6D61782028256C75203E20256C7A
:10328000752925730A0025733A25643A6572726FB1
:10329000723A20556E737570706F72746564206633
:1032A000696C655F6D61782028256C75203E20254E
:1032B0006C752925730A0025733A25643A65727284
:1032C0006F723A20556E737570706F7274656420FA
:1032D000617474725F6D61782028256C75203E20C2
:1032E000256C752925730A0025733A25643A6572A1
:1032F000726F723A20496E76616C696420626C6FFD
:10330000636B20636F756E742028256C7520213DDA
:1033100020256C752925730A0025733A25643A65C2
:1033200072726F723A20496E76616C696420626CC9
:103330006F636B2073697A652028256C7520213DA9
:1033400020256C752925730A0025733A25643A6493
:10335000656275673A20466F756E642070656E64AD
:10336000696E672067737461746520307825303822
:103370006C782530386C782530386C7825730A00E5
:103380006C66735F62645F72656164006C66735F34
:10339000696E697400000000000000006410B71D31
:1033A000C8206E3BAC30D9269041DC76F4516B6B73
:1033B0005861B24D3C7105502083B8ED44930FF035
:1033C000E8A3D6D68CB361CBB0C2649BD4D2D386EB
:1033D00078E20AA01CF2BDBD00000000090300084D
:1033E000B9070008390500080000000000010000CE
:1033F000000100000002000000040000F4010000D1
:10340000000100008000000000000000000000003B
:1034100000000000000000000000000000000000AC
:10342000000000002C2066756E6374696F6E3A2090
:1034300000617373657274696F6E20222573222098
:103440006661696C65643A2066696C652022257343
:10345000222C206C696E65202564257325730A0073
:1034600008000020232D302B2000686C4C0065667E
:1034700067454647003031323334353637383941C5
:1034800042434445460030313233343536373839DB
:1034900061626364656600000000000000000000D7
:1034A000000000000000000000000000000000001C
:1034B000000000000000000000000000000000000C
:1034C00000000000000000000000000000000000FC
:1034D00000000000000000000000000000000000EC
:1034E00000000000000000000000000000000000DC
:0834F0000000000000000000D4
:0834F80065010008000000005E
:08350000410100080000000079
:10350800010000000800002000000000B834000896
:10351800D8340008983400080000000000000000BB
:103528000000000000000000000000000000000093
:103538000000000000000000000000000000000083
:103548000000000000000000000000000000000073
:103558000000000000000000000000000000000063
:0835680000000000000000005B
:0400000508001701D7
:00000001FF
