:020000040800F2
:1000000000800020C5550008A1540008A354000832
:10001000A5540008A7540008A954000800000000D7
:10002000000000000000000000000000AB540008C9
:10003000AD54000800000000AF540008B15400089F
:1000400015560008155600081556000815560008E4
:1000500015560008155600081556000815560008D4
:1000600015560008155600081556000815560008C4
:1000700015560008155600081556000815560008B4
:1000800015560008155600081556000815560008A4
:100090000000000015560008155600081556000807
:1000A0001556000815560008155600081556000884
:1000B0001556000815560008155600081556000874
:1000C0001556000815560008155600081556000864
:1000D0001556000815560008155600081556000854
:1000E0001556000815560008155600081556000844
:1000F000155600080000000000000000155600081A
:100100001556000815560008155600081556000823
:100110001556000815560008155600081556000813
:100120001556000815560008155600081556000803
:080130001556000815560008E1
:1001400010B5054C237833B9044B13B10448AFF311
:1001500000800123237010BDC000002000000000BB
:10016000CC67000808B5034B1BB103490348AFF344
:10017000008008BD00000000C4000020CC6700081B
:10018000034613F8012B002AFBD1181A01387047D7
:1001900001F0FF01102A2BDB10F0070F08D010F838
:1001A000013B013A8B422DD010F0070F42B3F6D13C
:1001B000F0B441EA012141EA014122F007047FF055
:1001C00000070023F0E80256083C85EA010586EAAC
:1001D000010685FA47F5A3FA87F586FA47F6A5FAE8
:1001E00087F68EB9EED1F0BC01F0FF0102F00702F4
:1001F00032B110F8013B013A83EA010313B1F8D19F
:100200000020704701387047002D06BF354603387F
:10021000073815F0010F07D1013015F4807F02BFB8
:10022000013015F4C03F0130F0BC0138704700BF09
:10023000430803F05533C01A830803F0333300F04A
:100240003330184400EB101000F00F3000EB0020AA
:1002500000EB0040000E7047002814BF0423032366
:10026000013BDB00013A21FA03F0083B13F1080FD0
:1002700002F8010FF7D170471FB505228DF80F2046
:1002800001220092446A0B4620300DF10F01A04775
:1002900004B010BD37B5C56B04460DF1070120460B
:1002A000FFF7EAFF9DF8073003F00103034313F063
:1002B000FF0006D0A36B1DB103B19847013DECE7E9
:1002C000042003B030BD2DE9F0439946036916467A
:1002D0008A189A4285B004460F4600F1200828D8B3
:1002E000836A0BB1404698472046FFF7D3FF054687
:1002F000B8B90DF10902032394F835008DF80830E0
:100300003946FFF7A9FF94F83530656A0096002B4F
:1003100018BF05224B4608BF042202A94046A84741
:100320000546E36A0BB140469847284605B0BDE84C
:10033000F0830525F9E77FB50D1E0CBF04230623C6
:100340008DF80E3000230093466A044601220DF119
:100350000E012030B04768B90DF10F012046FFF7BC
:100360008BFF38B99DF80F3003F0020325B1002B45
:1003700008BF022004B070BD002B18BF0220F9E7AF
:10038000F0B5836A85B0054600F120060BB1304612
:10039000984701212846FFF7CEFF0446D8B9C72366
:1003A0008DF80C30AB8A6F6A1B071FD594238DF82C
:1003B0000D3080238DF80E309A238DF80F30009089
:1003C0000346042203A93046B847044618B9284614
:1003D000FFF760FF044600212846FFF7ACFFEB6AF9
:1003E0000BB130469847204605B0F0BD009003465B
:1003F0000122E7E72DE9FF47036916468A189A426A
:100400000546884654D831B9B34204D104B0BDE89A
:10041000F047FFF7B5BFAB6A05F1200A0BB15046B4
:1004200098476EB3012128462F7FD5F81890FFF723
:1004300082FF044628BB0DF1090295F835008DF8BE
:1004400008704146FFF708FF95F835300094002BFF
:100450006F6A234614BF0522042202A95046B847FA
:10046000044670B92846FFF715FF044648B9B8FBA3
:10047000F9F309FB1383ABB1A9EB0301B1420CD330
:10048000002400212846FFF756FFEB6A0BB15046C7
:100490009847204604B0BDE8F087A6EB09061E4445
:1004A0008844BEE74E45EBD9A6EB0906C844B8E739
:1004B0000524EEE72DE9F74F9946036916468A1899
:1004C0009A420546884600F1200B51D8836A0BB149
:1004D00058469847DFF89CA066B937460021284661
:1004E000FFF729FFEB6A0BB158469847384603B02F
:1004F000BDE8F08F01212846FFF71DFF07460028C1
:10050000ECD102231C4A95F835008AF800304146A8
:10051000FFF7A2FEB8FBF9F495F8353009FB148417
:10052000002B14BF0527042704B3A9EB0404B4422D
:1005300028BF34460C9922460AEB070005F0E0F884
:1005400000233A1900936F6A51465846B847361B44
:10055000A04407460028C1D12846FFF79BFE074666
:100560000028BBD10C9B23440C93B5E74C46DEE737
:100570000527BBE7DC000020DD0000202DE9F04F5F
:10058000848A1D46E30785B007468846164606D589
:1005900000954FF48073FFF78DFF044648E014F098
:1005A0000400FAD08B183A69934207F120097CD8ED
:1005B000BB6A0BB14846984718F0010F0CD00123D5
:1005C00000951A4641463846FFF774FF044638BB8B
:1005D00008F101080135013E01213846FFF7ABFE65
:1005E0000446E8B9AD238DF8083002350124B04443
:1005F000012EA5F1020BA8EB060A1DD800213846F2
:10060000FFF799FE044658B9012E0DD1CDF800B080
:100610003346324651463846FFF74CFF20B1044678
:1006200000213846FFF787FEFB6A0BB14846984722
:10063000204605B0BDE8F08F6CB30DF109025146BC
:1006400097F83500FFF708FE97F8353015F8021CCB
:10065000002B14BF0522042202F110036B4403F89F
:10066000081C02F110036B4415F8011C03F8071C69
:1006700000237C6A0093023202A94846A047044640
:100680000028CDD13846FFF705FE02350446002884
:10069000C6D1023EACE715F8023C8DF8093015F8DA
:1006A000013C8DF80A300122E2E70524C0E7F0B5ED
:1006B000044685B0154600F12006C1B150238DF8DF
:1006C0000C3000230093476A012203A93046B84743
:1006D00058B9012300908DF80C30646A8DF80D50E4
:1006E0000346022203A93046A04705B0F0BD012110
:1006F000FFF721FEECE70000F0B585B0054600F0FD
:10070000C9F8044600285ED12B69002B3ED0AB8A85
:10071000002B3BD0AB69002B38D02B7F002B35D082
:10072000AB69002B4ED02B7F002B4BD066238DF86E
:100730000C3005F1200700236C6A0093012203A905
:100740003846A047044600283DD12846FFF7A2FDC1
:1007500099238DF80D30009423466E6A01220DF125
:100760000D013846B047044668BB2846FFF792FDA6
:100770000646002858D1AB8A5B0729D502460121DD
:100780002846FFF794FF0446E8B927E09F238DF839
:10079000083003236C6A0093012203AB02A905F120
:1007A0002000A047044670B99DF80C302B739DF8CB
:1007B0000D306B739DF80E30AB732B6913B1AB8AA0
:1007C000002BADD10124002385F83430264623E0E8
:1007D000EB68164A23F07F43934220D02B69B3F194
:1007E000807F1FD901212846FFF7A5FD0346044657
:1007F0000028E8D1B7226C6A8DF80C200090012205
:1008000003A93846A04704460028DCD1012385F817
:100810003530012385F83430304605B0F0BD02464E
:100820000146ADE70023F2E70446CCE7C2201600FC
:10083000024800234360FFF75FBF00BF00000020B5
:1008400072B6704762B670477047F8B505690E46D4
:1008500068682989174600221C4603F07BFB28683C
:100860006423BAB2314604F0C4F980B92146BDF818
:1008700018202868642304F05EFC041E18BF0324BB
:1008800068682989012203F065FB2046F8BD02242F
:10089000F6E7000043685BB9064B4362064B836290
:1008A000064BC362064B0363064B8363064BC3636D
:1008B000002070474B080008410800084508000860
:1008C0004400002049080008C027090003680133DC
:1008D00004D04068431C584258417047012070477B
:1008E00010B50B6804689C4209D040684A68904281
:1008F00005D0944203D0181A18BF012010BD002063
:10090000FCE740F30903B3F1FF3F08BF0130C0F338
:1009100009000430704710B5031F0439083053F83C
:10092000042F51F8044F834282EA04021A60F6D180
:1009300010BD0346006830B95A682AB99868B0FA01
:1009400080F0400970470020704708B503681B0D10
:10095000024613F4E06005D0101DFFF7C1FFB0FAA6
:1009600080F0400908BD00B97047884201D0006896
:10097000F9E701207047836E1A6A436DD31A194450
:10098000B1FBF2F302FB1311836D8B4210B50BD94F
:100990004C09426E012301F01F0103FA01F152F8E4
:1009A00024300B4342F82430002010BD174A03685E
:1009B00030B511F0805F164C83EA010518BF14466C
:1009C00025420DD043F30904013409D001EA0204A1
:1009D000104A1A4042F09F4242F4E002944203D18E
:1009E00000230360012030BD0A0D02F4E064B4F579
:1009F000806F09D1C3F38924C1F389218C4222BFBE
:100A000052B203EB822303600020ECE700FCFF7F7F
:100A100000FC0F7000FC0F00024608B50846FFF707
:100A200070FF136803441360002008BD036801339E
:100A3000036000207047836E1B6B10B5044613B92A
:100A4000C06804F045FEA36E5B6B13B9E06904F067
:100A50003FFEA36E9B6B13B9606E04F039FE00205D
:100A600010BD000008B5036BC3F3090242B90029A9
:100A700006DA0A4B0A4A0B4841F24E1104F0CCFD4B
:100A80001944C1F30903003B18BF012321F00041C1
:100A900041EAC3710163002008BD00BF0968000876
:100AA000A27000083B6800082DE9F04F174687B098
:100AB000826E0493DDE910A4136A03905345DDE9C7
:100AC0001286894640F2A880D269A319934200F2A7
:100AD000A380049B013B05930EB9304699E0B9F120
:100AE000000F3AD0D9F800309A4536D1D9E90152F1
:100AF00005EB020BA34530D9A54211D8ABEB040B93
:100B0000B345D9F80C1028BFB346651B40465A467A
:100B1000294404F0F5FDD8445C44A6EB0B06DBE762
:100B20002D1BB54228BF35463B689A451BD1D7E9F6
:100B300001120A44944216D28C4210D3121B9542E1
:100B4000FB6828BF1546611A40462A46194404F03E
:100B5000D7FDA8442C44761BBEE73546E4E7091BC5
:100B60008D4228BF0D46039B986E049BB3421ED84E
:100B70004269B4FBF2F302FB1343C3B9964216D3A6
:100B8000B5FBF2F302FB1353A5EB030BCDF800B05A
:100B90000293436822469C4651464346E04700285C
:100BA00037D1029B5D1BD8445C442E4494E7036A12
:100BB0009A4505D31A4B1B4A6B211B4804F02CFDA8
:100BC0004169059DB4FBF1F30D44254401FB13433A
:100BD000B5FBF1FC01FB1C516D1AC169C7F800A0FF
:100BE000E21A1B1B8D4294BF5B195B18816A7A6005
:100BF0008B4228BF0B460093BB604568FB6851469B
:100C0000A847002803DD094B064A7621D5E73FF4C3
:100C100063AF07B0BDE8F08F6FF05300F9E700BF96
:100C20001D6B0008F37000083B680008546800085A
:100C30002DE9F04F9A46D1E9038387B006463C3050
:100C400091460593FFF781FE0F46C9F3892B0446B1
:100C500058B1BBF1000F78D0F36B3D4CC3F3892240
:100C6000CAF389239A4288BF0024059D2846FFF7CE
:100C700048FE031D434534D80423A8EB0008039322
:100C800005ABCDE901833B68009332460423002184
:100C90003046FFF709FF30BB059B1BBA6B4023F0C2
:100CA00000430593BBF1000F23D02A0D02F4E0634B
:100CB000B3F5806F1DD1AAEB0403C3F38920C5F3FC
:100CC0008921884215D323F07F4323F4700323F452
:100CD0007F7323F0030343F0804343F48013AB425C
:100CE00004D16FF0010007B0BDE8F08F52B204EB01
:100CF0008224AAEB0401694011EA0901B5D145F348
:100D000009030133EDD0129BC5F30909994528BFAA
:100D10009946119B0293109BCDF80C9004334344E9
:100D200001933B68009332464B463046FFF7BCFECA
:100D30000028D8D1129BA3EB0902119B014603EBBB
:100D4000090004F0EBFC6019CDE75C468DE700BFBD
:100D500000FCFFFF1FB5C3F309040294069C019435
:100D600000240094FFF764FF04B010BD30B587B0D5
:100D700003AD094B00951446084AFFF7EBFF002826
:100D800004DA831C08BF002007B030BD2046294686
:100D9000FFF7C1FD0020F7E70C00F07F0000F07FB7
:100DA00030B5134687B00268044604AD0820916E42
:100DB00003900295586801901B680093CB69104618
:100DC00002F11001FFF770FE30B9211D2846FFF730
:100DD00087FD003818BF012007B030BD2DE9F04F66
:100DE00093B0154609931368826E126A93420746C0
:100DF0000C4680F0E28169688A4240F2DE8100217F
:100E00004FF004080CAACDE901120093CDF80C8034
:100E100043460246CDE90C11FFF746FE064610B1E7
:100E200010F1540F14D1CDF80C800DAB4FF0000829
:100E30000293CDF804806B6800933A460423414640
:100E40003846FFF731FE064630B110F1540F52D04C
:100E5000304613B0BDE8F08FDDE90C31C91A002926
:100E6000D4BF0021012155F82130236081F0010316
:100E7000089355F82330636012AB03EB81014FF008
:100E8000FF3651F8183CA3600023E3600223069369
:100E9000AD4A92E803000EAB83E80300042204F19C
:100EA00008014FF0FF3002F0CBFE00230A90B0465D
:100EB000079305934FF0FF3A9B465046FFF721FDFD
:100EC0000BAA8344CDE901B2BB6E226800924FF0B9
:100ED0000409CDF80C90DB693A4600213846FFF74B
:100EE000E3FD054660B115F1540F40F044814FF029
:100EF0000003A37526E04146B5E701230693C7E743
:100F00000A984A460BA902F09BFE0B9B0A901BBA5B
:100F10008AEA0303002B04930B933DDA4FEA1A5A33
:100F20000AF4E06ABAF5A06F09D1BB6EE56898696A
:100F3000B5FBF0F300FB1355B5FA85F56D0905F027
:100F40000100A075E368002B00F01F81214607F126
:100F50003C00FFF7FAFC48B1FB6BC6F38922C3F3F0
:100F600089239A4240F0098146F000461D9B3BB11F
:100F7000A28AC6F38923934228BF13461D9A138081
:100F8000002EBFF665AFA38AC6F38926B3428CBF95
:100F90006FF0010600265BE70498FFF7B2FCBB6E1A
:100FA000DB6958449842A2D8049A120D02F4E06218
:100FB000B2F5A06F40F0848010AA02920BF10402F7
:100FC0000192226800922946CDF80C903A463846A4
:100FD000FFF76AFD0546002885D1109A0A9B9A42C0
:100FE00085D10B9B049AF86A1B0D82EAC3730AA988
:100FF0004A46049302F024FEF8620B98FFF781FC46
:10100000049B2361059BA3820E9BA3610F9BE3615D
:10101000079BE37558444FF0FF330A93E060434663
:101020004646DDF810A0984647E70A980122514647
:1010300002F006FE09F101090A900B98FFF761FC26
:101040004845236817D90121CDE902A109EB0B011D
:10105000CDE90031BA6E0021D36938463A46FFF730
:1010600023FD05460028E0D010F1540F40F08380A6
:101070004FF00003A3750B9B1A0D12F4E06122D10F
:10108000059AC3F389239A4201D8013305931C9B27
:101090000B9981EA0309099B19EA030950D12368D6
:1010A00010930BF10403119310AADDE91E30984749
:1010B000051E42DA15F1540F5DD184F8169041E710
:1010C0000DF1400AB9E7B1F5806F1DD1059851B215
:1010D00040FA82F292B205921C4A08EA020242F0F9
:1010E0009F4242F4E002934202D148F00048CEE72A
:1010F000B8F1FF3FCBD0C3F38923C8F389229342D1
:10110000C5D808EB8128C2E7B1F5C06FBFD102F0A6
:101110000103082203920EAA02920BF1040201922B
:1011200007932268BB6E0092DB693A46002138467D
:10113000FFF7BAFC5430AAD1D9E60B9B08D19846E8
:101140004346B0466CE700BFE867000800FC0F00AC
:101150001B4988EA03020A420AD0022DF0D1C8F3E3
:101160008922C3F389218A42EAD343F00048E7E7A2
:101170004FF0FF38E4E72E466AE6711C3FF4F6AE06
:101180009A4288BFA6F58066F0E6089812A901EB9E
:101190008001D4E9002351F8181CA16006990129A7
:1011A000C4E900327FF4A9AE06490748CDE9002121
:1011B000064940F2CC4204F083FE6FF0530647E646
:1011C00000FCFF7F6F6D00085F6800083B68000847
:1011D0002DE9F04701230024C2E90643184FDFF848
:1011E0006480DFF8649088B005460E4692460AF1A6
:1011F00018021046FFF76AFB10B16FF0010018E00B
:10120000AB6E1B6AB4EB530F16D233680693736848
:10121000079305ABCDE90273CDE900804B465146FB
:10122000284601340595FFF7D9FD0028DFD0831C3F
:10123000DDD008B0BDE8F0876FF05300F9E700BFDC
:10124000A10D000808000020FF03F07F1FB5002358
:10125000CDE9023301934FF0FF330093FFF7BEFD5A
:1012600005B05DF804FB2DE9F04101230024C2E93B
:10127000064306468846154602F118073846FFF72A
:1012800025FB10B16FF0010011E0B36E1B6AB4EBE7
:10129000530F0ED2414638460134FFF721FB30B1DF
:1012A0003A4629463046FFF7D1FF0028E6D0BDE890
:1012B000F0816FF05300FAE72DE9F04F8DB016681A
:1012C000069280460C4605931BB1059A40F2FF3307
:1012D0001380D8F82030A361DFF82091D8F82430AB
:1012E000474DE3612946304604F030FE3718834607
:1012F0002946384604F019FE0128049007EB000A3D
:1013000005D116F80B202E2A0BD15646EAE7049B8E
:10131000022B06D13B491A46384604F0E1F9002871
:10132000F3D056464FF0010B2946504604F00EFE0E
:1013300082442946504604F0F8FD024690B1022846
:101340000CD107902F49504604F0CAF9079A28B9E2
:10135000BBF1010B04D10AF10206C3E70BF1010B4B
:101360009244E1E73A78002A40D0069B4FEA1952AE
:10137000022A1F603ED1C9F3892340F2FF32934213
:1013800004F1180A25D10DF1240B2F21384604F061
:10139000BFFD049A059B0B9200281B4ACDF80CB0A8
:1013A00018BF0023CDE90132049B009352464FF051
:1013B000F04321464046CDE90987FFF70FFDB0F124
:1013C000000913DB8ED1E37D002BDED16FF0010924
:1013D0000CE00E4ACDF800A042EA832321460C4AD5
:1013E0004046FFF7B7FCB0F10009CCDA48460DB033
:1013F000BDE8F08F6FF01309F8E700BF00FC2F0085
:101400005D68000894680008E317000808000020E1
:1014100000FC0F702DE9F04FABB09946BDF8E030FD
:1014200005930026BDF9E430BDF8DCB006908A468D
:101430000493B0464846FFF764FADAF80C30871890
:101440009F4234D209AACDE9017204230393DAF84A
:1014500000200092069A00211046FFF725FB002885
:1014600040F02081099B1BBA89EA0309DAF80030B1
:101470000A9349F000493B1DCDF824900B930AAD27
:101480000999369B81EA08021A40884B1A4054D1C8
:10149000369BC3F38923002B00F0AA80022E16D9B5
:1014A000834B844A844840F24E3104F0B5F8359BB2
:1014B000002B40F3F580349B1B680993349B5D68D7
:1014C00008333493359B013B35931746D8E73C24CA
:1014D000744304F1A8036B44349843F86C0C3598BA
:1014E00043F8680C369823F85CBC43E91908059862
:1014F00023F85A0C049823F8580C3A9843F8540CE3
:101500003B9843F8709C43E91401DDE90A0143F874
:10151000485C43E91EA7443B83E8030004F1A803A9
:101520000DEB0304A4F14C03CDE904223B93634B80
:101530003692013690463A9393463A467AE7B2F5A8
:10154000817F1DD100240999C1F309039C42F4D283
:10155000049B6A68C1F389211944AB6843EA81217D
:101560002B7803F5407341EA0351DDE93A3098479F
:101570000028C0F2978005F10C05DED10134E2E7C6
:1015800004992A4603EB8121DDE93A309847002887
:10159000C0F28880D1D0002E00F084802AAA013EBB
:1015A0003C2303FB062353E91C92349253F8682C26
:1015B000359253F8642C369233F85A2C059233F94D
:1015C000582C049253F8542C3A9253E9110153F8D1
:1015D000502C3B9253F84C2C09920AAA53E91EA7AF
:1015E00082E8030053F8608C33F85CBC53F8485C25
:1015F000369A099BC2F3892232B1C3F389225A4534
:101600009BD305998A4298D2C3F30A52002A94D0F8
:1016100040F201118A4292D1284A07933A9B9342A1
:101620008BD03C222AAB02FB06340021A4F17800C7
:1016300004F074F8349B44F86C3C359B44F8683CE7
:10164000369B24F85CBC44E91938059B24F85A3CC5
:10165000049B24F8583C3A9B44F8543C3B9B44F888
:10166000503C079B44F8709CC3F3090B0BF101023B
:101670000592C3F38923049AA3EB0B0313441BB213
:101680000F4A0493002344E91EA7CDE93532013601
:10169000AA464FF0005834934FF0FF391F464CE7ED
:1016A000002078E72BB0BDE8F08F00BF0000F07F8E
:1016B00097680008787000083B680008AD090008CA
:1016C00000FC0F602DE9F04F87B0DDE9114A1546A7
:1016D000826E139ED2698946A119914207464AD863
:1016E000DFF898B003F1FF380EB9304640E02B68C0
:1016F000E868023316D1D5E901120A44944211D2A6
:101700008C420FD3121BB242A4EB010128BF324618
:1017100001445046059203F0F3FF059A92441444A5
:10172000B61AE1E7D7F868C0DCF81410B4FBF1F2A0
:101730006FF001032B6008EB0103234401FB12420D
:10174000B3FBF1FE01FB1E315B1ADCF828108B4263
:1017500028BF0B46A21ACDE901036A60AB60009274
:10176000109B5A4649463846FFF762FA0028BBDA12
:1017700007B0BDE8F08F6FF05300F9E700FCF7FF0A
:101780002DE9F04F87B08046129E894617469A464B
:1017900000240DF1100BA64201D800201AE0351BE1
:1017A000109B082D28BF0825E318CDE900A3CDE93B
:1017B00002B53B1B4A4600214046FFF775F948B980
:1017C000119B2A461919584603F08AFF002804D0B5
:1017D00005DB022007B0BDE8F08F2C44DBE70120D9
:1017E000F8E730B513468268C1F3090585B0AA420F
:1017F00028BF2A4602924168019159680091016808
:101800001B6804460846FFF7BBFF28B9A368AB4234
:1018100002D02CBF0220012005B030BDF8B5C6694A
:101820000D68083EB5420F4613D3B5FBF6F00138FC
:10183000FEF7FEFC841CA5EB8404B4FBF6F4204602
:10184000FEF7F6FCA5EB800504FB16553D6020462F
:10185000F8BD0020FCE72DE9F04F89B00646DDF821
:101860004C9005928846184643B94FF0FF33C9F8AB
:101870000030149B186009B0BDE8F08F581E079027
:1018800007A9B06EFFF7CAFF12A90546B06EFFF7B1
:10189000C5FF4FF0040A07460DF1140BAF4205993E
:1018A00006D3149A129BC9F8001000201360E2E7D7
:1018B000EC1BB4FA84F395FAA5F2B2FA82F2C3F102
:1018C0001F04944228BF1446A300CDE90013CDE9BC
:1018D00002BA0423424600213046FFF7E5F800280B
:1018E000C9D1012303FA04F42D1BD7E72DE9F04FEA
:1018F0004E6B9046CA6A964285B007460C465CD24B
:10190000961B9E4228BF1E46DFF8B4B0B14601F1D7
:10191000400AB9F1000F01D1304618E0226B5103A3
:1019200004D5BB6EE16BDB6999421BD1D202636BBC
:1019300010D404F13C02029204F13802CDE90032E5
:101940005146D4E90A233846FFF785FF30B105B088
:10195000BDE8F08F6FF00102C4E90E23236B43F45E
:1019600080232363BB6EE26BDB69216B01929D1ABE
:101970004D4528BF4D4611F48011CDE9028515D0A3
:10198000A2884BEA8222009204F1080152463846AE
:10199000FFF798FE0028DAD1636B2B446363E36B97
:1019A0002B44E363A844A9EB0509B2E7A26B0092BC
:1019B00038465246FFF778F8ECE70020C7E700BF4B
:1019C000000010202DE9F04F89B006461298DDF88E
:1019D00050A00F469046994698B30138059005A946
:1019E000B06EFFF71BFF0DF1180B0446139B494621
:1019F0005046984728BB24B304F00105C5F1020303
:101A00009B00CDE90090CDE902B34246394630460D
:101A1000FFF74AF8A8B9E34303F00109814507DC61
:101A200008AB03EB8903023D53F8089C2C44DDE727
:101A30000699139B5046984702460120002AEDD094
:101A4000104609B0BDE8F08F2DE9F04F91B0044683
:101A50000D46164600211C2208A80593DFF82891A0
:101A6000DFF828A103F05AFE01230F934FF000087E
:101A70000EA8FEF72BFF20B1A76A002F54D13846DD
:101A800040E0A36E1B6AB8EB530F7AD20E99304632
:101A900008F10108A847002834D10F993046A8471B
:101AA00080BB0EAA08A92046FFF7D0FB50BB074613
:101AB0000DF1180BBDF83420BBB29A42D8D9BBB295
:101AC000CDF800B049EA8323524608A92046FFF723
:101AD00041F9002803DA831C14D10137EAE740F208
:101AE0000222B2EB105F4FEA10530ED1079B009316
:101AF000CDE90156069B224600212046FFF762FFF2
:101B00000028EAD011B0BDE8F08F059A002AE4D091
:101B1000B3F5007FE1D106993046A8470028F1D1FE
:101B200007993046A847EBE7BB79012B01D03F6806
:101B3000A3E73B6B03F48813B3F5803F13D03B6BF3
:101B400003F49013B3F5003FF1D1CDE901567B6B5F
:101B50000093BB6B224607F140012046FFF732FF9E
:101B60000028E4D0CEE7CDE90156FB6A0093BB6ABA
:101B7000224607F140012046FFF724FF0028DED06F
:101B8000C0E76FF05300BDE70800002000FC0F70B5
:101B900007B500230449019301AAFFF755FF00B9D7
:101BA000019803B05DF804FB2D0A0008026A8A421E
:101BB00008B505D8074B084AFF21084803F02CFD5B
:101BC000C3689847002804DD054B034A40F2011121
:101BD000F3E708BD1D6B0008CE7000083B680008E5
:101BE0005468000810B50C46826AE068FF2103F0D3
:101BF00095FD4FF0FF33236010BD000070B50D461A
:101C000081664969044631B9644B654A40F64871BA
:101C1000644803F001FDAA6922B9634B604A40F6AB
:101C20004971F5E7AE6A26B9604B5D4A40F64A71E4
:101C3000EEE7B6FBF1F301FB136323B15C4B584AAB
:101C400040F64E71E4E7B6FBF2F302FB136323B1F7
:101C5000584B534A40F64F71DAE7EA69B2FBF6F3A4
:101C600006FB132323B1544B4D4A4FF47561CFE764
:101C7000A2F108014FF0FF33B3FBF1F3013BB3FADC
:101C800083F3C3F12003B2EB830F04D24B4B444ADE
:101C900040F65371BCE76B6A23B9494B404A40F6A2
:101CA0005C71B5E72B6BA3B1C3606B6BEBB1E36108
:101CB00028462146FFF796FFA06E04F11001FFF7BA
:101CC00091FFA56EE86AB8B93E4B354A40F67A7185
:101CD0009EE7304603F0F4FCE0600028E5D12046A2
:101CE000FEF7A9FE6FF00B0057E0304603F0E8FC6A
:101CF000E0610028DCD1F2E7410702D1AB6B9A0723
:101D000004D0314B264A40F67B7181E743B16366CC
:101D1000EB6BFF2B0AD92D4B214A40F6887177E7F0
:101D200003F0CEFC60660028F2D1D8E743B1E36649
:101D30002B6C002B06DA264B194A40F68E7167E7AA
:101D4000FF23F4E708BF6FF000436A6C236740F29B
:101D5000FE339A4204D91F4B114A40F6947157E75B
:101D6000002A18BF13466367AA6CEB699A4204D92C
:101D7000194B0B4A40F69A714AE700204FF0FF33A7
:101D8000C4E90833C4E90A00C4E90F00C4E90C003F
:101D9000C4E912006064A063206570BD9E680008FD
:101DA000FF7000083B680008B7680008D0680008AA
:101DB000EA6800081A6900084A6900087B69000897
:101DC000C7690008E3690008006A0008546A00084F
:101DD0006E6A00088F6A0008AA6A00082DE9F043BD
:101DE0000E4609689946CB1C85B0074690463ED8FA
:101DF000806E036A994205D31F4B204A9E212048DA
:101E000003F00AFC8269B4681444013CB4FBF2F3A9
:101E100002FB1343E41A00948568F3687268A847CC
:101E2000051E03DD174B154AA221E8E706D1B9F1DB
:101E3000000F07D1B86E3146FFF7D4FE284605B033
:101E4000BDE8F0834FF0FF33C8F80030F36801932A
:101E50007368009302943368224641463846FFF780
:101E60008FFC002805DBE5D06FF05305E6E7002581
:101E7000E4E70546E2E700BFD96A0008B57000084C
:101E80003B680008546800082DE9F74FDDE90C8530
:101E900018F1020F9146DDE90EB7826E06460C4638
:101EA0009A4608D0136A434505D82A4B2A4AD321BB
:101EB0002A4803F0B1FBD269EB19934230D9284B81
:101EC000254AD421F4E7236843452FD16068A8420E
:101ED0002CD8B26E926A0244AA4227D9521BE368F8
:101EE000BA42A5EB000028BF3A4659461844019271
:101EF00003F006FC019A636815449344BF1AA26874
:101F0000EB1A934238BF1346B26EA360926A9A42AC
:101F100006D153464A4621463046FFF75FFF10B9C7
:101F2000002FD0D1384603B0BDE8F08F013303D085
:101F30000C4B094AF121BBE7B36EC4F800809A69E3
:101F4000B5FBF2F302FB1353EB1A63600023A360AB
:101F5000E6E700BFFF6A0008C27000083B6800089F
:101F60003B6B00085E6B0008F0B585B0CDE902233D
:101F70001D464B6801930B6800930C4617460023DF
:101F8000024600F11001FFF77FFF064640B9E06806
:101F90002A46394601F054FE6368E0602B446360D2
:101FA000304605B0F0BD2DE9F04F074687B010462A
:101FB0009946FEF7A6FC4B6890464A690344934253
:101FC0000C46054644D88B6828F0004A8AEA030389
:101FD0001BBA059305AA04233846FFF7C5FF06463A
:101FE00068B9B8F1000FA5F104050CDB2B464A4691
:101FF00021463846FFF7B8FF40BBC4F808A030467A
:1020000007B0BDE8F08FA8460DF1130BA5EB080350
:10201000B8F1000FF1D00122CDE902B2D9F80420C5
:1020200013440193D9F8003000933A464346002107
:102030003846FEF739FD48B901235A46214638464D
:10204000FFF792FF08F1FF380028DFD00646D6E7F9
:102050006FF01B06D3E713460A46D0E90001FFF7ED
:10206000A2BF0000836E2DE9F04F9A694E681644B6
:1020700007368DB0B6FBF2F302FB1363F61A0023AA
:1020800007930593A6F1080307460D4640F2FE3B71
:1020900006936B68B34218D339464FF0FF3341F8CB
:1020A000103B3A4600233846FFF798FE04460028C6
:1020B00040F0BE80B86E03699847041E6EDD604B29
:1020C000604A6148C82103F0A7FA03F1040AA6EBAD
:1020D0000A035B4594BF0AEB03080AEB0B08B04503
:1020E00003D2069B984528BF98464FF0FF3309AAB4
:1020F000CDE9018209932A680092042303933A46AA
:1021000000213846FEF7D0FC044618B110F1540FF8
:1021100040F08E80099BE8681BBA6FEA03094FEA1A
:10212000D97303F5A062A8EB0A0343EA025343F410
:102130007F23AA6843F440630AAC099353401BBA57
:10214000214604220A9301F07BFD0823CDE90243D6
:102150006B6801932B68E8600B9000933A4600236C
:1021600007F110013846FFF78FFE044600285FD1C3
:10217000059B69681BB90B1D0593EB680793099BC9
:1021800009F00049C3F30902043289EA03030A444F
:10219000AB604FF0FF336A60EB607AE748D1D5F867
:1021A0001080DDF814A0B04542D20AF104034FF0CC
:1021B000FF3906930DF1280B1DE0059B434502D125
:1021C000079B4B4531D10123CDE902B32B68009326
:1021D000069BCDF80480A3EB08033A46002138465D
:1021E000FEF762FC18BB48460122594601F028FD63
:1021F00008F101088146069B4345DED8B9F1000F7E
:102200001AD1A6EB0A0240F2FE339A4294BF0AEBBF
:1022100002080AEB0308B04504D2A6F1080398456A
:1022200028BF984608F1040ABDE76FF05300044642
:1022300020460DB0BDE8F08F6FF05304F8E700BF03
:10224000546800086C7000083B6800082DE9F341F1
:10225000364E04460D460127A36DD4E91701984276
:102260000ED1626D134400293AD1314A00923149AE
:10227000314840F2472203F023FE6FF01B0026E0B6
:10228000421CE2650139626E21664FEA501C00F083
:102290001F0152F82CC007FA01F111EA0C0FDCD132
:1022A000A16E636D096A0344B3FBF1F001FB1033C7
:1022B0002B60A66D0125E36DB34234D0590903F0BC
:1022C0001F0052F8211005FA00F0084002D102B0B8
:1022D000BDE8F0810133E365236E013B2366EAE745
:1022E000A26E106AD26AB3FBF0FC00FB1C3363657C
:1022F0004FF00008D3008B4294BFA365A165606EC8
:10230000C4F85C80414603F009FA012322463146B5
:102310002046FFF799FB00289ED0A36E1B6A236618
:10232000C4E91688D3E70020D1E700BF7709000889
:102330006F6D00083B680008816B00087FB50C4694
:1023400004310646FFF782FF054680BB2146304632
:10235000FFF77CFF054650BB2246042342F8080FD6
:10236000CDE90223226801900092014632463046B0
:10237000FEF79AFB10B110F1540F1BD1B36E5A6ADD
:10238000002A0BDDA368013242F00102013B134435
:10239000B3FBF2F102FB11329B1AA3604FF0FF3343
:1023A0000422C4E903230022C4E90523E36128468B
:1023B00004B070BD0546FAE72DE9F04FDFF8F0B044
:1023C00087B004460D4605A92046FFF73FFF0646A5
:1023D00048B90599A06EFFF7E9FB0646002853D0DF
:1023E00010F1540F56D0304607B0BDE8F08F2A6B7D
:1023F000CDF80C800DF1130912F4801FCDE901799D
:10240000A3EB07031CD0AA884BEA8222009205F1B5
:10241000080152462046FFF755F978B9059B00930D
:10242000CDE9029801970123224604F110012046CC
:10243000FFF72AFD60B110F1540F2BD00646D2E70A
:10244000AA6B0092514622462046FEF72DFBE4E798
:102450000137EB6BBB42CAD8A36EE1699A6AE86C9C
:1024600003F04EF923692B6463696B64A369AB6461
:10247000A06E04F11001FFF7B5FB059BAB632B6B5E
:1024800043F400332B63AEE7074605F1400A4FF0F3
:102490000108DEE7074B00930749059B074840F614
:1024A000124203F00DFD4FF0FF3323618BE700BFB5
:1024B000000010206F6D00083B680008A86B000842
:1024C0002DE9F04F8FB0CDE905230B6B0D46D902F6
:1024D000064623D5069B6C6BB16EE018EB6A8A6AE0
:1024E000984238BF18468B6CFBB140F2FE37BA42B7
:1024F0004FEAD30328BF3A46934228BF134683428C
:102500000CD20B6AEC63294633663046FFF754FF62
:102510002B6B044668BB23F480132B63DDF818B0E3
:10252000BBF1000F03D1069C26E0CB69DDE72A6BE7
:1025300012F4003104D0B36EE86BDB69984253D1DA
:10254000D2026B6B00F1EE8005F1400AE1B9DBB11C
:1025500005F13C020292013B05F138020192009321
:102560005146D5E90A233046FFF775F9044638B1DC
:102570002B6B43F400232B6320460FB0BDE8F08F94
:10258000B06E5146FFF72EFBB36E1B6A3366AB6B22
:1025900007936B6B04930BA93046FFF757FE044675
:1025A0000028E5D10B99B06EFFF700FB044678B127
:1025B00014F1540FDCD1644B009364490B9B6448C5
:1025C00040F6DE2203F07CFC4FF0FF332B64E2E7A1
:1025D000049BB06E002B2CD10B9BAB63049BEB6375
:1025E0002B6B43F400332B63B36EDF69EB6BFF1A85
:1025F0005F4528BF5F4605F14008059B0293EB6BE2
:102600000193AB6B0093039701233246414630465A
:10261000FFF73AFC0446002800F0878010F1540FC1
:10262000A6D129463046FFF7C7FE04460028E4D06D
:102630009EE7049B0CA9013B0C93FFF7EFF8B26EE9
:102640000C9BD269013393420C9355D100F10108E0
:1026500098FAA8F8B8FA88F808F101030893079BDC
:102660000D93A1460DAF4FEA890309930423CDE9E9
:1026700002734FEA890301930B9B009332460123B7
:1026800051463046FFF700FC0446002890D1C8456B
:1026900037D1089B09F101094B45E4D80B9BAB638B
:1026A000089B9B009BE7079A0092CDE90279CDF841
:1026B0000480A3EB0803324600213046FEF7F4F90C
:1026C000044600287FF454AF0B9B0093CDE90279B8
:1026D000CDF804800123324651463046FFF7D4FB43
:1026E000044600287FF464AF08F101080C9B4345C1
:1026F000D9D80B9AAA6372E7A0464FF001090DAF33
:10270000F4E70423CDE90273099B01930D9B009329
:102710000146042332463046FEF7C6F90446002837
:10272000B7D025E76FF00102E4E76B6B3B446B63C6
:10273000EB6B3B44EB63059B3B440593B36E1B6A19
:102740003366ABEB070BEBE66F6D00083B680008E8
:10275000A86B00082DE9F0430B6B0C46590399B0A8
:10276000054608D5DA0258BF4FF0FF3223F4802324
:1027700058BF22642363216B11F4003039D011F467
:102780008011666BE76A4ED1542203A802F0C6FF9F
:10279000A36ACDE90D370123CDE90F3695E80F0087
:1027A00013AF87E80F004FF0FF372F60626BE36ACB
:1027B0009A4221D3DFF89090DFF89080244F0123D4
:1027C0002A4604F140012846FFF708FB78B310F1D0
:1027D000540F0ED14146A36BCDF8009040F66142F4
:1027E000384603F06DFB21462846FFF7E5FD00283B
:1027F000E5D019B0BDE8F08301230DF10B0203A968
:102800002846FFF773F80028F3DB01230DF10B02D4
:1028100021462846FFF754FE0028EADB2B680133E7
:10282000C4D01397C1E7BE422CBF66636763A36B36
:10283000A362636BE362236B23F4003343F48033BE
:10284000C4E90C360020D4E76F6D00083B6800082F
:10285000A86B00082DE9F7431E460B6B17469A0735
:1028600005460C4606D4234B234A244840F65751CC
:1028700002F0D2FE5A0319D4216B0B051DD4D4F8F3
:1028800034802B6F08EB06029A422FD811F40039DE
:1028900019D033463A4621462846FFF711FE002854
:1028A00008DB236B23F40023236303E0FFF752FFCD
:1028B0000028E1D003B0BDE8F083E36A626B9A427E
:1028C00038BF6363DBE7E36A9845E2D963630123BA
:1028D0000DF10702214628468DF80790FFF7F0FD1D
:1028E0000028E7DB636B9845F1D8D2E76FF01A0058
:1028F000E0E700BFCB6B0008087100083B680008E8
:102900002DE9F04F97B0CDE90823836EBDF88480A0
:102910005A6A8B68BDF888B0002A04460D4603F158
:10292000010327DC8B6000260027A06E69681091E8
:1029300000234FF0FF32CDE91132CDE91323836C30
:10294000002B47D0083B1593FFF730F9002843D000
:1029500010F1540F40F0D6804FF0FF332361FEB9E1
:10296000714B009371496B68714840F25E7203F0DD
:10297000A7FA15E0013242F00102B3FBF2F102FBCB
:102980001132AB60002ACED1012610A92846109240
:102990001196FDF7A5FF0028C6D04FF0FF33236145
:1029A0004FF00009012710A92846CDE91097FDF73F
:1029B00097FF002840F0A9805B4B00935B496B6850
:1029C0005C4840F2637203F07BFA6FF01B0099E001
:1029D0000646AAE7C369B5E70DF14009042305F1EE
:1029E000080249462046FFF7BFFA0028B0D10BABDA
:1029F0000793514B0693C8F100031BB2CDE904B312
:102A00004E4B0293099B0193089B00930246209929
:102A1000CDF80C804FF0FF332046CDE90B49FEF78F
:102A2000F9FC002894D105F118010846FDF74EFF86
:102A300060B9EA7D0B46424902F5C06241EA0252A2
:102A400020464946FFF7AFFA002881D10023CDE99F
:102A50000D330F934FB904F13C010DA8FDF75BFF57
:102A600004F130010DA8FDF756FF04F1480A514664
:102A70000DA8FDF750FF0D9B23F47F7323F0030394
:102A80000DAA294620460D93FEF770F9002839D18A
:102A90000DA8FDF74EFF40B92A4A0DAB4946204626
:102AA000FFF781FA00287FF453AF49462046FFF72D
:102AB000D9FA00287FF44CAFA36E119A9969B2FB42
:102AC000F1F301FB132333B11F4B204A174840F2A7
:102AD0004C7102F0A1FDD5E90010EA60ABEB0808EB
:102AE000129AA5F81480C5E900012A61A364CAE915
:102AF000013337B904F13C03303494E8070083E82C
:102B00000700384617B0BDE8F08F291D2046FFF7B3
:102B10009DFB00283FF45CAF10F11C0FF2D1002E9A
:102B2000F0D037464E4600E76F6D00083B6800085E
:102B3000A86B00081E6C00085720000800FC0F401E
:102B400008FC0F000CFCFF7FF86B00085C700008AD
:102B50002DE9F0438DB00C4604A9BDF8549005460C
:102B600017469846FFF7EAFB064638BBE37D8DF82B
:102B70002730A3690A93E3690B93BDF85830CDE978
:102B80000193149B00933A46434604A92846FFF755
:102B9000B7FE002816DBDDF81080059FC4F818800A
:102BA0000123E761E37505F120012046FDF798FE5A
:102BB00020B9B9F1000F01D1C5E9088730460DB041
:102BC000BDE8F0830646F9E72DE9F04F97B01F46C0
:102BD000DDF884800992002306460D46184640F22F
:102BE000014440F2FF4C07F1040E209A934240F05A
:102BF0008980002840F0B280AB7D002B40F0CF8070
:102C00004FF0FF33B5F8149033614FF00008C3461E
:102C1000A9EB080ABAF1010F00F27281B8F1000FB6
:102C20001CD01FFA88F8CDE90189209B00953A460F
:102C300029463046FFF78CFF0446002800F0478104
:102C400010F11C0F5AD1A34B01936B680093A2495A
:102C50002B68A24840F2AD7203F032F9B36E5A6AA3
:102C6000002A3FDDAB680132013342F00102B3FBC1
:102C7000F2F102FB1133002B34D1109310A9012380
:102C800028461193FDF72CFE804658BB3046FEF7D0
:102C90007FFF041E78DBB36E1B6AB4EB530F21D2A7
:102CA000DFF830A2AB688C498D48CDF800A040F227
:102CB000C17203F005F9CDE90189209B00953A46E0
:102CC00029463046FFF744FF0446002800F05381B0
:102CD00010F11C0F12D180498248534640F2CB724A
:102CE00003F0EEF80023CDE90053CDF80890209BC7
:102CF0003A4629463046FFF703FE0446002C80F290
:102D0000CC8041E057F833100A0DC1F30A51A142BB
:102D100004D1AA8A0132AA82013366E761450CD147
:102D2000AA8A32B9704B714A40F2E3716A4802F0E4
:102D300073FC013AAA820120EEE702F4E069B9F5DA
:102D4000C06FE9D15EF83310D1F80090C5F8189043
:102D50004968E96102F00102EA75DDE7AB8A002B00
:102D60007FF44AAFB8F1000F04D1614B5F4A4FF4D2
:102D7000FE61DBE7424629463046FEF774FA044618
:102D800030B1831C3FF438AF204617B0BDE8F08F58
:102D900098F81730002B3FF42FAF02247DE0EA684B
:102DA000B06E2B6810934FF0FF31CDE91312816C98
:102DB0002B691192129301B3083915910BA9079150
:102DC0004C4906910021CDE90411CDE90211209969
:102DD0000B96CDE900710DF1400B29463046CDF838
:102DE00030B0FEF717FB044648B114F11C0F3FF456
:102DF00007AF14F1540FC7D102E7C169DCE706F150
:102E00003009CDE90D000F9049460DA806F13C08A8
:102E1000FDF781FD06F1480A41460DA8FDF77BFD4F
:102E20000DA85146FDF777FD0D9B23F47F7323F02A
:102E300003030DA80D93FDF77CFD80B90DAA29466B
:102E40003046FDF793FF044600289DD12A4A0DAB7A
:102E500059463046FFF7A7F804460028C5D1594621
:102E60003046FFF7FFF804460028BED1B26E119B32
:102E70009169B3FBF1F201FB123222B11F4B1B4AE5
:102E800040F63A0152E799E80700EB60129B2B618C
:102E900088E80700B464CAE90144099BD6F8288091
:102EA0001B681093099B5B68119340F2FF4BB8F1CC
:102EB000000F3FF469AF08F1080910A94846FDF773
:102EC0000FFD8246002858D0D8F80080EFE7C146B1
:102ED0009BE600BF6F6D00083B680008686C000847
:102EE000966C0008C66C0008546C000889700008D5
:102EF000636C0008572000080CFCFF7FF86B00088B
:102F000010AB1FFA88F207934A4B069353421BB249
:102F1000CDE90493484B0293209B0392CDE90073C3
:102F200000224FF0FF3329463046CDF840B0FEF77F
:102F300071FA044600287FF4E1AEBAF1FE0F15D80D
:102F4000B26ED169936CA1F1240093B159089469D0
:102F5000621E5318B3FBF4F204FB12329B1A834235
:102F6000109A28BF03469342BFF458AE08EB5A08A4
:102F70004EE64908EBE78146B4E6AE46BEE80F00F0
:102F8000CC46ACE80F009EE80F008CE80F00099BD0
:102F9000994508D040F201404FF0FF31209AB8F82F
:102FA0000430924517D108F1200AB8F80430B8F877
:102FB0001C20934288D398F81F10002984D09B1AB4
:102FC000A8F80430524649463046FEF73FF900283B
:102FD000EBD00446D8E657F83A20C2F30A5CDC4549
:102FE00016D1C2F389229A4204D1C8E902110AF12A
:102FF000010AD3E7FBD2013BA8F8043098F8063069
:10300000022BF4D1D8F82830013BC8F82830EEE77D
:103010008445ECD1C2F389229A42E8D80133A8F85A
:10302000043098F80630022BE1D1D8F8283001336B
:10303000EBE700BF190A000800FC0F402DE9F04F34
:10304000876A9FB004460E4690469A46002F63D189
:10305000336806933746736807930FCF0EAD0FC5DD
:1030600097E80F000DF158090EAF85E80F00CDE984
:1030700000A94346324639462046FFF7A5FD051E06
:1030800075DB06A93046FDF72BFC48B9BE46BEE805
:103090000F00B446ACE80F009EE80F008CE80F006C
:1030A000022D29D104F1480231462046FDF75EFE8B
:1030B000054600285BD1169B0693179B0793F37D6B
:1030C000019003F5C062AC4B43EA02530A9301231B
:1030D000009318360AAB06AA494620460B96FFF71E
:1030E00073FD051E43DBCC46BCE80F003E460FC611
:1030F0009CE80F0086E80F000023DFF880A2DFF8CD
:1031000080B205932E46012E00F0A580059B002B72
:1031100014BF032500252AE007F10800B04201D1C1
:103120003F6893E73146FDF7DBFB0028F8D1BB7918
:10313000012BF5D13B6BDA02F2D5A36EF96A9A6ADC
:103140009142EDD97A6B1B6AFA63394623662046B1
:10315000FFF732F9054650B93B6B23F480133B630C
:1031600039462046FFF7F6FA05460028D8D028460B
:103170001FB0BDE8F08F05F1080106A8FDF7B0FB10
:1031800008B9C5E90286AB79022B07D105F12C01FC
:1031900006A8FDF7A5FB08B9C5E90B862D6874E004
:1031A00001212046FDF75EFC0646002840F0E28043
:1031B000494604F13000FDF7C8FB002800F08B8081
:1031C000266B179B0093C6F38926169B6D4840F625
:1031D000F102CDE9016A594602F072FE226B6A4B98
:1031E000A5631340C4E90C35C8F38923B34276D9EB
:1031F000A8F58062169B0893179B099340F2FF3352
:103200009E4218BF614B0D9718BF43EA86264FF0C8
:103210000003CDE90B3201934FF0020308BF0026F3
:10322000009308AA0AAB494620460A96FFF7CCFC51
:10323000061EC0F29F80012E38D1089B0693CC4613
:10324000099B0793BCE80F003D460FC59CE80F00A3
:1032500085E80F0005960F9B02930E9B0193079B39
:10326000009340F6C402069B4948CDF80CA059468D
:1032700002F026FE04F1200106A8FDF731FBDDE98E
:103280000E8608B9C4E90886A56A002D7FF473AFDD
:103290004A4606A92046FDF79BFFB0F10008BFF69D
:1032A0007FAF18F1020F40F08F802E464A4606A9E4
:1032B0002046FDF7D8FF054698B1831C7FF457AF31
:1032C00018F1020F3FF41FAF324B334A2C4840F63F
:1032D000141102F0A1F9424640F2FF368AE7424655
:1032E00088E7236BC3F30903002B38D1494604F167
:1032F0003000FDF72AFB002850D140F2FF35169B25
:103300000693179B079340F2FF339D421CBF1F4B50
:1033100043EA85259DF86F3003F5C062164B43EAFA
:1033200002534FF00001CDE90C374FF0020308BF04
:1033300000250B910191009306AA0AAB494620464D
:103340000A95FFF741FC061E14DBCC46BCE80F00D3
:103350003D460FC59CE80F0085E80F00D3E618F145
:10336000020118BF012149422046FDF77BFB0646BA
:103370000028BBD03546FAE608FC0F006F6D000848
:103380003B6800082D6D0008FF0300800000F04F2F
:10339000F16C0008706D0008DB700008256B179B4E
:1033A0000093C5F38925169B084840F62512CDE900
:1033B000015A594602F084FD226B054B13402363EA
:1033C0000023C4E90D339AE74546D0E62D6D000889
:1033D000FF0300802DE9F04F0446006BC0F30900A5
:1033E000A3B00F46002800F0BA80DFF87891DFF82C
:1033F00078A100251C2200210AA802F08FF9DFF82D
:103400006C8101238DF83F30119310A8FDF75EFA0F
:1034100060B194F830108D4228BF0D46694249B220
:10342000204623B0BDE8F04FFDF71CBB10AA12A93F
:103430002046FDF70BFF002840F091809DF83F30BB
:10344000002B40F081801AAA10A92046FDF7C0FE8B
:1034500000282EDA831C40F08280002F74D0119B4C
:103460004349009341F2A312109B4248CDF80480D7
:1034700002F026FD04F1480212A92046FDF776FC71
:1034800000286CD19DF85F3003F5C0623A4B43EAE7
:103490000253069318AB0793012306AA0AA92046F4
:1034A000FFF7CCFD00285ADB013503286DB2ACD103
:1034B000A0E704AE034600964A461AA92046FDF747
:1034C00049FC00284BDB0499109B0598119A9942FE
:1034D00001D1904238D0914201D1834234D0CDE91C
:1034E0000021CDE902082249244841F2CC1202F021
:1034F000E7FC0AA904F13000FDF727FA38B90023E8
:1035000006930023CDE9073A09960223C5E7236B0A
:1035100017491B48C3F3892B0B9B009341F2D71229
:103520000A9BCDE901B802F0CBFC226B154B13408E
:1035300023630023C4E90D3340F2FF339B45DED003
:10354000114B43EA8B23DBE712AE0FCE0DF1280CB3
:10355000ACE80F0096E80F008CE80F0055E723B0A9
:10356000BDE8F08F00FCFF7F08FC0F606F6D000866
:103570003B680008956D000808FC0F00C26D00084C
:10358000066E0008FF0300800000F04F10B50446EF
:10359000FFF754FD002806DB05D020460021BDE8DA
:1035A0001040FFF717BF10BD30B5C36B1A0D12F4F2
:1035B000E06F8FB0044606D1012120460FB0BDE870
:1035C0003040FFF707BF174A0292C3F389230193E4
:1035D000436C00930546144955F8403F134841F2A7
:1035E000681202F06DFC2A4606A92046FDF72EFE61
:1035F000A8B9E36B216BA063C3F389220C4B0B408A
:10360000C4E90C300B4B43EA8223CDE9043004AA11
:10361000012306A92046FFF7B9FF0028CCD00FB040
:1036200030BD00BF6F6D00083B6800084D6E00089C
:10363000FF0300800000F04F70B50B6B1E0386B0D7
:1036400005460C4602D5002006B070BDFFF782F893
:10365000226B18B142F400222263F5E7D103F2D5C0
:1036600004F108063046FDF731F90028EBD1D3020A
:103670005DBFD4E90A016B46C3E90001E26AA18893
:103680004BBFE36C082240F2012040F2022042EAE4
:10369000812242EA0052CDE90223226D936843EA77
:1036A000812343F0815304935368059302AA0223B4
:1036B00031462846FFF76AFF236B18B143F4002315
:1036C0002363C1E723F48033FAE770B505460C465F
:1036D000FFF7B2FFAB6A064605F128021BB19C4218
:1036E000196808D11160236D1B6813B9E06C01F0F3
:1036F000EFFF304670BD1A460B46EFE72DE9F04765
:103700008AB013F0020F06460D460392984634D154
:10371000129B2B6505F1080700236B63EB63EB64D9
:10372000C5F830802B1D03AA39463046FDF7C4FD8D
:10373000041E06DAA31C17D1AA8840F2FF339A426E
:1037400012D00123AB71B36A2B60A01CB56259D1B2
:1037500018F4807F08D0039C2046FCF711FDF36E1F
:10376000834213D26FF023042B6B43F400232B63AB
:1037700029463046FFF7A9FF04E0FFF715FF04468E
:103780000028C5D020460AB0BDE8F087AB88664A5D
:10379000DFF8988142EA832240EA8320049240F4D1
:1037A0008010002248EA8323CDE90604CDE90832DF
:1037B0000592032304AA39463046FFF7E7FE10F1CD
:1037C0001C0F0446CED00028CED14446DFF860A1BD
:1037D0004FF000084FF00C092B6D9A68424538D81D
:1037E0001B68D6F86880002B63D0EB6405F14001BC
:1037F0004046FEF7F7F940F20123B3EB145F62D0C5
:103800000024BFE718F4007F40F08480C4F30A501E
:10381000012840F08280A88818F4806F4FEA802049
:1038200008D02B6B40F0005443F4803344F48014F0
:103830002B63CBE705F12803009340F000533D4A8A
:1038400043F0080339463046FDF784FA041EBDDA1A
:103850008AE72A6BD10705D42B6B9A071DD408F190
:103860000108B9E75868B5F804C009FB08F28118E7
:10387000825C8B684968009143EA8C2302F54072B0
:1038800043EA0253394652463046FDF763FA0028B0
:10389000E2DA831CE0D0044666E72A6D526809FB31
:1038A00008229168726F91423AD843F480332B63B7
:1038B000D5E7D8F8280001F003FFE864002895D187
:1038C0006FF00B0450E76FF00103AB622B64002331
:1038D0002A6B6B64B36EC4F309049B6AEC6242F416
:1038E00080122A63AB64002C8AD040F2FE318B42F6
:1038F000AA8828BF0B4643EA8223EA6C009243F071
:1039000000530C4A39463046FDF724FA041EBFF630
:1039100077AF29E76FF0100426E76FF0140423E770
:103920006FF01B0420E700BF0000104000001020D3
:1039300000FCFF7F00FC0F70FDF77DB82DE9F04320
:1039400097B00446FEF75AF90546002841D10146D2
:103950001C220EA801F0E2FE6B4FDFF8B081DFF809
:10396000B091012315932E4614A8FCF7AFFF002851
:1039700033D004F12000FCF7A9FF002840F0C180FB
:1039800004F130063046FCF7D4FF60B9614B029376
:10399000A36B0193636B00935F49236B5F4841F214
:1039A0007B0202F08DFA236B03EBD373236396E85B
:1039B000070004F13C0383E80700A36E1A6AE36A78
:1039C000B3FBF2F102FB113363650023C4E9163344
:1039D0002266284617B0BDE8F083A36E1B6AB6EBDB
:1039E000530F80F08B800823079305ABCDE902834A
:1039F0004B4B0190009314AA4A4B0EA92046CDE9E7
:103A00000547FDF7EBF9002806F1010624DB6BD032
:103A100040F30900013067D00E9B23620F9B636265
:103A200008AB00933F4A4B460EA92046FDF792F99A
:103A3000002811DB089A130C022B91B200D181B13E
:103A40003449019192B234493748009241F235022B
:103A500002F036FA6FF0150005462046FFF76CFFBE
:103A6000B7E70B9B5BB1E26E934207D929492F4818
:103A7000CDE90021284941F23E02E9E7E3660C9BCB
:103A80005BB1226F934207D922492948CDE9002131
:103A9000214941F24902DBE723670D9B5BB1626F6D
:103AA000934207D91B492348CDE900211A4941F225
:103AB0005402CDE76367A26E0A9B116A8B4207D05E
:103AC000144A1D48CDE90012134941F25E02BFE7D6
:103AD000D2690999914207D00E4A0F491748CDE99A
:103AE000003241F26502B3E704F130020EA920462C
:103AF000FDF73CF900283FF437AFADE76FF0530016
:103B0000AAE76FF01505A8E77E6E0008E317000826
:103B1000180010206F6D00083B680008A46F0008B3
:103B20000800F00F00FCFF7F876E0008B06E0008F1
:103B3000E16E0008126F0008436F0008746F000800
:103B400013B50446806AFCF70EFF30B1064B074AF6
:103B5000074841F2685101F05FFD06480090204699
:103B6000FFF7CCFD02B010BDDB6F00084E700008FF
:103B70003B6800084871000808B50346806AFCF7F6
:103B8000F2FE30B9054B064A064841F28C5101F06D
:103B900043FD1846BDE80840FFF797BDDC6F0008FD
:103BA0003F7000083B6800082DE9F0410446806A38
:103BB0000D4616461F46FCF7D6FE30B90F4B104A8D
:103BC00041F2AE510F4801F027FD0B6BDA0704D428
:103BD0000D4B0E4A40F6EC41F4E79B0307D43B46FD
:103BE000324629462046BDE8F041FDF77FBE20461B
:103BF000FEF7B0FD0028F2D0BDE8F081DC6F0008D0
:103C00003A7100083B68000812700008297100082A
:103C100010B50446806AFCF7A6FE30B9054B064A8B
:103C200006484FF4AE5101F0F7FC2046BDE81040C5
:103C3000FEF710BEDC6F00081A7100083B68000830
:103C400030B50C4D0A44914200D130BD11F8013B12
:103C500083EA000404F00F0455F8244084EA1010AD
:103C600080EA131303F00F0355F8233083EA101092
:103C7000E9E700BF5471000810B5FCF7D9FD044610
:103C800068B908490848FFF759FE30B105490648A8
:103C9000FFF754FE041E18BF0124204610BD012466
:103CA000FBE700BF94710008E401002070470000AA
:103CB00038B5104C237805460BB9012038BD00F00B
:103CC00059FA22784FF47A73B3FBF2F3B0FBF3F0B6
:103CD00000F080F804460028EFD10F2DEDD8024601
:103CE00029464FF0FF3000F043F8034B20461D609B
:103CF000E4E700BF540000205800002010B5032066
:103D000000F024F800F036FA064B18600F20FFF799
:103D1000CFFF044618B901F017FC204610BD01245E
:103D2000FBE700BF50000020034A044B11681B78DA
:103D30000B441360704700BF5C0200205400002059
:103D4000014B1868704700BF5C0200200749CA6831
:103D500022F4E0620302120403F4E063120C134342
:103D600043F0BF6343F40033CB60704700ED00E0E5
:103D7000164B30B5DC68C4F30224C4F10703251DDB
:103D8000042B28BF0423062D4FF0FF3505FA03F35B
:103D90008CBF033C002421EA0303A34005FA04F48A
:103DA00022EA0402002843EA0203ACBF00F16040AB
:103DB000074A4FEA0313B8BF00F00F00DBB2AABFF7
:103DC00000F56140135480F8003330BD00ED00E091
:103DD00014ED00E00138B0F1807F0BD24FF0E0230A
:103DE000054A5861F02182F82310002007229861CB
:103DF0001A6170470120704700ED00E02DE9F04F97
:103E0000524C00234FF00F090A6832FA03F501D132
:103E1000BDE8F08F012505FA03F818EA020200F068
:103E20008E804E68032706F003054FEA430E07FA1B
:103E30000EFC6F1E012F6FEA0C0C32D8876807EA60
:103E40000C0ACF6807FA0EF747EA0A078760476847
:103E500027EA0808C6F300179F4047EA08074760AB
:103E6000C76807EA0C088F6807FA0EF747EA0807E1
:103E7000022DC76017D14FEAD30800EB880803F082
:103E8000070AD8F820704FEA8A0A09FA0AFB27EADB
:103E90000B0B0F6907FA0AF747EA0B07C8F82070FF
:103EA00001E0032DDCD1076805FA0EF507EA0C07DF
:103EB0002F4316F4403F076041D023F0030707F17A
:103EC000804707F5803703F0030CBD684FEA8C0C80
:103ED0004FF0070E0EFA0CFEB0F1904F25EA0E0ED1
:103EE0002FD01B4DA8422ED005F58065A8420CBFEF
:103EF0000225072505FA0CF545EA0E05BD60D4F844
:103F00008050D74316F4803F0CBF3D401543C4F8A2
:103F10008050D4F8845016F4003F0CBF3D40154348
:103F2000C4F88450256816F4801F0CBF3D4015432B
:103F300025606568B60254BF3D4015436560013396
:103F400062E70025D6E70125D4E700BF0008005846
:103F5000000400480AB18161704781627047000027
:103F6000024A136843F480731360704700040058DA
:103F7000024B186800F4C060704700BF000400588E
:103F80004FF0B0431868C0F3404070474FF0B04363
:103F90001868C0F3802070474FF0B0431868C0F332
:103FA000400070474FF0B042536823F47F4343EA28
:103FB0000023536070474FF0B0431868C0F340606F
:103FC000704700007FB54FF0B0432C4AD3F808315A
:103FD000C0F3031003F00F0352F82040284A52F8B0
:103FE0002330B4FBF3F4FFF7C3FF264B054693E8F9
:103FF0000700B5F5007F04AB03E9070010D0224BA2
:104000009C4218D303F5B70303F67F539C4229D98A
:1040100003F5741303F510639C4225D802230BE0CB
:104020001A4B9C4207D91A4B9C421BD903F5370304
:1040300003F5D853F0E7002304AA02EB830353F8F7
:104040000C4C144D2B6823F0070323432B60FFF720
:1040500077FE06462B6803F007039C4206D100203A
:1040600004B070BD0123E7E70024EAE7FFF768FE2C
:10407000801B0228EED90320F2E700BF207200085F
:10408000E0710008F0670008C0CF6A00BFEA2101B4
:104090003F933402004000584FF0B04310B59A6887
:1040A000D96812F00C0205D00C2A4AD101F00303A2
:1040B000012B50D14FF0B0412B480B6813F008038F
:1040C00006D00B6813F0080337D1D1F8941007E03D
:1040D0000C68240756BFD1F894300968C3F3032352
:1040E00050F82330002A0CBF184600204FF0B04192
:1040F0008A6802F00C020C2A1ED1CA6802F0030280
:10410000022A2ED0032A06D10B68184A13F4801F06
:10411000174B18BF13464FF0B042D068D168D26831
:10412000C0F306205843C1F302130133B0FBF3F090
:10413000530F0133B0FBF3F010BD0B68C3F303134F
:10414000CEE7042A0AD0082A05D11B6813F480138D
:1041500004D10748CAE700231846C7E703480023ED
:10416000C4E7024BD7E700BF207200080024F40028
:104170000048E80108B5FFF78FFF4FF0B043044A4D
:104180009B68C3F3031352F82330B0FBF3F008BD70
:10419000E07100082DE9F0410446002855D04FF0A9
:1041A000B0439D68DE680368990605F00C0506F0CB
:1041B00003066BD51DB10C2D49D1012E47D1FFF758
:1041C000EBFE10B1236A002B3FD04FF0B043A06A42
:1041D0001A68120756BFD3F894301B681B0903F006
:1041E000F00398421ED9FFF7EDFE00282DD14FF0C5
:1041F000B042136843F0080313601368A16A23F008
:10420000F0030B431360606AFFF7CCFEFFF7B2FFC9
:10421000AC4B1860AC4B1868FFF74AFD002835D04E
:10422000BDE8F0814FF0B042136843F0080313601B
:10423000136823F0F00303431360606AFFF7B2FED4
:10424000A06AFFF7BFFE0028E0D00120E8E7226A5D
:104250004FF0B043002A54D01A6842F001021A60AD
:10426000FFF76EFD0746FFF797FE002842D04FF09C
:10427000B042136843F0080313601368A16A23F087
:10428000F0030B431360606AFFF78CFE2368DB07C3
:1042900048D423689F0700F1908023681E0740F1EF
:1042A000FC80A3694FF0B046002B00F0E380D6F805
:1042B0009430E16903F01002914200F0C68003F0EF
:1042C0000302022AC1D0D80740F1B580D6F8943055
:1042D00023F00103C6F89430FFF732FD0746D6F805
:1042E0009430990740F1A780FFF72AFDC31B112BDB
:1042F000F5D904E0FFF724FDC01B0228B3D9032041
:104300008EE71A6822F001021A60FFF719FD0746CE
:10431000FFF742FE0028B9D0FFF712FDC01B0228AC
:10432000F6D9ECE7082D03D00C2D09D1032E07D1C7
:10433000FFF726FE0028ACD06368002BA9D184E7E4
:104340004FF0B043A1681A6822F480120A431A6041
:104350006268B2F5803F10D11A6842F480321A6068
:10436000FFF7EEFC0746FFF70BFE002891D1FFF7A1
:10437000E7FCC01B6428F6D9C1E7B2F5041F04D1DD
:104380001A6842F400121A60E6E7196821F48031D5
:104390001960196821F400111960002AE0D1FFF7B3
:1043A000CFFC0746FFF7ECFD00283FF472AFFFF7A4
:1043B000C7FCC01B6428F5D9A1E7042D03D00C2D40
:1043C00012D1022E10D1FFF7E1FD18B12369002BA5
:1043D0003FF43BAF4FF0B0426169536823F0FE43B6
:1043E00043EA0163536058E722694FF0B04382B15A
:1043F0001A6842F480721A60FFF7A2FC0646FFF7C3
:10440000C5FD0028E6D1FFF79BFC801B0228F6D9EA
:1044100075E71A6822F480721A60FFF791FC06466D
:10442000FFF7B4FD00283FF438AFFFF789FC801B8D
:104430000228F5D963E74FF0B042E169D2F8943031
:1044400023F010030B43C2F894304FF0B047D7F875
:10445000943043F00103C7F89430FFF771FC06462F
:10446000D7F894309A0718D4FFF76AFC831B112BF6
:10447000F6D944E7D6F8943023F00103C6F8943017
:10448000FFF75EFC0746D6F894309B0705D5FFF78B
:1044900057FCC31B112BF6D931E72368580753D5B6
:1044A0000A4F3B68D90513D4FFF75AFDFFF748FCC4
:1044B00006463B68DA050BD4FFF742FC831B022B50
:1044C000F7D91CE7500000205800002000040058D5
:1044D000E3684FF0B046002B58D023F08003052B43
:1044E00002BFD6F8903043F00403C6F890304FF086
:1044F000B046FFF725FCD6F8903043F0010307469D
:10450000C6F8903041F28838D6F890309B0705D431
:10451000FFF716FCC31B4345F6D9F0E6E36823F02A
:104520000403812B1BD1FFF70BFCD6F8903043F02E
:104530008003C6F8903007464FF0B04641F2883805
:10454000D6F89030180504D5E06A00284AD100203A
:1045500066E6FFF7F5FBC01B4045F1D9CFE6FFF754
:10456000EFFBD6F8903023F08003C6F89030074672
:104570004FF0B04641F28838D6F890301905E3D5AF
:10458000FFF7DEFBC01B4045F6D9B8E6FFF7D8FBC6
:10459000D6F8903023F080030746C6F8903041F2F9
:1045A0008838D6F890301A0516D4FFF7C9FBD6F82C
:1045B000903023F00103C6F8903007464FF0B04822
:1045C00041F28836D8F890309B07BDD5FFF7B8FB8D
:1045D000C31BB342F6D992E6FFF7B2FBC01B4045BE
:1045E000DFD98CE60C2D53D04FF0B04302281A6867
:1045F00022F080721A6033D1FFF7A2FB0546FFF765
:10460000DAFC38BBD4E90C314FF0B0420B43D06830
:104610002F4901400B43E16B0B43216C0B43616C51
:104620000B43A16B43EA0123D360136843F080730B
:104630001360D36843F08053D360FFF781FB0446D7
:10464000FFF7B9FC002882D1FFF77AFB001B0A288C
:10465000F6D954E6FFF774FB401B0A28CFD94EE683
:10466000DA6822F00302DA60DA6822F0885222F473
:104670008032DA60FFF764FB0446FFF79CFC0028F9
:104680003FF465AFFFF75CFB001B0A28F5D936E65F
:1046900001283FF4C5AD4FF0B043226BDB6803F057
:1046A000030191427FF4D1AD616B03F070028A4245
:1046B0007FF4CBADA16B03F4FE42B2EB012F7FF48C
:1046C000C4AD626C03F0604393423FF440AFBCE57D
:1046D0008C80C1112DE9F0410D46044610B901202E
:1046E000BDE8F081674E336803F007038B4216D3B1
:1046F0002368980727D54FF0B047A268BB6823F01E
:10470000F0031343BB60FFF71BFB0646BB68D903EE
:1047100019D4FFF715FB831B022BF7D911E033687F
:1047200023F007030B433360FFF70AFB07463368A8
:1047300003F00703AB42DBD0FFF702FBC01B0228EC
:10474000F5D90320CCE723685A0617D54FF0B047B8
:104750006269D7F8083123F00F0343EA1213C7F850
:104760000831FFF7EDFA0646D7F80831DB0305D428
:10477000FFF7E6FA831B022BF6D9E2E723685E0710
:1047800013D54FF0B047E268BB6823F4E0631343EE
:10479000BB60FFF7D5FA0646BB68980305D4FFF760
:1047A000CFFA831B022BF7D9CBE72368190714D55F
:1047B0004FF0B0472269BB6823F4605343EAC20359
:1047C000BB60FFF7BDFA0646BB685A0305D4FFF786
:1047D000B7FA831B022BF7D9B3E72368DB070FD4A3
:1047E000284C236803F00703AB4237D8FFF7C2FC1D
:1047F000254B1860254BBDE8F0411868FFF758BA03
:104800006368022B1ED1FFF7BBFB00283FF467AFA4
:104810004FF0B0466268B36823F003031343B360FC
:10482000FFF78EFA41F288380746B368626803F0F2
:104830000C03B3EB820FD3D0FFF782FAC01B4045C5
:10484000F3D97EE7032B02D1FFF7B5FBDDE713B900
:10485000FFF7A2FBD9E7FFF799FBD6E7236823F020
:1048600007032B432360FFF76BFA0646236803F028
:104870000703AB42BAD0FFF763FA801B0228F5D9D1
:104880005FE700BF004000585000002058000020A3
:104890002DE9F3471F46894690460446FFF750FA34
:1048A0000A9D3D442D1AFFF74BFA264B1E68C6F3AE
:1048B000CB366E43824601962268936839EA030339
:1048C0000CBF01230023434501D100202EE07B1CB7
:1048D000F3D0FFF735FAA0EB0A00A84229D32368EA
:1048E0005A6822F0E0025A606268B2F5827F0AD10B
:1048F000A268B2F5004F02D0B2F5806F03D11A68FA
:1049000022F040021A60A26AB2F5005F07D11A686D
:1049100022F400521A601A6842F400521A6001230D
:1049200084F85D30002384F85C30032002B0BDE8D9
:10493000F087019B002B019B03F1FF3308BF00258B
:104940000193B9E7500000202DE9F74F9946002365
:104950008DF80330044688461746FFF7F1F90C9DA1
:104960004D442D1AFFF7ECF92C4BD4F800B01E681B
:1049700023235E43360D6E43824601962268936878
:1049800003EA0803BB4201D100203AE0B8F5C06F4A
:1049900007D137B99BF80C30DBB28DF803309DF8A6
:1049A0000330B9F1FF3FEAD0FFF7CAF9A0EB0A00E4
:1049B000A84229D323685A6822F0E0025A6062684C
:1049C000B2F5827F0AD1A268B2F5004F02D0B2F5EB
:1049D000806F03D11A6822F040021A60A26AB2F511
:1049E000005F07D11A6822F400521A601A6842F474
:1049F00000521A60012384F85D30002384F85C3093
:104A0000032003B0BDE8F08F019B002B019B03F155
:104A1000FF3308BF00250193B0E700BF500000201E
:104A20004368B3F5827FF7B504460E4617460BD1AF
:104A30008368B3F5004F02D0B3F5806F04D12268CC
:104A4000136823F04003136000973346002280214F
:104A50002046FFF71DFF054628B1236E43F02003D3
:104A60002366032514E06368B3F5827F10D1A36841
:104A7000B3F5004F02D0B3F5806F09D100973346EC
:104A800000224FF4C0612046FFF75EFF0028E4D10A
:104A9000284603B0F0BD73B50B4600920D4616468E
:104AA0004FF4C05100220446FFF74EFF024628B1E2
:104AB000236E43F020032366032011E000962B466B
:104AC00080212046FFF7E4FE02460028F0D1009640
:104AD0002B464FF4C0612046FFF736FF0028E7D190
:104AE00002B070BDF8B5044600287CD0436A002BA4
:104AF0004FD14268B2F5827F00D0C36194F85D3037
:104B000003F0FF0223B984F85C20204600F082FC09
:104B10002268E168022384F85D301368B1F5E06F24
:104B200023F0400313604FF000035ED84FF480552C
:104B300000D0A3626368A768A069A66A07F4044767
:104B400003F482733B43276907F002073B4367691D
:104B500007F001073B4300F400773B43E76907F0A8
:104B600038073B43276A07F080073B4306F40057AA
:104B70003B43B6F5005F136011D1236B83BBB1F5E6
:104B8000E06F0AD902232363136843F400631360C0
:104B900005E00023C0E90433B0E701232363636A1F
:104BA000676B03F0100307F008073B4301F47061E3
:104BB000000C194300F004000143B6F5005F08BF84
:104BC000A38D45EA0105556008BF1361D36923F43D
:104BD0000063D36100200123206684F85D30F8BDB6
:104BE000022BDCD1D0E70120F9E71D46B1F5706F4B
:104BF0009EE72DE9F7431F4690F85C30012B0446F1
:104C00000D46904600F0CF80012380F85C30FFF71E
:104C100097F894F85D30012B8146D8B240F0C180FE
:104C2000002D79D0B8F1000F76D0032384F85D30E1
:104C300000232366C4E91333A4F83E802364A4F858
:104C40004430A4F84630A3682668A563B3F5004F46
:104C5000A4F83C8007D1336823F040033360336805
:104C600043F480433360A36AB3F5005F07D1336830
:104C700023F400533360336843F4005333603368E4
:104C8000E2685B065EBF336843F040033360B2F511
:104C9000E06F63684CD913B1B8F1010F07D135F853
:104CA000023BF360A563E38F013B9BB2E387E38F95
:104CB0009BB2F3B9A36AB3F5005F04D1226813680D
:104CC00043F4805313604A4639462046FFF7E3FE1B
:104CD00008B120232366A36833B901932368DA68F7
:104CE00001929B680193019B206E003818BF012040
:104CF00012E0226893689D0705D5A36B33F8021B69
:104D0000D160A363CFE7FFF71BF8A0EB0900B8421F
:104D10000BD3781CCBD00320012384F85D30002313
:104D200084F85C3003B0BDE8F083002FBFD1F2E718
:104D300013B1B8F1010F13D1E38F9BB2012B06D948
:104D400035F8023BF360A563E38F023B06E02B7866
:104D50003373A36B0133A363E38F013B9BB2E38700
:104D6000E38F9BB2002BA5D02268936899070CD5DE
:104D7000E18FA36B89B2012904D933F8021BD160FA
:104D8000A363E1E71B781373E3E7FEF7D9FFA0EB1A
:104D90000900B84202D37B1CE2D0BCE7002FDFD170
:104DA000B9E70220B8E70220BCE72DE9FF479946A2
:104DB000002303938DF80B3090F85C300C9F012B8F
:104DC00004460E46924600F0B481012380F85C3020
:104DD000FEF7B6FF94F85D30D4E90051012B2A6844
:104DE00080465FFA83FC68680BD0B1F5827F40F0A3
:104DF0009E81A368002B40F09A81BCF1040F40F023
:104E00009681002E00F07681BAF1000F00F07281D9
:104E1000B9F1000F00F06E8194F85D30C4F840A045
:104E2000042B1CBF052384F85D3000232366C4E9EE
:104E30001333A36AA4F84690B3F5005FA4F8449036
:104E4000A663A4F83E90A4F83C9007D12B6823F405
:104E500000532B602B6843F400532B60D4F80CC034
:104E60006B68BCF5E06F02D8B9F1010F3AD023F4BA
:104E700080536B602B685B065EBF2B6843F040037A
:104E80002B60BCF5E06F7FD911B1B9F1010F07D1EB
:104E900036F8023BEB60E38FA663013B9BB2E387EE
:104EA0004FF0010902F0040600F00805E38F9BB201
:104EB000DBB9B4F846309BB2BBB9A36AB3F5005F67
:104EC00040F001810122CDF800803B46114620468A
:104ED000FFF7DEFC002800F0EE80236E43F00203B3
:104EE00023662AE043F48053C3E723689A68900757
:104EF00007D5E28F92B222B1B9F1000F28D14FF05D
:104F00000009996811F001010FD0B4F8462092B25F
:104F10005AB1DA68236C23F8022B2364B4F84630C4
:104F2000013B9BB2A4F846308946FEF709FFA0EB8F
:104F30000800B842BAD3791CB8D00325012384F8FD
:104F40005D30002384F85C30284604B0BDE8F0876B
:104F5000A26B32F8021BD960E18FA263013989B2DA
:104F6000E187E28F92B2002AC9D1A26AB2F5005F4E
:104F7000C5D126B91DB11A6842F400721A601A68C8
:104F800042F480521A60BAE711B1B9F1010F0BD1A6
:104F9000E38F9BB2012B0DD936F8023BEB60E38F18
:104FA000A663023B9BB2E387012502F0040600F0F2
:104FB00008093CE033782B73A36B0133A363E38FC1
:104FC000013BEFE721688B689A0705D5E38F9BB219
:104FD00013B1002D35D1002521688B6813F0010332
:104FE0001DD0B4F8462092B2CAB1B4F84600226C83
:104FF00080B2012850D9C86822F8020B2264B4F8A4
:105000004620023A92B2A4F84620B4F8462092B262
:10501000012A03D84A6842F480524A601D46FEF7CE
:105020008FFEA0EB0800B84242D37B1C85D1E38FF2
:105030009BB2002BC6D1B4F846309BB2002BC1D135
:105040003BE7E28FA36B92B2012A1DD933F8022B02
:10505000CA60A363E38F023B9BB2E387E38F9BB2FB
:10506000002BB8D1A36AB3F5005FB4D1236836B979
:10507000B9F1000F03D01A6842F400721A601A687E
:1050800042F480521A60A6E71B780B73A36B0133BE
:10509000A363E38F013BDFE7097B1170226C0132D0
:1050A0002264B4F84620013A92B2A4F84620B5E74B
:1050B000002FBCD141E7E3682568B3F5706F1BD1C1
:1050C000EB680393039B2268956815F0100507D0E1
:1050D000236E43F0020323664FF6EF7393600125BE
:1050E000424639462046FFF7D6FC00283FF426AF5B
:1050F00020232366012521E72B7BDBB28DF80B30C3
:105100009DF80B30236B022BDDD10122CDF80080FE
:105110003B4611462046FFF7BBFB00287FF4DDAE7F
:105120002B7BDBB28DF80B309DF80B30CBE70225E3
:1051300004E7022508E72DE9FF411E4600230393FB
:105140008DF80B304368B3F5827F044688461546D8
:105150000CD1836853B9042380F85D301346009660
:105160000A46FFF722FE04B0BDE8F08194F85C30F7
:10517000012B00F00281012384F85C30FEF7E0FD92
:1051800094F85D30012B0746D8B240F0F480B8F1B6
:10519000000F00F09F80002D00F09C80042384F815
:1051A0005D30A36AA4F844500020B3F5005F206688
:1051B000C4E91300A4F84650C4F840802568A063F1
:1051C000A087E0870DD12B6823F400532B602B6858
:1051D00043F400532B60B4F84630013B9BB2A4F873
:1051E0004630E2686B68B2F5E06F8CBF23F4805301
:1051F00043F480536B60A368B3F5004F07D12B686D
:1052000023F040032B602B6823F480432B602B6832
:105210005B065EBF2B6843F040032B60B2F5E06F86
:1052200023D9B4F846309BB223B323689A68D107D8
:105230005AD5DA68236C23F8022B2364B4F846307D
:10524000013B9BB2A4F84630EBE723689A68D50788
:1052500038D5226C1B7B1370236C01332364B4F8A4
:105260004630013B9BB2A4F84630B4F846309BB2BE
:10527000002BEAD1A36AB3F5005F48D12268136816
:1052800043F48053136001220097334611462046B1
:10529000FFF7FEFAE8B9E1682268236CB1F5E06F28
:1052A0008BBFD268127B1A801A7001220097334696
:1052B00011462046FFF7ECFA08B3236E43F00203D1
:1052C000236606E0FEF73CFDC01BB04209D3701C0C
:1052D000CBD00320012384F85D30002384F85C30B8
:1052E00041E7002EC1D1F4E7FEF72AFDC01BB04212
:1052F00002D3721C95D0ECE7002E92D1E9E7E26868
:105300002568B2F5706F1AD1EB680393039B3A4698
:1053100031462046FFF784FB08B12023236622682C
:105320009368DB0606D5236E43F0020323664FF62F
:10533000EF739360206E003818BF0120CAE72B7B03
:10534000DBB28DF80B30B2F5E06F9DF80B30DED19B
:10535000236B022BDBD101220097334611462046F6
:10536000FFF796FA0028A8D12B7BDBB28DF80B3023
:105370009DF80B30CBE70220ACE70220F3E608B53E
:10538000FEF7BCFC00F096F800F006F8BDE8084017
:1053900000F01AB872B6FEE74FF0B04382B0DA6C94
:1053A00042F00102DA64DA6C02F001020192019A21
:1053B000DA6C42F00202DA64DB6C03F00203009361
:1053C000009B02B0704700001048114A08B54FF426
:1053D0008273C0E9002300234FF44072C0E9023217
:1053E0004FF40072C0E906230722C0E90433C0E984
:1053F0000833C0E90B23836208234363FFF772FB82
:1054000018B1BDE80840FFF7C5BF08BD6002002025
:105410000030014030B5044689B01422002103A8B1
:1054200000F07CF922681C4B9A4233D14FF0B04314
:1054300002251A6E42F480521A661A6E02F48052E5
:105440000292029ADA6C42F00102DA64DA6C02F03B
:1054500001020192019ADA6C42F00202DA64DB6C1A
:1054600003F002030093009B05244FF4C05303A9EB
:105470004FF09040CDE903350794FEF7BFFC0823B9
:10548000CDE9033505480794002303A9CDE9053389
:10549000FEF7B4FC09B030BD003001400004004804
:1054A000FEE7FEE7FEE7FEE7FEE77047704770475E
:1054B000FEF73ABC00B59BB02822002109A800F0F5
:1054C0002DF91822002102A800F028F91D4A1368BE
:1054D00023F4C06343F400731360136803F4C063E0
:1054E0000193019B02230020CDE913330893062387
:1054F000CDE915034FF400334FF480714022179328
:105500004FF0005E4FF0007308A8CDE90C12CDE912
:10551000183EFEF73FFE08B1FFF73CFF03234F2282
:10552000CDE902230221002302A8CDE90433CDE90D
:105530000633FFF7CFF808B1FFF72CFF1BB05DF87B
:1055400004FB00BF000400587047000000B597B08E
:10555000FFF715FFFEF790FB58BB184A184840F2BA
:10556000031301A9FEF7ECFA50B901A9144801236D
:105570000DF10302FEF718FB114801A9FEF7FCFA32
:105580009DF80330012B14D00C4A0D4840F2031350
:1055900001A9FEF7D5FA60B9012301A908488DF8E1
:1055A00003300DF10302FEF733FB054801A9FEF7B6
:1055B000E3FA002017B05DF804FB00BF607200083A
:1055C000E40100200D488546FEF770FB0C480D49AC
:1055D0000D4A002302E0D458C4500433C4188C424E
:1055E000F9D30A4A0A4C002301E013600432A242B4
:1055F000FBD300F041F8FFF7A9FFFEE70080002091
:1056000000000020C000002050730008C0000020EF
:10561000D8020020FEE700001FB514461A46094BC9
:105620001B680546D8684CB1074B0091CDE90134A1
:1056300006492B4600F00EF800F058FD044B1C46BE
:10564000F3E700BF5C0000206B720008787200086E
:105650006F6D00080EB403B5014603AB054853F85F
:10566000042B0068019300F067F902B05DF804EBC9
:1056700003B070475C00002070B50D4D0D4C641BED
:10568000A4100026A64209D10B4D0C4C01F09EF847
:10569000641BA4100026A64205D170BD55F8043B3A
:1056A00098470136EEE755F8043B98470136F2E794
:1056B00040730008407300084073000844730008FA
:1056C000024B0146186800F09BB800BF5C00002048
:1056D000024B0146186800F029B800BF5C000020AA
:1056E00010B501390244904201D1002005E0037851
:1056F00011F8014FA34201D0181B10BD0130F2E791
:105700000A44914200F1FF3300D1704710B511F8FF
:10571000014B03F8014F9142F9D110BD02440346F9
:10572000934200D1704703F8011BF9E738B50546ED
:10573000002941D051F8043C0C1F002BB8BFE418DD
:1057400000F0F8FE1D4A136833B963601460284600
:10575000BDE8384000F0F4BEA34208D92068211803
:105760008B4201BF19685B6809182160EDE71A4692
:105770005B680BB1A342FAD911685018A0420BD153
:1057800020680144501883421160E0D118685B68BA
:10579000536001441160DAE702D90C232B60D6E78D
:1057A000206821188B4204BF19685B68636004BFDE
:1057B000091821605460CAE738BD00BFC402002048
:1057C00070B50E4E0C463168054611B900F090FBDD
:1057D00030602146284600F08BFB431C0AD0C41CD5
:1057E00024F00304A04207D0211A284600F080FBD1
:1057F000013001D14FF0FF34204670BDC8020020B7
:105800002DE9F041CD1C25F0030508350C2D38BFDE
:105810000C25002D074601DBA94205D90C233B606E
:1058200000263046BDE8F0812E4E00F083FE33683E
:105830001C4634BB29463846FFF7C2FF431C0446CA
:105840004DD134682646002E40D123683146384673
:1058500004EB030800F04CFB80453AD12168033586
:105860006D1A25F0030508350C2D38BF0C25294687
:105870003846FFF7A5FF01302BD023682B44236067
:105880000EE02268521B1ED40B2A16D96119A342BE
:10589000256018BF5960636808BF316062514B6072
:1058A000384604F10B0600F04BFE26F00706231DD8
:1058B000F21AB6D09B1BA350B3E76268A3420CBF99
:1058C00032605A60ECE723466468B2E73446766893
:1058D000B9E70C233B60384600F032FEA1E72560B3
:1058E000DEE700BFC40200209368013B002B10B428
:1058F000936007DA9469A34201DB0A2902D110BC44
:1059000000F034BB1368581C10601970084610BCB6
:105910007047F8B506460F461446D518AC4201D17B
:10592000002007E014F8011B3A463046FFF7DCFF81
:10593000431CF3D1F8BD00002DE9F04F0D469DB09A
:1059400014469846064618B183690BB900F0ECFC82
:10595000894B9D421BD175686B6ED90705D4AB8905
:105960009A0502D4A86D00F07DFDAB891B0701D517
:105970002B69EBB92946304600F04AFBC0B16B6E8B
:10598000DC070ED54FF0FF301DB0BDE8F08F7B4B2C
:105990009D4201D1B568DFE7794B9D4208BFF568AC
:1059A000DAE7AB899805EDD4A86D00F05CFDE9E776
:1059B0000023099320238DF82930CDF80C80302363
:1059C000DFF8C0818DF82A304FF0010923469A464E
:1059D00013F8012B0AB1252AF9D1BAEB040B0BD02D
:1059E0005B46224629463046FFF793FF013000F020
:1059F000AA80099A5A4409929AF80030002B00F0C4
:105A0000A28000234FF0FF32CDE905230AF1010AFD
:105A1000049307938DF853301A935446052214F8D3
:105A2000011B5848FAF7B4FB049AD8B9D10644BF11
:105A300020238DF85330130744BF2B238DF85330A8
:105A40009AF800302A2B15D0079A544600204FF0C0
:105A50000A0C214611F8013B303B092B4ED9B0B15D
:105A6000079214E0A0EB080309FA03F3134304932D
:105A7000A246D2E7039B191D1B680391002BBBBFF5
:105A80005B4242F0020207930793B8BF0492237867
:105A90002E2B0CD163782A2B35D1039B1A1D1B6842
:105AA0000392002BB8BF4FF0FF3302340593DFF8A9
:105AB000D8A0217803225046FAF76AFB40B1402370
:105AC000A0EB0A0003FA00F0049B034301340493A3
:105AD00014F8011B2D488DF828100622FAF758FB00
