:020000040800F2
:1000000000800020AD01000895010008970100085C
:10001000990100089B0100089D01000800000000F4
:100020000000000000000000000000009F01000828
:10003000A101000800000000A3010008A5010008BC
:10004000FD010008FD010008FD010008FD01000898
:10005000FD010008FD010008FD010008FD01000888
:10006000FD010008FD010008FD010008FD01000878
:10007000FD010008FD010008FD010008FD01000868
:10008000FD010008FD010008FD010008FD01000858
:1000900000000000FD010008FD010008FD0100084E
:1000A000FD010008FD010008FD010008FD01000838
:1000B000FD010008FD010008FD010008FD01000828
:1000C000FD010008FD010008FD010008FD01000818
:1000D000FD010008FD010008FD010008FD01000808
:1000E000FD010008FD010008FD010008FD010008F8
:1000F000FD0100080000000000000000FD010008F4
:10010000FD010008FD010008FD010008FD010008D7
:10011000FD010008FD010008FD010008FD010008C7
:10012000FD010008FD010008FD010008FD010008B7
:08013000FD010008FD010008BB
:1001380010B5054C237833B9044B13B10448AFF319
:1001480000800123237010BD08000020000000007B
:100158004802000808B5034B1BB103490348AFF335
:10016800008008BD000000000C00002048020008C4
:1001780070470000034A044B11681B780B44136056
:10018800704700BF2400002000000020FEE7FEE7C3
:10019800FEE7FEE7FEE7704770477047FFF7EABFE4
:1001A800FEE700000D488546FFF7E2FF0C480D49C1
:1001B8000D4A002302E0D458C4500433C4188C42BA
:1001C800F9D30A4A0A4C002301E013600432A24220
:1001D800FBD300F011F8FFF7E3FFFEE700800020F3
:1001E800000000200800002070020008080000201D
:1001F80028000020FEE7000070B50D4D0D4C641B73
:10020800A4100026A64209D10B4D0C4C00F018F89A
:10021800641BA4100026A64205D170BD55F8043B06
:1002280098470136EEE755F8043B98470136F2E760
:10023800600200086002000860020008640200080A
:10024800F8B500BFF8BC08BC9E467047F8B500BFBB
:08025800F8BC08BC9E4670478B
:080260005D0100080000000030
:0802680039010008000000004C
:08027000010000000000000085
:04000005080001AD41
:00000001FF
