:020000040800F2
:10000000008000203538000807370008093700084D
:100010000B3700080D3700080F37000800000000FC
:100020000000000000000000000000001137000880
:1000300013370008000000001537000817370008C4
:10004000853800088538000885380008853800089C
:10005000853800088538000885380008853800088C
:10006000853800088538000885380008853800087C
:10007000853800088538000885380008853800086C
:10008000853800088538000885380008853800085C
:100090000000000085380008853800088538000811
:1000A000853800088538000885380008853800083C
:1000B000853800088538000885380008853800082C
:1000C000853800088538000885380008853800081C
:1000D000853800088538000885380008853800080C
:1000E00085380008853800088538000885380008FC
:1000F0008538000800000000000000008538000876
:1001000085380008853800088538000885380008DB
:1001100085380008853800088538000885380008CB
:1001200085380008853800088538000885380008BB
:0801300085380008853800083D
:1001400010B5054C237833B9044B13B10448AFF311
:1001500000800123237010BDF0000020000000008B
:10016000AC4D000808B5034B1BB103490348AFF37E
:10017000008008BD00000000F4000020AC4D000825
:1001800001F0FF01102A2BDB10F0070F08D010F848
:10019000013B013A8B422DD010F0070F42B3F6D14C
:1001A000F0B441EA012141EA014122F007047FF065
:1001B00000070023F0E80256083C85EA010586EABC
:1001C000010685FA47F5A3FA87F586FA47F6A5FAF8
:1001D00087F68EB9EED1F0BC01F0FF0102F0070204
:1001E00032B110F8013B013A83EA010313B1F8D1AF
:1001F0000020704701387047002D06BF3546033890
:10020000073815F0010F07D1013015F4807F02BFC8
:10021000013015F4C03F0130F0BC0138704700BF19
:1002200007B548B90E4B00930E4A0F4B0F484FF4D9
:10023000797100F0C1FFFEE790F83530002B14BF54
:1002400004230323013BDB00013A21FA03F0083BBE
:1002500013F1080F02F8010FF7D103B05DF804FBAA
:100260002C540008E24D0008DC4D0008004E000848
:100270001FB505220B468DF80F2048B90E4B009391
:100280000E4A0F4B0F484FF4717100F095FFFEE7D7
:1002900049B9094B0093094A0B4B0A4840F2C53152
:1002A00000F08AFFFEE701220092446A0DF10F017F
:1002B0002030A04704B010BDBE530008E24D000836
:1002C000DC4D0008004E00081F4E000837B5C56B16
:1002D00004460DF107012046FFF7CAFF9DF80730DD
:1002E00003F00103034313F0FF0009D0A36B1DB11A
:1002F00003B19847013DECE7024800F0CBFF042032
:1003000003B030BD264E00082DE9F043884685B085
:1003100017461E46044648B92A4B00932A4A2B4BDF
:100320002B484FF4CA7100F047FFFEE74BB9254B4D
:100330000093254A274B264840F2951100F03CFFD8
:10034000FEE790F834304BB91E4B00931E4A224B07
:100350001F4840F2971100F02FFFFEE78B1802694B
:10036000934207D91D4800F095FF0525284605B0A2
:10037000BDE8F083836A00F120090BB14846984735
:100380002046FFF7A3FF0546A8B90DF10902032394
:10039000414620468DF80830FFF742FF94F835308B
:1003A0000097002B656A334614BF0522042202A978
:1003B0004846A8470546E36A002BD7D048469847E9
:1003C000D4E700BF43540008E24D0008DC4D0008AC
:1003D000004E00084B4E0008504E00085F4E0008CB
:1003E0007FB50D46044648B9174B0093174A184B82
:1003F000184840F2763100F0DFFEFEE700290CBF1E
:10040000042306238DF80E3000230093466A012250
:100410000DF10E012030B04778B90DF10F012046E3
:10042000FFF726FF48B99DF80F3003F0020335B1FE
:100430001BB9094800F02EFF022004B070BD002B4C
:10044000FBD00648F6E700BFCF530008E24D000896
:10045000DC4D0008004E0008854E0008A74E00083D
:10046000F0B5054685B048B9284B0093284A294B7A
:10047000294840F2C51100F09FFEFEE790F83430A5
:100480004BB9224B0093224A244B234840F2C71118
:1004900000F092FEFEE7836A00F120060BB13046C1
:1004A000984701212846FFF79BFF0446D0B9C72390
:1004B0008DF80C30AB8A6F6A1B071ED594238DF81C
:1004C0000D3080238DF80E309A238DF80F30009078
:1004D0000346042203A93046B847044688B11048B1
:1004E00000F0D8FE00212846FFF77AFFEB6A0BB137
:1004F00030469847204605B0F0BD009003460122E3
:10050000E8E72846FFF7E2FE0446EBE71C54000844
:10051000E24D0008DC4D0008004E0008504E000877
:10052000CA4E00082DE9FF4788461646044648B9DA
:10053000444B0093444A454B454840F2012100F0AA
:100540003BFEFEE790F834304BB93E4B00933E4AF9
:10055000404B3F4840F2032100F02EFEFEE70369C6
:100560008A189A4207D93C4800F094FE052528468F
:1005700004B0BDE8F08731B9B34204D104B0BDE89E
:10058000F047FFF76DBFA36A04F1200A0BB1504694
:100590009847002E49D094F844309BB332464146E8
:1005A000204600F0B7FD04EBC00090F85870D0F87A
:1005B000549001212046FFF713FF0546C0B90DF105
:1005C0000902414620468DF80870FFF729FE94F88D
:1005D00035300095002B676A2B4614BF0522042294
:1005E00002A95046B847054680B11C4800F052FEAB
:1005F00000212046FFF7F4FEE36A002BB7D05046F7
:100600009847B4E7277FD4F81890D2E72046FFF741
:100610005DFE05460028EBD1B8FBF9F309FB138317
:1006200053B1A9EB0302B24201D30025E0E7A3EBEB
:1006300009031E449044ACE74E45F6D9A6EB0906E3
:10064000C844A6E711540008E24D0008DC4D00083C
:10065000004E0008504E00085F4E0008F94E00089A
:100660002DE9F74F884616469946044648B9434B4C
:100670000093434A434B444840F2662100F09CFDFE
:10068000FEE7012B0CD0B3F5807F09D03B4B0093E4
:100690003B4A3E4B3C484FF41A7100F08DFDFEE79B
:1006A00094F834304BB9354B0093354A384B3648C3
:1006B00040F26A2100F080FDFEE7226908EB0603A4
:1006C000934207D9334800F0E5FD0527384603B0CB
:1006D000BDE8F08FA36A04F1200B0BB15846984790
:1006E000DFF8B4A00EB9374631E001212046FFF70C
:1006F00077FE074658BB0223284A8AF80030414655
:100700002046FFF78DFDB8FBF9F594F8353009FB6D
:100710001585002B14BF0527042715B3A9EB050584
:10072000B54228BF35460C992A460AEB070003F06C
:100730001FF9002300937A195146676A5846B84753
:10074000761BA844074670B1154800F0A3FD0021B0
:100750002046FFF745FEE36A002BB7D0584698477E
:10076000B4E74D46DCE72046FFF7B0FD074600281A
:10077000EDD10C9B2B440C93B4E700BFF953000858
:10078000E24D0008DC4D0008004E0008234F000831
:10079000504E00085F4E00080C0100200D010020A3
:1007A000484F00082DE9F04F848A1E46E30787B0C2
:1007B00005468846174606D500964FF48073FFF726
:1007C0004FFF044619E014F00400FAD095F834A065
:1007D000BAF1000F09D14D4B00934D4A4D4B4E4895
:1007E00040F2BE2100F0E8FCFEE78B182A69934234
:1007F00007D94A4800F04EFD0524204607B0BDE861
:10080000F08FAB6A05F120090BB14846984718F004
:10081000010F0DD0012300961A4641462846FFF7E6
:100820001FFF0446002853D108F101080136013F9B
:1008300001212846FFF7D4FD0446002848D1AD2306
:100840008DF810300236B844012FA6F10203A8EB50
:10085000070B14D8002128460393FFF7C1FD044677
:10086000002835D1012F039B36D100933A463B46F1
:1008700059462846FFF7F4FE70B3044628E0BAF163
:10088000000F2FD00DF1110259462846FFF7C8FC82
:1008900095F8353016F8021C002B14BF05220422EF
:1008A00002F118036B4403F8081C02F118036B44AF
:1008B00016F8011C03F8071C00236C6A009302322F
:1008C00004A94846A0470446B0B1154800F0E2FC30
:1008D00000212846FFF784FDEB6A002B8DD04846A7
:1008E00098478AE716F8023C8DF8113016F8013C5B
:1008F0008DF812300122DFE72846FFF7E7FC0236C9
:1009000004460028E4D1023F82469DE7EF530008E9
:10091000E24D0008504E0008004E00085F4E0008EF
:10092000484F0008F0B5054685B0164600F120078F
:1009300048B9174B0093174A174B18484FF47F716B
:1009400000F03AFCFEE7F9B150238DF80C3000239B
:100950000093446A012203A93846A047044668B9B7
:10096000009001238DF80C306D6A8DF80D60034600
:10097000022203A93846A847044610B1084800F0EF
:1009800089FC204605B0F0BD0121FFF729FDE5E710
:10099000AC530008E24D0008DC4D0008004E000892
:1009A000724F00082DE9FF41044640B99B4B00936C
:1009B0009B4A9C4B9C48FC2100F0FEFBFEE700F0AC
:1009C000DFFB0546002856D1656A4DB9934B00936D
:1009D000934A964B944840F2091100F0EDFBFEE774
:1009E000236933B1A38A23B1A36913B1237F002BF9
:1009F00068D19F238DF8083003230093012203ABB5
:100A000002A904F12000A8470546002830D19DF82E
:100A10000D209DF80E109DF80C306273A173824872
:100A20002373CDE90021824A40F2613100F0C4FB1A
:100A3000204600F083F938BB7E4B217B1A461D7996
:100A40008D424CD15E79657BAE4248D19E79A57BC3
:100A5000AE4244D11823584313181258A2609A6822
:100A600022619A89A2821A691B7DA261237729E0FB
:100A7000714800F00FFC00232168704884F834307E
:100A800000F008FC2E46B9E0236D2361B4F848302D
:100A9000A560012B0CBF02230123A382636DA36118
:100AA00094F85830237704F118012346DA6D32B1F7
:100AB000A06982423EBFA26193F86020227708338A
:100AC0008B42F3D123692BB1A28A1AB1A2690AB170
:100AD000227F52B95A4800F0DDFB0125CBE70130F7
:100AE000192803F11803AAD1ECE7217B554A00200D
:100AF00002EBC0052D798D4207D152F8301041B973
:100B00005148194600F0C6FB09E001301128EFD129
:100B1000F6E7A268002A38D04C4800F0BBFB6623F9
:100B20008DF80C300023009304F12008656A01223F
:100B300003A94046A847064660BB2046FFF7C6FB10
:100B4000009699238DF80D30656A334601220DF128
:100B50000D014046A8470646E0B92046FFF7B6FB20
:100B60000646B8B93A4A30484FF4537100F024FBB6
:100B7000A38A5B0713D5324601212046FFF7D2FE38
:100B8000054600287FF477AF0FE032481A4600F0A0
:100B900081FBC4E7304800F07DFB35466BE7E36836
:100BA0002E4A23F07F4393422CD02369B3F1807FF8
:100BB00030D901212046FFF713FC054600287FF4B9
:100BC0005AAF0090B7238DF80C30676A03460122B4
:100BD00003A94046B8470546B8B9012384F8353023
:100BE0001F4A204B104840F2B13100F0E5FA0123D2
:100BF00021681D4884F8343000F04CFB304604B0C6
:100C0000BDE8F08132463146B7E71649174800F093
:100C100041FB30E7002384F83530E8E7E153000872
:100C2000E24D0008DC4D0008004E0008974F000818
:100C3000A54F0008505400080250000895510008C4
:100C40002B500008A8560008B85000086350000850
:100C5000005100088F500008DE500008C220160026
:100C6000225100081C5100086E510008455100082F
:100C700010B5094C094B0A4A2046742100F09CFA31
:100C80002046084A752100F097FA07480023BDE87E
:100C900010404360FFF786BE004E0008C0510008B8
:100CA000C651000800520008000000201FB55A2459
:100CB0008DF808400C0C8DF809400C0A8DF80A409C
:100CC000FF248DF80B108DF80C4048B9154B00939C
:100CD000154A164B16484FF4AD7100F06DFAFEE759
:100CE000B1F1807F09D30F4B00930F4A114B10488D
:100CF00040F25B1100F060FAFEE7446A4CB9094B20
:100D00000093094A0C4B0A4840F25D1100F054FA76
:100D1000FEE7009302A9134620300522A04704B045
:100D200010BD00BF1A5E0008E24D0008DC4D00084F
:100D30003057000854570008974F00082DE9F04F2E
:100D400004468FB040B9B54B0093B54AB54BB64891
:100D5000512100F031FAFEE7002180F84410082309
:100D600005AACDE90511FFF7A1FF054618B1AF4867
:100D700000F090FA14E09DF81430532B0BD19DF83D
:100D80001530462B07D19DF81630442B03D19DF822
:100D90001730502B0AD0A64AA3487A2100F00CFA4B
:100DA0002168A44800F076FA00255AE09DF8193031
:100DB0009DF8182084F84620012B84F8453004D98A
:100DC0009D48194600F066FAEAE79DF81A10964821
:100DD000CDE90021994A832100F0EEF9082305AA04
:100DE00019462046CDE90555FFF760FF08B1944844
:100DF000BEE79DF816309DF81520012B02D99148C9
:100E00001946DFE79DF81710082903D88E4800F02F
:100E100041FAC5E79DF81A609DF81900360446EAC4
:100E200000269DF818000643CDE90216CDE90032F0
:100E30007D489DF81430854AAD21002500F0BCF9AD
:100E40002022294606A8059502F0A0FD314624235C
:100E500005AA2046FFF72AFF064630B17C4800F07D
:100E600019FA28460FB0BDE8F08F7A4A6E48DFF8CD
:100E7000E8A1DFF8B491CB2100F09EF9774A6A48E7
:100E8000CC2100F099F905AF3D464FF001082B78D1
:100E900003936B780293AB780193EB7800935246FF
:100EA0004346CE21484608F1010800F085F9B8F123
:100EB0000A0F05F10405EAD19DF814209DF81530BC
:100EC00084F84B3002F00302012A06D0032A4FF0C7
:100ED000000500F082806248C1E784F84A20524849
:100EE000604AD72100F068F99DF814304E48590740
:100EF00055BF01234FF48073A4F84830A4F848305C
:100F000055BF594A594AE621EA2100F055F99DF8A2
:100F100014301A0769D40123554A84F84C30F5215E
:100F2000414800F049F99DF81630C3F34103012B05
:100F300000F0AE80022B00F0B380002B40F0B880B0
:100F400001234C4AA4F84E3040F20F11364800F00D
:100F500033F99DF81B20069BD20940F0AE80DB08D8
:100F600001332365236D444A2F48DFF810A1DFF8D1
:100F7000B8B040F2311100F01FF90025A8464FF03B
:100F800001093B7F8BB104EBC5017A7F81F85820C2
:100F900009FA03F34B65584600929B0A524640F209
:100FA000371100F009F90135EDB208F10108B8F187
:100FB000040F07F10207E4D104F10803DA6C0136EB
:100FC000F6B2002A40F09A80042E03F10803F5D10E
:100FD000012084F84400054643E7294A124884F872
:100FE0004A50DB2100F0E8F87EE70023254A84F828
:100FF0004C30FA210C4800F0DFF89DF81430DB0685
:1010000055BF50230623204A204A59BF84F84D304B
:10101000FF2184F84D304FF4827181E7295E00088A
:10102000E24D0008DC4D0008305700086457000806
:10103000835700088C5D0008CF570008045800084B
:101040004158000877580008CA580008115900088C
:101050009C590008D3590008155A0008FB5900088C
:10106000AD5A0008385A0008E45A0008015B00082D
:101070002A5B00088A5C0008395D0008505D0008A2
:101080007A5A0008585B00089C5B0008135C000853
:1010900040F201131B4AA4F84E304FF48A7155E711
:1010A0004FF48073184AA4F84E3040F219114DE7FE
:1010B00000251648A4F84E50D1E623F00043232B18
:1010C00003D9002512482565C9E6033B02FA03F35C
:1010D00047E7506D60B1DD6CA84209D2D86493F83F
:1010E000507092F8580083F85000556582F8587097
:1010F0000131C9B208320329EBD965E71A463146F6
:10110000F9E700BFA25C0008BB5C0008D35C0008E4
:10111000F45C000837B5034690F8440048B9114B19
:101120000093114A114B12484FF4B77100F044F884
:10113000FEE75C6DB1FBF4F004FB101070B9032006
:10114000543353F8304034B1944204D8B1FBF4F531
:1011500004FB15141CB110B10138F2E7002003B0F4
:1011600030BD00BFFC5D0008E24D0008E65D0008F0
:101170003057000872B6704762B67047704700007B
:1011800043685BB9064B4362064B8362064BC362FE
:10119000064B0363064B8363064BC3630020704713
:1011A000FD11000875110008791100087400002075
:1011B0007D110008C02709000CB437B506AB0C4CF4
:1011C00053F8045B01930A4601460A4802F0B0FF57
:1011D000019B2A464FF48071204602F0FDFF214614
:1011E000054802F0A5FF03B0BDE8304002B07047EB
:1011F00011020020385E0008485E00082DE9F34126
:10120000DDF820800E461C4617464AB141B91C4BFA
:1012100000931C4A1C4B1D484521FFF7CDFFFEE7FC
:10122000B8F1000F09D044B9154B0093154A184B7B
:1012300016484921FFF7C0FFFEE70569002229890A
:10124000686801F0C3FC28686423BAB2314601F033
:101250004AF890B92146286864231FFA88F201F001
:10126000E4FA041E18BF032468682989012201F0EA
:10127000ADFC204602B0BDE8F0810224F4E700BFD7
:10128000835E0008E24D00084D5E0008575E0008CE
:10129000735E00080FB437B506AB0B4C53F8045B14
:1012A0000A48019302F044FF019B2A464FF48071E3
:1012B000204602F091FF2146054802F039FF03B0B5
:1012C000BDE8304004B07047110200207C5E000889
:1012D000485E00080368013304D04068431C58424C
:1012E000584170470120704710B50B6804689C4254
:1012F00009D040684A68904205D0944203D0181A39
:1013000018BF012010BD0020FCE740F30903B3F132
:10131000FF3F08BF0130C0F309000430704710B52B
:10132000031F0439083053F8042F51F8044F834247
:1013300082EA04021A60F6D110BD0346006830B993
:101340005A682AB99868B0FA80F0400970470020BE
:10135000704708B503681B0D024613F4E06005D022
:10136000101DFFF7C1FFB0FA80F0400908BD836E81
:101370001B6B10B5044613B9C06802F0E1FAA36E06
:101380005B6B13B9E06902F0DBFAA36E9B6B13B9D8
:10139000606E02F0D5FA002010BD00002DE9F04F7C
:1013A000174687B0826E0493DDE910A4136A039098
:1013B0005345DDE91286894640F2A880D269A31917
:1013C000934200F2A380049B013B05930EB9304683
:1013D00099E0B9F1000F3AD0D9F800309A4536D1EA
:1013E000D9E9015205EB020BA34530D9A54211D82A
:1013F000ABEB040BB345D9F80C1028BFB346651B03
:1014000040465A46294402F0B3FAD8445C44A6EB5D
:101410000B06DBE72D1BB54228BF35463B689A45D6
:101420001BD1D7E901120A44944216D28C4210D340
:10143000121B9542FB6828BF1546611A40462A4692
:10144000194402F095FAA8442C44761BBEE73546B1
:10145000E4E7091B8D4228BF0D46039B986E049B51
:10146000B3421ED84269B4FBF2F302FB1343C3B983
:10147000964216D3B5FBF2F302FB1353A5EB030B15
:10148000CDF800B00293436822469C46514643463D
:10149000E047002837D1029B5D1BD8445C442E44B2
:1014A00094E7036A9A4505D31A4B1B4A6B211B48E4
:1014B00002F0EAF94169059DB4FBF1F30D442544BE
:1014C00001FB1343B5FBF1FC01FB1C516D1AC16913
:1014D000C7F800A0E21A1B1B8D4294BF5B195B1872
:1014E000816A7A608B4228BF0B460093BB604568D7
:1014F000FB685146A847002803DD094B064A7621C0
:10150000D5E73FF463AF07B0BDE8F08F6FF053004D
:10151000F9E700BFDD5E0008D1620008C45E000884
:10152000FB5E00082DE9F04F9A46D1E9038387B0AE
:1015300006463C3091460593FFF70BFF0F46C9F373
:10154000892B044658B1BBF1000F78D0F36B3D4CAA
:10155000C3F38922CAF389239A4288BF0024059DD8
:101560002846FFF7D2FE031D434534D80423A8EBD9
:101570000008039305ABCDE901833B680093324635
:10158000042300213046FFF709FF30BB059B1BBA3F
:101590006B4023F000430593BBF1000F23D02A0DCD
:1015A00002F4E063B3F5806F1DD1AAEB0403C3F32B
:1015B0008920C5F38921884215D323F07F4323F482
:1015C000700323F47F7323F0030343F0804343F459
:1015D0008013AB4204D16FF0010007B0BDE8F08F7B
:1015E00052B204EB8224AAEB0401694011EA09011A
:1015F000B5D145F309030133EDD0129BC5F30909B9
:10160000994528BF9946119B0293109BCDF80C90E9
:101610000433434401933B68009332464B463046C3
:10162000FFF7BCFE0028D8D1129BA3EB0902119B47
:10163000014603EB090002F0A9F96019CDE75C4609
:101640008DE700BF00FCFFFF1FB5C3F30904029440
:10165000069C019400240094FFF764FF04B010BDC1
:1016600030B587B003AD094B00951446084AFFF723
:10167000EBFF002804DA831C08BF002007B030BD50
:1016800020462946FFF74BFE0020F7E70C00F07FCD
:101690000000F07F2DE9F04F93B0154609931368D1
:1016A000826E126A934207460C4680F0E2816968B6
:1016B0008A4240F2DE8100214FF004080CAACDE9F5
:1016C00001120093CDF80C8043460246CDE90C117F
:1016D000FFF764FE064610B110F1540F14D1CDF897
:1016E0000C800DAB4FF000080293CDF804806B68BE
:1016F00000933A46042341463846FFF74FFE06461C
:1017000030B110F1540F52D0304613B0BDE8F08F15
:10171000DDE90C31C91A0029D4BF0021012155F897
:101720002130236081F00103089355F82330636072
:1017300012AB03EB81014FF0FF3651F8183CA36068
:101740000023E36002230693AD4A92E803000EAB48
:1017500083E80300042204F108014FF0FF3000F099
:10176000E1FB00230A90B046079305934FF0FF3A40
:101770009B465046FFF7C9FD0BAA8344CDE901B251
:10178000BB6E226800924FF00409CDF80C90DB6923
:101790003A4600213846FFF701FE054660B115F1D3
:1017A000540F40F044814FF00003A37526E04146FA
:1017B000B5E701230693C7E70A984A460BA900F04C
:1017C000B1FB0B9B0A901BBA8AEA0303002B04931C
:1017D0000B933DDA4FEA1A5A0AF4E06ABAF5A06FA1
:1017E00009D1BB6EE5689869B5FBF0F300FB1355B2
:1017F000B5FA85F56D0905F00100A075E368002BC9
:1018000000F01F81214607F13C00FFF7A2FD48B11F
:10181000FB6BC6F38922C3F389239A4240F0098106
:1018200046F000461D9B3BB1A28AC6F38923934232
:1018300028BF13461D9A1380002EBFF665AFA38AFA
:10184000C6F38926B3428CBF6FF0010600265BE722
:101850000498FFF75AFDBB6EDB6958449842A2D842
:10186000049A120D02F4E062B2F5A06F40F0848099
:1018700010AA02920BF104020192226800922946FA
:10188000CDF80C903A463846FFF788FD054600280B
:1018900085D1109A0A9B9A4285D10B9B049AF86ACB
:1018A0001B0D82EAC3730AA94A46049300F03AFB6F
:1018B000F8620B98FFF729FD049B2361059BA38227
:1018C0000E9BA3610F9BE361079BE37558444FF0A8
:1018D000FF330A93E06043464646DDF810A0984681
:1018E00047E70A980122514600F01CFB09F1010963
:1018F0000A900B98FFF709FD4845236817D9012185
:10190000CDE902A109EB0B01CDE90031BA6E00214E
:10191000D36938463A46FFF741FD05460028E0D036
:1019200010F1540F40F083804FF00003A3750B9B20
:101930001A0D12F4E06122D1059AC3F389239A4269
:1019400001D8013305931C9B0B9981EA0309099B7C
:1019500019EA030950D1236810930BF10403119382
:1019600010AADDE91E309847051E42DA15F1540F22
:101970005DD184F8169041E70DF1400AB9E7B1F561
:10198000806F1DD1059851B240FA82F292B2059251
:101990001C4A08EA020242F09F4242F4E0029342EB
:1019A00002D148F00048CEE7B8F1FF3FCBD0C3F3F7
:1019B0008923C8F389229342C5D808EB8128C2E75E
:1019C000B1F5C06FBFD102F00103082203920EAA45
:1019D00002920BF10402019207932268BB6E0092FF
:1019E000DB693A4600213846FFF7D8FC5430AAD1CB
:1019F000D9E60B9B08D198464346B0466CE700BF3A
:101A0000C84D000800FC0F001B4988EA03020A4287
:101A10000AD0022DF0D1C8F38922C3F389218A426A
:101A2000EAD343F00048E7E74FF0FF38E4E72E46FB
:101A30006AE6711C3FF4F6AE9A4288BFA6F580664E
:101A4000F0E6089812A901EB8001D4E9002351F8CF
:101A5000181CA16006990129C4E900327FF4A9AEDF
:101A600006490748CDE90021064940F2CC4202F080
:101A70005FFB6FF0530647E600FCFF7F4C5E0008FB
:101A8000045F0008C45E00082DE9F04F87B080466F
:101A9000129E894617469A4600240DF1100BA64265
:101AA00001D800201AE0351B109B082D28BF0825FF
:101AB000E318CDE900A3CDE902B53B1B4A4600215E
:101AC0004046FFF76BFC48B9119B2A461919584646
:101AD00001F03EFF002804D005DB022007B0BDE87E
:101AE000F08F2C44DBE70120F8E730B5134682681D
:101AF000C1F3090585B0AA4228BF2A46029241686F
:101B000001915968009101681B6804460846FFF777
:101B1000BBFF28B9A368AB4202D02CBF0220012032
:101B200005B030BD10B50C46826AE068FF2101F0B7
:101B30002DFF4FF0FF33236010BD000070B50D4640
:101B400081664969044631B9644B654A40F648717B
:101B5000644801F099FEAA6922B9634B604A40F6D5
:101B60004971F5E7AE6A26B9604B5D4A40F64A71A5
:101B7000EEE7B6FBF1F301FB136323B15C4B584A6C
:101B800040F64E71E4E7B6FBF2F302FB136323B1B8
:101B9000584B534A40F64F71DAE7EA69B2FBF6F365
:101BA00006FB132323B1544B4D4A4FF47561CFE725
:101BB000A2F108014FF0FF33B3FBF1F3013BB3FA9D
:101BC00083F3C3F12003B2EB830F04D24B4B444A9F
:101BD00040F65371BCE76B6A23B9494B404A40F663
:101BE0005C71B5E72B6BA3B1C3606B6BEBB1E361C9
:101BF00028462146FFF796FFA06E04F11001FFF77B
:101C000091FFA56EE86AB8B93E4B354A40F67A7145
:101C10009EE7304601F08CFEE0600028E5D12046CA
:101C2000FFF7A5FB6FF00B0057E0304601F080FE98
:101C3000E0610028DCD1F2E7410702D1AB6B9A07E3
:101C400004D0314B264A40F67B7181E743B163668D
:101C5000EB6BFF2B0AD92D4B214A40F6887177E7B1
:101C600001F066FE60660028F2D1D8E743B1E36672
:101C70002B6C002B06DA264B194A40F68E7167E76B
:101C8000FF23F4E708BF6FF000436A6C236740F25C
:101C9000FE339A4204D91F4B114A40F6947157E71C
:101CA000002A18BF13466367AA6CEB699A4204D9ED
:101CB000194B0B4A40F69A714AE700204FF0FF3368
:101CC000C4E90833C4E90A00C4E90F00C4E90C0000
:101CD000C4E912006064A063206570BD395F00082C
:101CE000DD620008C45E0008525F00086B5F0008F8
:101CF000855F0008B55F0008E55F00081660000812
:101D0000626000087E6000089B600008EF600008C9
:101D1000096100082A61000845610008FFF727BB38
:101D20002DE9F04397B00446FFF708FF0546002869
:101D300041D101461C220EA801F028FE6B4FDFF8AE
:101D4000B081DFF8B091012315932E4614A8FFF758
:101D5000C1FA002833D004F12000FFF7BBFA0028B5
:101D600040F0C18004F130063046FFF7E6FA60B972
:101D7000614B0293A36B0193636B00935F49236BE9
:101D80005F4841F27B0202F0D3F9236B03EBD3737C
:101D9000236396E8070004F13C0383E80700A36E81
:101DA0001A6AE36AB3FBF2F102FB113363650023A5
:101DB000C4E916332266284617B0BDE8F083A36E47
:101DC0001B6AB6EB530F80F08B800823079305AB9B
:101DD000CDE902834B4B0190009314AA4A4B0EA904
:101DE0002046CDE90547FFF755FC002806F101061E
:101DF00024DB6BD040F30900013067D00E9B2362D7
:101E00000F9B636208AB00933F4A4B460EA92046E6
:101E1000FFF71AFC002811DB089A130C022B91B271
:101E200000D181B13449019192B2344937480092CE
:101E300041F2350202F07CF96FF0150005462046AC
:101E4000FFF76CFFB7E70B9B5BB1E26E934207D9DC
:101E500029492F48CDE90021284941F23E02E9E70E
:101E6000E3660C9B5BB1226F934207D92249294854
:101E7000CDE90021214941F24902DBE723670D9BAF
:101E80005BB1626F934207D91B492348CDE900211A
:101E90001A4941F25402CDE76367A26E0A9B116AA8
:101EA0008B4207D0144A1D48CDE90012134941F274
:101EB0005E02BFE7D2690999914207D00E4A0F49E5
:101EC0001748CDE9003241F26502B3E704F1300270
:101ED0000EA92046FFF7C4FB00283FF437AFADE75B
:101EE0006FF05300AAE76FF01505A8E774610008CA
:101EF000EB1A0008180010204C5E0008C45E0008B1
:101F00009A6200080800F00F00FCFF7F7D61000866
:101F1000A6610008D761000808620008396200085D
:101F20006A62000830B50C4D0A44914200D130BDC0
:101F300011F8013B83EA000404F00F0455F8244033
:101F400084EA101080EA131303F00F0355F82330CE
:101F500083EA1010E9E700BFE862000808B5064907
:101F60000648FFF7DDFE28B1BDE8084002490348F6
:101F7000FFF7D6BE08BD00BF286300081403002089
:101F8000704700002DE9F3471F46894690460446F6
:101F900001F05AFB0A9D3D442D1A01F055FB264BDA
:101FA0001E68C6F3CB366E4382460196226893685C
:101FB00039EA03030CBF01230023434501D100206C
:101FC0002EE07B1CF3D001F03FFBA0EB0A00A842FF
:101FD00029D323685A6822F0E0025A606268B2F599
:101FE000827F0AD1A268B2F5004F02D0B2F5806FAD
:101FF00003D11A6822F040021A60A26AB2F5005FAB
:1020000007D11A6822F400521A601A6842F400528A
:102010001A60012384F85D30002384F85C300320CB
:1020200002B0BDE8F087019B002B019B03F1FF3359
:1020300008BF00250193B9E7800000202DE9F74F84
:10204000994600238DF8033004468846174601F070
:10205000FBFA0C9D4D442D1A01F0F6FA2C4BD4F8E6
:1020600000B01E6823235E43360D6E438246019600
:102070002268936803EA0803BB4201D100203AE0DA
:10208000B8F5C06F07D137B99BF80C30DBB28DF8CB
:1020900003309DF80330B9F1FF3FEAD001F0D4FAE4
:1020A000A0EB0A00A84229D323685A6822F0E00274
:1020B0005A606268B2F5827F0AD1A268B2F5004F19
:1020C00002D0B2F5806F03D11A6822F040021A6084
:1020D000A26AB2F5005F07D11A6822F400521A60B2
:1020E0001A6842F400521A60012384F85D3000231C
:1020F00084F85C30032003B0BDE8F08F019B002B17
:10210000019B03F1FF3308BF00250193B0E700BF37
:10211000800000204368B3F5827FF7B504460E4681
:1021200017460BD18368B3F5004F02D0B3F5806F2B
:1021300004D12268136823F04003136000973346EC
:10214000002280212046FFF71DFF054628B1236E9F
:1021500043F020032366032514E06368B3F5827F10
:1021600010D1A368B3F5004F02D0B3F5806F09D149
:102170000097334600224FF4C0612046FFF75EFF10
:102180000028E4D1284603B0F0BD73B50B46009299
:102190000D4616464FF4C05100220446FFF74EFF8D
:1021A000024628B1236E43F020032366032011E08A
:1021B00000962B4680212046FFF7E4FE02460028C9
:1021C000F0D100962B464FF4C0612046FFF736FF52
:1021D0000028E7D102B070BDF8B5044600287CD0D5
:1021E000436A002B4FD14268B2F5827F00D0C361B1
:1021F00094F85D3003F0FF0223B984F85C20204698
:1022000001F0B2FA2268E168022384F85D301368B5
:10221000B1F5E06F23F0400313604FF000035ED888
:102220004FF4805500D0A3626368A768A069A66ACE
:1022300007F4044703F482733B43276907F002075E
:102240003B43676907F001073B4300F400773B43DA
:10225000E76907F038073B43276A07F080073B43ED
:1022600006F400573B43B6F5005F136011D1236BB2
:1022700083BBB1F5E06F0AD902232363136843F4EB
:102280000063136005E00023C0E90433B0E70123D5
:102290002363636A676B03F0100307F008073B438F
:1022A00001F47061000C194300F004000143B6F51D
:1022B000005F08BFA38D45EA0105556008BF1361A3
:1022C000D36923F40063D36100200123206684F8DE
:1022D0005D30F8BD022BDCD1D0E70120F9E71D46C7
:1022E000B1F5706F9EE72DE9F7431F4690F85C301B
:1022F000012B04460D46904600F0CF80012380F864
:102300005C3001F0A1F994F85D30012B8146D8B220
:1023100040F0C180002D79D0B8F1000F76D00323B2
:1023200084F85D3000232366C4E91333A4F83E80AB
:102330002364A4F84430A4F84630A3682668A56353
:10234000B3F5004FA4F83C8007D1336823F0400375
:102350003360336843F480433360A36AB3F5005FAE
:1023600007D1336823F400533360336843F40053D8
:1023700033603368E2685B065EBF336843F0400356
:102380003360B2F5E06F63684CD913B1B8F1010F57
:1023900007D135F8023BF360A563E38F013B9BB2A5
:1023A000E387E38F9BB2F3B9A36AB3F5005F04D16F
:1023B0002268136843F4805313604A463946204626
:1023C000FFF7E3FE08B120232366A36833B9019326
:1023D0002368DA6801929B680193019B206E0038A4
:1023E00018BF012012E0226893689D0705D5A36BF2
:1023F00033F8021BD160A363CFE701F025F9A0EB0E
:102400000900B8420BD3781CCBD00320012384F8F9
:102410005D30002384F85C3003B0BDE8F083002F0A
:10242000BFD1F2E713B1B8F1010F13D1E38F9BB223
:10243000012B06D935F8023BF360A563E38F023B1D
:1024400006E02B783373A36B0133A363E38F013B67
:102450009BB2E387E38F9BB2002BA5D022689368E1
:1024600099070CD5E18FA36B89B2012904D933F800
:10247000021BD160A363E1E71B781373E3E701F06C
:10248000E3F8A0EB0900B84202D37B1CE2D0BCE722
:10249000002FDFD1B9E70220B8E70220BCE72DE921
:1024A000FF479946002303938DF80B3090F85C307A
:1024B0000C9F012B04460E46924600F0B481012386
:1024C00080F85C3001F0C0F894F85D30D4E9005138
:1024D000012B2A6880465FFA83FC68680BD0B1F54F
:1024E000827F40F09E81A368002B40F09A81BCF16E
:1024F000040F40F09681002E00F07681BAF1000FB3
:1025000000F07281B9F1000F00F06E8194F85D3037
:10251000C4F840A0042B1CBF052384F85D300023C1
:102520002366C4E91333A36AA4F84690B3F5005FA9
:10253000A4F84490A663A4F83E90A4F83C9007D178
:102540002B6823F400532B602B6843F400532B605B
:10255000D4F80CC06B68BCF5E06F02D8B9F1010F7C
:102560003AD023F480536B602B685B065EBF2B6808
:1025700043F040032B60BCF5E06F7FD911B1B9F196
:10258000010F07D136F8023BEB60E38FA663013BF6
:102590009BB2E3874FF0010902F0040600F0080542
:1025A000E38F9BB2DBB9B4F846309BB2BBB9A36AE8
:1025B000B3F5005F40F001810122CDF800803B4679
:1025C00011462046FFF7DEFC002800F0EE80236E67
:1025D00043F0020323662AE043F48053C3E72368F1
:1025E0009A68900707D5E28F92B222B1B9F1000F35
:1025F00028D14FF00009996811F001010FD0B4F80B
:10260000462092B25AB1DA68236C23F8022B236475
:10261000B4F84630013B9BB2A4F84630894601F03D
:1026200013F8A0EB0800B842BAD3791CB8D0032540
:10263000012384F85D30002384F85C30284604B020
:10264000BDE8F087A26B32F8021BD960E18FA2636C
:10265000013989B2E187E28F92B2002AC9D1A26A18
:10266000B2F5005FC5D126B91DB11A6842F40072F7
:102670001A601A6842F480521A60BAE711B1B9F1CF
:10268000010F0BD1E38F9BB2012B0DD936F8023B22
:10269000EB60E38FA663023B9BB2E387012502F068
:1026A000040600F008093CE033782B73A36B013378
:1026B000A363E38F013BEFE721688B689A0705D599
:1026C000E38F9BB213B1002D35D1002521688B68B3
:1026D00013F001031DD0B4F8462092B2CAB1B4F889
:1026E0004600226C80B2012850D9C86822F8020B3B
:1026F0002264B4F84620023A92B2A4F84620B4F814
:10270000462092B2012A03D84A6842F480524A60B5
:102710001D4600F099FFA0EB0800B84242D37B1C95
:1027200085D1E38F9BB2002BC6D1B4F846309BB263
:10273000002BC1D13BE7E28FA36B92B2012A1DD9D6
:1027400033F8022BCA60A363E38F023B9BB2E3879B
:10275000E38F9BB2002BB8D1A36AB3F5005FB4D16D
:10276000236836B9B9F1000F03D01A6842F4007239
:102770001A601A6842F480521A60A6E71B780B733D
:10278000A36B0133A363E38F013BDFE7097B117088
:10279000226C01322264B4F84620013A92B2A4F8C5
:1027A0004620B5E7002FBCD141E7E3682568B3F5C3
:1027B000706F1BD1EB680393039B2268956815F03B
:1027C000100507D0236E43F0020323664FF6EF7324
:1027D00093600125424639462046FFF7D6FC002883
:1027E0003FF426AF20232366012521E72B7BDBB2B4
:1027F0008DF80B309DF80B30236B022BDDD10122BD
:10280000CDF800803B4611462046FFF7BBFB002871
:102810007FF4DDAE2B7BDBB28DF80B309DF80B30F7
:10282000CBE7022504E7022508E72DE9FF411E4614
:10283000002303938DF80B304368B3F5827F044681
:10284000884615460CD1836853B9042380F85D305F
:10285000134600960A46FFF722FE04B0BDE8F08159
:1028600094F85C30012B00F00281012384F85C3085
:1028700000F0EAFE94F85D30012B0746D8B240F034
:10288000F480B8F1000F00F09F80002D00F09C80D4
:10289000042384F85D30A36AA4F844500020B3F503
:1028A000005F2066C4E91300A4F84650C4F84080D5
:1028B0002568A063A087E0870DD12B6823F400531F
:1028C0002B602B6843F400532B60B4F84630013B77
:1028D0009BB2A4F84630E2686B68B2F5E06F8CBF3B
:1028E00023F4805343F480536B60A368B3F5004F27
:1028F00007D12B6823F040032B602B6823F480431F
:102900002B602B685B065EBF2B6843F040032B6097
:10291000B2F5E06F23D9B4F846309BB223B32368F5
:102920009A68D1075AD5DA68236C23F8022B2364FE
:10293000B4F84630013B9BB2A4F84630EBE723687D
:102940009A68D50738D5226C1B7B1370236C013332
:102950002364B4F84630013B9BB2A4F84630B4F887
:1029600046309BB2002BEAD1A36AB3F5005F48D191
:102970002268136843F480531360012200973346A2
:1029800011462046FFF7FEFAE8B9E1682268236C99
:10299000B1F5E06F8BBFD268127B1A801A700122EA
:1029A0000097334611462046FFF7ECFA08B3236E32
:1029B00043F00203236606E000F046FEC01BB0426F
:1029C00009D3701CCBD00320012384F85D30002391
:1029D00084F85C3041E7002EC1D1F4E700F034FE0A
:1029E000C01BB04202D3721C95D0ECE7002E92D1EE
:1029F000E9E7E2682568B2F5706F1AD1EB680393D6
:102A0000039B3A4631462046FFF784FB08B120235A
:102A1000236622689368DB0606D5236E43F0020323
:102A200023664FF6EF739360206E003818BF0120C5
:102A3000CAE72B7BDBB28DF80B30B2F5E06F9DF867
:102A40000B30DED1236B022BDBD101220097334602
:102A500011462046FFF796FA0028A8D12B7BDBB25F
:102A60008DF80B309DF80B30CBE70220ACE702204D
:102A7000F3E600002DE9F04F524C00234FF00F0910
:102A80000A6832FA03F501D1BDE8F08F012505FA95
:102A900003F818EA020200F08E804E68032706F061
:102AA00003054FEA430E07FA0EFC6F1E012F6FEA73
:102AB0000C0C32D8876807EA0C0ACF6807FA0EF7C1
:102AC00047EA0A078760476827EA0808C6F300173D
:102AD0009F4047EA08074760C76807EA0C088F6805
:102AE00007FA0EF747EA0807022DC76017D14FEA29
:102AF000D30800EB880803F0070AD8F820704FEAE3
:102B00008A0A09FA0AFB27EA0B0B0F6907FA0AF788
:102B100047EA0B07C8F8207001E0032DDCD10768F5
:102B200005FA0EF507EA0C072F4316F4403F07603D
:102B300041D023F0030707F1804707F5803703F002
:102B4000030CBD684FEA8C0C4FF0070E0EFA0CFE1A
:102B5000B0F1904F25EA0E0E2FD01B4DA8422ED07B
:102B600005F58065A8420CBF0225072505FA0CF57E
:102B700045EA0E05BD60D4F88050D74316F4803F77
:102B80000CBF3D401543C4F88050D4F8845016F46F
:102B9000003F0CBF3D401543C4F88450256816F42F
:102BA000801F0CBF3D40154325606568B60254BFC9
:102BB0003D4015436560013362E70025D6E70125F6
:102BC000D4E700BF00080058000400480AB1816142
:102BD00070478162704700000749CA6822F4E062CA
:102BE0000302120403F4E063120C134343F0BF63C7
:102BF00043F40033CB60704700ED00E0164B30B576
:102C0000DC68C4F30224C4F10703251D042B28BF8C
:102C10000423062D4FF0FF3505FA03F38CBF033C68
:102C2000002421EA0303A34005FA04F422EA040283
:102C3000002843EA0203ACBF00F16040074A4FEAB4
:102C40000313B8BF00F00F00DBB2AABF00F561406C
:102C5000135480F8003330BD00ED00E014ED00E0C7
:102C60000138B0F1807F0BD24FF0E023054A586164
:102C7000F02182F823100020072298611A61704722
:102C80000120704700ED00E0024A136843F48073AE
:102C900013607047000400584FF0B0431868C0F349
:102CA000404070474FF0B0431868C0F38020704731
:102CB0004FF0B0431868C0F3400070474FF0B04287
:102CC000536823F47F4343EA0023536070474FF077
:102CD000B0431868C0F34060704700007FB54FF004
:102CE000B0432C4AD3F80831C0F3031003F00F03AC
:102CF00052F82040284A52F82330B4FBF3F400F095
:102D000053FC264B054693E80700B5F5007F04AB5E
:102D100003E9070010D0224B9C4218D303F5B703F8
:102D200003F67F539C4229D903F5741303F510630E
:102D30009C4225D802230BE01A4B9C4207D91A4B20
:102D40009C421BD903F5370303F5D853F0E7002362
:102D500004AA02EB830353F80C4C144D2B6823F0A8
:102D6000070323432B6000F06FFC06462B6803F03B
:102D700007039C4206D1002004B070BD0123E7E7A1
:102D80000024EAE700F060FC801B0228EED9032053
:102D9000F2E700BFB463000874630008D04D000878
:102DA000C0CF6A00BFEA21013F93340200400058BF
:102DB0004FF0B04310B59A68D96812F00C0205D0F4
:102DC0000C2A4AD101F00303012B50D14FF0B0413E
:102DD0002B480B6813F0080306D00B6813F00803A8
:102DE00037D1D1F8941007E00C68240756BFD1F80A
:102DF00094300968C3F3032350F82330002A0CBF32
:102E0000184600204FF0B0418A6802F00C020C2AEC
:102E10001ED1CA6802F00302022A2ED0032A06D16C
:102E20000B68184A13F4801F174B18BF13464FF056
:102E3000B042D068D168D268C0F306205843C1F3CD
:102E400002130133B0FBF3F0530F0133B0FBF3F087
:102E500010BD0B68C3F30313CEE7042A0AD0082A77
:102E600005D11B6813F4801304D10748CAE7002377
:102E70001846C7E703480023C4E7024BD7E700BF63
:102E8000B46300080024F4000048E80108B5FFF727
:102E90008FFF4FF0B043044A9B68C3F3031352F80B
:102EA0002330B0FBF3F008BD746300082DE9F04156
:102EB0000446002855D04FF0B0439D68DE68036893
:102EC000990605F00C0506F003066BD51DB10C2D17
:102ED00049D1012E47D1FFF7EBFE10B1236A002B39
:102EE0003FD04FF0B043A06A1A68120756BFD3F81C
:102EF00094301B681B0903F0F00398421ED9FFF7BA
:102F0000EDFE00282DD14FF0B042136843F00803C6
:102F100013601368A16A23F0F0030B431360606A27
:102F2000FFF7CCFEFFF7B2FFAC4B1860AC4B186854
:102F300000F042FB002835D0BDE8F0814FF0B042F0
:102F4000136843F008031360136823F0F00303438E
:102F50001360606AFFF7B2FEA06AFFF7BFFE0028A9
:102F6000E0D00120E8E7226A4FF0B043002A54D0B5
:102F70001A6842F001021A6000F066FB0746FFF78C
:102F800097FE002842D04FF0B042136843F0080388
:102F900013601368A16A23F0F0030B431360606AA7
:102FA000FFF78CFE2368DB0748D423689F0700F1F6
:102FB000908023681E0740F1FC80A3694FF0B04663
:102FC000002B00F0E380D6F89430E16903F01002A2
:102FD000914200F0C68003F00302022AC1D0D80754
:102FE00040F1B580D6F8943023F00103C6F8943050
:102FF00000F02AFB0746D6F89430990740F1A780E5
:1030000000F022FBC31B112BF5D904E000F01CFBE0
:10301000C01B0228B3D903208EE71A6822F00102F0
:103020001A6000F011FB0746FFF742FE0028B9D0F6
:1030300000F00AFBC01B0228F6D9ECE7082D03D0EC
:103040000C2D09D1032E07D1FFF726FE0028ACD0A6
:103050006368002BA9D184E74FF0B043A1681A68D8
:1030600022F480120A431A606268B2F5803F10D1E0
:103070001A6842F480321A6000F0E6FA0746FFF759
:103080000BFE002891D100F0DFFAC01B6428F6D9AE
:10309000C1E7B2F5041F04D11A6842F400121A60A5
:1030A000E6E7196821F480311960196821F40011EC
:1030B0001960002AE0D100F0C7FA0746FFF7ECFDDF
:1030C00000283FF472AF00F0BFFAC01B6428F5D9A6
:1030D000A1E7042D03D00C2D12D1022E10D1FFF741
:1030E000E1FD18B12369002B3FF43BAF4FF0B04234
:1030F0006169536823F0FE4343EA0163536058E774
:1031000022694FF0B04382B11A6842F480721A60AB
:1031100000F09AFA0646FFF7C5FD0028E6D100F058
:1031200093FA801B0228F6D975E71A6822F4807298
:103130001A6000F089FA0646FFF7B4FD00283FF454
:1031400038AF00F081FA801B0228F5D963E74FF011
:10315000B042E169D2F8943023F010030B43C2F877
:1031600094304FF0B047D7F8943043F00103C7F8DC
:10317000943000F069FA0646D7F894309A0718D4CC
:1031800000F062FA831B112BF6D944E7D6F894308D
:1031900023F00103C6F8943000F056FA0746D6F83B
:1031A00094309B0705D500F04FFAC31B112BF6D9BD
:1031B00031E72368580753D50A4F3B68D90513D424
:1031C000FFF762FD00F040FA06463B68DA050BD4D3
:1031D00000F03AFA831B022BF7D91CE7800000208D
:1031E0008800002000040058E3684FF0B046002B30
:1031F00058D023F08003052B02BFD6F8903043F05F
:103200000403C6F890304FF0B04600F01DFAD6F82F
:10321000903043F001030746C6F8903041F28838F9
:10322000D6F890309B0705D400F00EFAC31B434537
:10323000F6D9F0E6E36823F00403812B1BD100F0FC
:1032400003FAD6F8903043F08003C6F89030074672
:103250004FF0B04641F28838D6F89030180504D5C2
:10326000E06A00284AD1002066E600F0EDF9C01BB4
:103270004045F1D9CFE600F0E7F9D6F8903023F0D9
:103280008003C6F8903007464FF0B04641F28838C8
:10329000D6F890301905E3D500F0D6F9C01B4045AB
:1032A000F6D9B8E600F0D0F9D6F8903023F08003D4
:1032B0000746C6F8903041F28838D6F890301A05A3
:1032C00016D400F0C1F9D6F8903023F00103C6F807
:1032D000903007464FF0B04841F28836D8F8903029
:1032E0009B07BDD500F0B0F9C31BB342F6D992E6F7
:1032F00000F0AAF9C01B4045DFD98CE60C2D53D055
:103300004FF0B04302281A6822F080721A6033D15D
:1033100000F09AF90546FFF7DAFC38BBD4E90C3126
:103320004FF0B0420B43D0682F4901400B43E16B93
:103330000B43216C0B43616C0B43A16B43EA0123EC
:10334000D360136843F080731360D36843F08053F5
:10335000D36000F079F90446FFF7B9FC002882D168
:1033600000F072F9001B0A28F6D954E600F06CF957
:10337000401B0A28CFD94EE6DA6822F00302DA6051
:10338000DA6822F0885222F48032DA6000F05CF9C8
:103390000446FFF79CFC00283FF465AF00F054F9A9
:1033A000001B0A28F5D936E601283FF4C5AD4FF0D9
:1033B000B043226BDB6803F0030191427FF4D1AD8F
:1033C000616B03F070028A427FF4CBADA16B03F412
:1033D000FE42B2EB012F7FF4C4AD626C03F0604398
:1033E00093423FF440AFBCE58C80C1112DE9F04120
:1033F0000D46044610B90120BDE8F081674E3368E0
:1034000003F007038B4216D32368980727D54FF0A4
:10341000B047A268BB6823F0F0031343BB6000F021
:1034200013F90646BB68D90319D400F00DF9831BC4
:10343000022BF7D911E0336823F007030B43336005
:1034400000F002F90746336803F00703AB42DBD014
:1034500000F0FAF8C01B0228F5D90320CCE7236856
:103460005A0617D54FF0B0476269D7F8083123F0F4
:103470000F0343EA1213C7F8083100F0E5F80646D7
:10348000D7F80831DB0305D400F0DEF8831B022BEC
:10349000F6D9E2E723685E0713D54FF0B047E2683C
:1034A000BB6823F4E0631343BB6000F0CDF806462D
:1034B000BB68980305D400F0C7F8831B022BF7D92B
:1034C000CBE72368190714D54FF0B0472269BB68D2
:1034D00023F4605343EAC203BB6000F0B5F806462C
:1034E000BB685A0305D400F0AFF8831B022BF7D951
:1034F000B3E72368DB070FD4284C236803F00703E6
:10350000AB4237D8FFF7C2FC254B1860254BBDE80E
:10351000F041186800F050B86368022B1ED1FFF725
:10352000BBFB00283FF467AF4FF0B0466268B3685A
:1035300023F003031343B36000F086F841F28838A8
:103540000746B368626803F00C03B3EB820FD3D075
:1035500000F07AF8C01B4045F3D97EE7032B02D177
:10356000FFF7B5FBDDE713B9FFF7A2FBD9E7FFF7DC
:1035700099FBD6E7236823F007032B43236000F071
:1035800063F80646236803F00703AB42BAD000F0A5
:103590005BF8801B0228F5D95FE700BF00400058A8
:1035A0008000002088000020024B186800F4C060F2
:1035B000704700BF0004005838B5104C237805460A
:1035C0000BB9012038BDFFF761FC22784FF47A7304
:1035D000B3FBF2F3B0FBF3F0FFF742FB0446002825
:1035E000EFD10F2DEDD8024629464FF0FF30FFF7FF
:1035F00005FB034B20461D60E4E700BF840000206C
:103600008800002010B50320FFF7E6FAFFF73EFC24
:10361000064B18600F20FFF7CFFF044618B900F0E3
:1036200071F8204610BD0124FBE700BF8000002098
:10363000034A044B11681B780B441360704700BFAA
:103640008C03002084000020014B1868704700BFE5
:103650008C03002008B5FFF7D5FF00F009F800F053
:10366000C9F8BDE8084000F059B872B6FEE700009E
:1036700000B59BB02822002109A800F087F9182284
:10368000002102A800F082F91D4A136823F4C063E8
:1036900043F400731360136803F4C0630193019B48
:1036A00002230020CDE9133308930623CDE9150347
:1036B0004FF400334FF48071402217934FF0005EB7
:1036C0004FF0007308A8CDE90C12CDE9183EFFF7C2
:1036D000EDFB08B1FFF7C9FF03234F22CDE9022319
:1036E0000221002302A8CDE90433CDE90633FFF718
:1036F0007DFE08B1FFF7B9FF1BB05DF804FB00BF0A
:10370000000400587047FEE7FEE7FEE7FEE7FEE72D
:10371000704770477047FFF78BBF00001048114A91
:1037200008B54FF48273C0E9002300234FF44072C0
:10373000C0E902324FF40072C0E906230722C0E953
:103740000433C0E90833C0E90B23836208234363D1
:10375000FEF742FD18B1BDE80840FFF786BF08BD7F
:10376000900300200030014030B5044689B0142297
:10377000002103A800F00AF922681C4B9A4233D1B9
:103780004FF0B04302251A6E42F480521A661A6E48
:1037900002F480520292029ADA6C42F00102DA6478
:1037A000DA6C02F001020192019ADA6C42F0020234
:1037B000DA64DB6C03F002030093009B05244FF4F2
:1037C000C05303A94FF09040CDE903350794FFF7AC
:1037D00051F90823CDE9033505480794002303A9CF
:1037E000CDE90533FFF746F909B030BD003001409F
:1037F000000400484FF0B04382B0DA6C42F001029E
:10380000DA64DA6C02F001020192019ADA6C42F099
:103810000202DA64DB6C03F002030093009B02B047
:10382000704708B5FFF716FFFEF798FBFDF720FA83
:10383000002008BD0D488546FEF7A2FB0C480D4947
:103840000D4A002302E0D458C4500433C4188C42FB
:10385000F9D30A4A0A4C002301E013600432A24261
:10386000FBD300F041F8FFF7DCFFFEE7008000200B
:1038700000000020F0000020D8640008F0000020C4
:1038800008040020FEE700001FB514461A46094B45
:103890001B680546D8684CB1074B0091CDE901344F
:1038A00006492B4600F00EF800F064FD044B1C4660
:1038B000F3E700BF8C000020F463000801640008F7
:1038C0004C5E00080EB403B5014603AB054853F83F
:1038D000042B0068019300F067F902B05DF804EB77
:1038E00003B070478C00002070B50D4D0D4C641B6B
:1038F000A4100026A64209D10B4D0C4C01F056FA3B
:10390000641BA4100026A64205D170BD55F8043BE7
:1039100098470136EEE755F8043B98470136F2E741
:10392000C8640008C8640008C8640008CC640008C3
:10393000024B0146186800F09BB800BF8C000020C5
:10394000024B0146186800F029B800BF8C00002027
:1039500010B501390244904201D1002005E00378FE
:1039600011F8014FA34201D0181B10BD0130F2E73E
:103970000A44914200F1FF3300D1704710B511F8AD
:10398000014B03F8014F9142F9D110BD02440346A7
:10399000934200D1704703F8011BF9E738B505469B
:1039A000002941D051F8043C0C1F002BB8BFE4188B
:1039B00000F01EFF1D4A136833B963601460284687
:1039C000BDE8384000F01ABFA34208D9206821188A
:1039D0008B4201BF19685B6809182160EDE71A4640
:1039E0005B680BB1A342FAD911685018A0420BD101
:1039F00020680144501883421160E0D118685B6868
:103A0000536001441160DAE702D90C232B60D6E73A
:103A1000206821188B4204BF19685B68636004BF8B
:103A2000091821605460CAE738BD00BFF4030020C4
:103A300070B50E4E0C463168054611B900F090FB8A
:103A400030602146284600F08BFB431C0AD0C41C82
:103A500024F00304A04207D0211A284600F080FB7E
:103A6000013001D14FF0FF34204670BDF803002033
:103A70002DE9F041CD1C25F0030508350C2D38BF8C
:103A80000C25002D074601DBA94205D90C233B601C
:103A900000263046BDE8F0812E4E00F0A9FE3368C6
:103AA0001C4634BB29463846FFF7C2FF431C044678
:103AB0004DD134682646002E40D123683146384621
:103AC00004EB030800F04CFB80453AD12168033534
:103AD0006D1A25F0030508350C2D38BF0C25294635
:103AE0003846FFF7A5FF01302BD023682B44236015
:103AF0000EE02268521B1ED40B2A16D96119A3426C
:103B0000256018BF5960636808BF316062514B601F
:103B1000384604F10B0600F071FE26F00706231D5F
:103B2000F21AB6D09B1BA350B3E76268A3420CBF46
:103B300032605A60ECE723466468B2E73446766840
:103B4000B9E70C233B60384600F058FEA1E725603A
:103B5000DEE700BFF40300209368013B002B10B4A4
:103B6000936007DA9469A34201DB0A2902D110BCF1
:103B700000F040BB1368581C10601970084610BC58
:103B80007047F8B506460F461446D518AC4201D129
:103B9000002007E014F8011B3A463046FFF7DCFF2F
:103BA000431CF3D1F8BD00002DE9F04F0D469DB048
:103BB00014469846064618B183690BB900F0F8FC24
:103BC000894B9D421BD175686B6ED90705D4AB89B3
:103BD0009A0502D4A86D00F089FDAB891B0701D5B9
:103BE0002B69EBB92946304600F056FBC0B16B6E2D
:103BF000DC070ED54FF0FF301DB0BDE8F08F7B4BDA
:103C00009D4201D1B568DFE7794B9D4208BFF56859
:103C1000DAE7AB899805EDD4A86D00F068FDE9E717
:103C20000023099320238DF82930CDF80C80302310
:103C3000DFF8C0818DF82A304FF0010923469A46FB
:103C400013F8012B0AB1252AF9D1BAEB040B0BD0DA
:103C50005B46224629463046FFF793FF013000F0CD
:103C6000AA80099A5A4409929AF80030002B00F071
:103C7000A28000234FF0FF32CDE905230AF1010AAB
:103C8000049307938DF853301A935446052214F881
:103C9000011B5848FCF774FA049AD8B9D10644BFFE
:103CA00020238DF85330130744BF2B238DF8533056
:103CB0009AF800302A2B15D0079A544600204FF06E
:103CC0000A0C214611F8013B303B092B4ED9B0B10B
:103CD000079214E0A0EB080309FA03F313430493DB
:103CE000A246D2E7039B191D1B680391002BBBBFA3
:103CF0005B4242F0020207930793B8BF0492237815
:103D00002E2B0CD163782A2B35D1039B1A1D1B68EF
:103D10000392002BB8BF4FF0FF3302340593DFF856
:103D2000D8A0217803225046FCF72AFA40B140235C
:103D3000A0EB0A0003FA00F0049B03430134049350
:103D400014F8011B2D488DF828100622FCF718FAEC
:103D500000283FD02A4B1BBB039B073323F00703EC
:103D600008330393099B3B44099367E70CFB02323A
:103D70000C460120A5E700230134059319464FF0B6
:103D80000A0C204610F8012B303A092A03D9002BDF
:103D9000C5D00591C3E70CFB012104460123F0E7E0
:103DA00003AB00932A46174B04A93046AFF30080BB
:103DB0000746781CD6D16B6ED90705D4AB899A0516
:103DC00002D4A86D00F093FCAB895B063FF512AFFF
:103DD000099811E703AB00932A460A4B04A9304621
:103DE00000F080F8E4E700BF88640008A8640008D9
:103DF00068640008346400083A6400083E640008FF
:103E000000000000833B00082DE9F0471646994664
:103E10008A680B69DDF820809342B8BF134633608F
:103E200091F8432007460C460AB1013333602368FA
:103E3000990642BF336802333360256815F00605E2
:103E400006D104F1190AE36832689B1AAB4226DCFA
:103E500094F84320131E226818BF012392062BD426
:103E600004F1430249463846C04701301ED023685A
:103E7000E568326803F00603042B08BFAD1AA36897
:103E800022690CBF25EAE57500259342C4BF9B1A41
:103E9000ED1800261A34B5421AD1002008E001239B
:103EA000524649463846C047013003D14FF0FF30F3
:103EB000BDE8F0870135C6E7E1185A1C302081F8CB
:103EC0004300224494F8451082F843100233C7E7B8
:103ED0000123224649463846C0470130E6D0013624
:103EE000D9E700002DE9FF470F7E0C9D782F914602
:103EF00080460C469A4601F1430207D8622F0AD841
:103F0000002F00F0D880582F00F0A38004F1420564
:103F100084F842703AE0A7F16303152BF6D801A1AB
:103F200051F823F07D3F0008913F00080D3F000845
:103F30000D3F00080D3F00080D3F0008913F0008AD
:103F40000D3F00080D3F00080D3F00080D3F000821
:103F50009D400008C13F00087F4000080D3F000859
:103F60000D3F0008BF4000080D3F0008C13F00089A
:103F70000D3F00080D3F0008874000082B681A1D00
:103F80001B682A6004F1420584F842300123A3E053
:103F900020682968060601F104030AD50E682B6023
:103FA000002E03DA2D23764284F843305E480A233C
:103FB00019E00E682B6010F0400F18BF36B2EFE723
:103FC0002B682068191D2960010601D51E6802E0D2
:103FD0004606FBD51E8854486F2F0CBF08230A23C2
:103FE000002184F843106568A560002DA2BF2168F8
:103FF00021F0040121600EB9002D4DD01546B6FB0D
:10400000F3F103FB1167C75D05F8017D3746BB423D
:104010000E46F4D9082B0BD12368DE0708D5236997
:1040200061689942DEBF302305F8013C05F1FF3598
:10403000521B2261CDF800A04B4603AA2146404600
:10404000FFF7E2FE01304CD14FF0FF3004B0BDE885
:10405000F087354881F845702968236851F8046B6A
:1040600029601D0614D5DF0744BF43F020032360F9
:104070001EB9236823F0200323601023B0E72368D0
:1040800043F0200323607823284884F84530E3E791
:10409000590648BFB6B2E6E71546BBE72B68266867
:1040A0006169181D286035061B6801D5196002E09A
:1040B0007006FBD51980002323611546BAE72B68EB
:1040C0001A1D2A601D68626800212846FCF758F80E
:1040D00008B1401B606063682361002384F84330AB
:1040E000A8E723692A4649464046D0470130ABD06D
:1040F00023689B0713D4E068039B9842B8BF184617
:10410000A4E70123324649464046D04701309BD0C0
:104110000135E36803995B1AAB42F2DCEBE700255B
:1041200004F11906F5E700BF45640008566400086D
:104130000FB40A4B13B51C6824B1A36913B9204608
:1041400000F036FA05AB049AA16801932046FFF708
:104150002BFD02B0BDE8104004B070478C00002079
:1041600038B5064D0023044608462B6000F006FED5
:10417000431C02D12B6803B1236038BD000400202A
:1041800030B51446002C9BB005461A4605DA8B2341
:1041900003604FF0FF301BB030BD4FF40273ADF839
:1041A0000C3014BF04F1FF332346029305934FF6FE
:1041B000FF7300910491ADF80E3069461E9B00F02C
:1041C000ADFB431CBCBF8B232B60002CE3D0009BBA
:1041D00000221A70DFE7000007B5009313460A4675
:1041E000014603480068FFF7CBFF03B05DF804FB0E
:1041F0008C000020F8B50E461446054618B18369B8
:104200000BB900F0D5F9214B9C422BD16C68A36906
:10421000A360A3891A072FD523696BB3236920688C
:10422000C01A6369F6B28342374604DC2146284649
:1042300000F02AF930BBA368013BA36023685A1C35
:1042400022601E7063690130834204D0A389DB07BA
:1042500006D50A2E04D12146284600F015F988B962
:104260003846F8BD0A4B9C4201D1AC68CFE7094BF8
:104270009C4208BFEC68CAE72146284600F00CF8CB
:104280000028CBD04FF0FF37EAE700BF8864000872
:10429000A864000868640008324B70B51D680646C3
:1042A0000C4625B1AB6913B9284600F081F92E4BB5
:1042B0009C420FD16C68A389B4F90C2019072CD447
:1042C000DD0611D40923336042F04003A3814FF08F
:1042D000FF303EE0254B9C4201D1AC68EBE7244B1C
:1042E0009C4208BFEC68E6E7580712D5616B41B104
:1042F00004F14403994202D03046FFF74FFB0023FC
:104300006363A38923F02403A381002363602369EB
:104310002360A38943F00803A38123694BB9A389D0
:1043200003F42073B3F5007F03D02146304600F03C
:1043300005FAA089B4F90C2010F001030AD000237B
:10434000A36063695B42A361236943B910F08000F5
:10435000BAD170BD810758BF6369A360F4E700203C
:10436000F7E700BF8C00002088640008A8640008FC
:104370006864000808B5062000F0F8FB012000F092
:1043800013FD00008A89F8B5054610070C4657D47E
:104390004B68002B04DC0B6C002B01DC0020F8BD0B
:1043A000E66A002EFAD0002312F480522F682B60A8
:1043B00032D0606DA3895A0705D56368C01A636B54
:1043C0000BB1236CC01A00230246E66A216A284614
:1043D000B047431CA38906D129681D292CD8294A36
:1043E000CA40D60728D500226260D904226922601B
:1043F00004D5421C01D12B6803B96065616B2F6045
:104400000029CBD004F14403994202D02846FFF79B
:10441000C5FA00206063C2E7216A01232846B0473D
:10442000411CC7D12B68002BC4D01D2B01D0162BEB
:1044300001D12F60B2E7A38943F04003A381AEE727
:104440000F69002FAAD093070E6808BF4B690F6051
:1044500018BF0023F61B8B60002E9FDD216AD4F865
:1044600028C033463A462846E047002806DCA389A0
:1044700043F04003A3814FF0FF3090E70744361A22
:10448000EAE700BF0100402038B50B6905460C463D
:1044900013B90025284638BD18B183690BB900F05F
:1044A00087F8144B9C421BD16C68B4F90C30002B7C
:1044B000EFD0626ED00704D4990502D4A06D00F04D
:1044C00015F928462146FFF75DFF636EDA070546BA
:1044D000E0D4A3899B05DDD4A06D00F008F9D9E7ED
:1044E000054B9C4201D1AC68DFE7044B9C4208BFFE
:1044F000EC68DAE788640008A864000868640008CB
:10450000002310B50446C0E90033C0E904338360DA
:1045100081814366C2818361194608225C30FFF7BE
:1045200035FA054B6362054BA362054BE362054B0D
:104530002462236310BD00BFA54B0008C74B0008D1
:10454000FF4B0008234C0008014900F0AFB800BF42
:104550008944000870B568224D1E55430E4605F18A
:104560007401FFF785FA044640B10021C0E9001646
:104570000C30A06005F16802FFF708FA204670BD14
:10458000014800F0B3B800BFFD030020014800F06F
:10459000AEB800BFFD030020014800F0A7B800BF7F
:1045A000FE030020014800F0A2B800BFFE03002077
:1045B00010B50446FFF7F0FFA3691BB1BDE810403A
:1045C000FFF7F0BFC4E912332365134B134A1B688E
:1045D000A262A34204BF0123A361204600F020F899
:1045E0006060204600F01CF8A060204600F018F83B
:1045F0000022E06004216068FFF782FFA0680122CA
:104600000921FFF77DFFE06802221221FFF778FF02
:104610000123A361D2E700BF3064000849450008C8
:10462000F8B50746FFF7ACFF1E4B1E68B36913B918
:104630003046FFF7BDFF4836D6E90134013B03D5CC
:1046400033680BB33668F7E7B4F90C50D5B9164B9D
:10465000E36004F15800656600F047F8FFF796FF45
:10466000C4E90155C4E904552560A561082229461D
:1046700004F15C00FFF78AF9C4E90D55C4E912554D
:104680002046F8BD6834D9E704213846FFF762FFB9
:10469000044630600028D5D1FFF778FF0C233B603B
:1046A000EEE700BF306400080100FFFF2DE9F8438A
:1046B0000646884600F148040027D4E90195B9F17F
:1046C000010905D52468002CF7D13846BDE8F883E8
:1046D000AB89012B07D9B5F90E30013303D0294638
:1046E0003046C04707436835E9E770477047704771
:1046F00070B50E46B1F90E10002996B014461D464D
:1047000008DAB6F90C3000222A601A0610D44FF4E9
:1047100080630EE06A4600F0ABFA0028F1DB019AF4
:1047200002F47042A2F500535A425A412A60EEE761
:1047300040230020236016B070BD00008B8973B544
:104740009D0706460C4607D504F147032360236105
:104750000123636102B070BD01AB6A46FFF7C8FF79
:10476000009905463046FFF783F948B9B4F90C3093
:104770009A05EFD423F0030343F00203A381E3E798
:104780000D4BB362A389206043F08003A381009B9B
:104790006361019B20615BB1B4F90E10304600F0FB
:1047A00079FA28B1A38923F0030343F00103A3811D
:1047B000A0890543A581CDE749450008884210B589
:1047C00001EB020402D98442234607D8431EA142CA
:1047D00008D011F8012B03F8012FF8E70244014635
:1047E0008A4200D110BD13F8014D02F8014DF7E7E0
:1047F0000148FFF77BBF00BFFC0300200148FFF723
:1048000076BF00BFFC0300202DE9F041804614462E
:104810000E4621B9BDE8F0411146FFF729B92AB982
:10482000FFF7BCF825462846BDE8F08100F054FAB1
:104830008442074602D8B4EB500F12D821464046B6
:10484000FFF716F905460028EDD0BC422246314656
:1048500028BF3A46FFF78CF831464046FFF79EF8EE
:10486000E1E73546DFE72DE9F0478E689E42824654
:104870000C4690461F4638D88A8912F4906F32D081
:1048800025680969A5EB0109656905EB450505EB97
:10489000D57501334B446D109D4238BF1D465305FD
:1048A00031D52946FFF7E4F8064650B90C23CAF87B
:1048B0000030A38943F04003A3814FF0FF30BDE8EF
:1048C000F08721694A46FFF753F8A38923F49063E0
:1048D00043F08003A381266165614E44A5EB090581
:1048E0002660A5603E46BE4200D93E46206832465C
:1048F0004146FFF763FFA3689B1BA3602368334413
:1049000023600020DBE72A46FFF77EFF06460028EB
:10491000E1D121695046FFF741F8C7E72DE9F04F93
:1049200098468B891B069DB007460D4614460ED54A
:104930000B6963B94021FFF79BF82860286120B913
:104940000C233B604FF0FF30D1E040236B6100232C
:10495000099320238DF82930CDF80C803023DFF81F
:10496000A8818DF82A304FF0010923469A4613F8A2
:10497000012B0AB1252AF9D1BAEB040B0BD05B4607
:10498000224629463846FFF76EFF013000F0AA8024
:10499000099A5A4409929AF80030002B00F0A2803C
:1049A00000234FF0FF32CDE905230AF1010A0493F9
:1049B00007938DF853301A935446052214F8011BBF
:1049C0005148FBF7DDFB049AD8B9D00644BF202339
:1049D0008DF85330110744BF2B238DF853309AF8CC
:1049E00000302A2B15D0079A544600204FF00A0CAD
:1049F000214611F8013B303B092B4ED9B0B107924B
:104A000014E0A0EB080309FA03F313430493A2464E
:104A1000D2E7039B191D1B680391002BBBBF5B42B0
:104A200042F0020207930793B8BF049223782E2B1B
:104A30000CD163782A2B35D1039B1A1D1B68039276
:104A4000002BB8BF4FF0FF3302340593DFF8BCA052
:104A5000217803225046FBF793FB40B14023A0EBA3
:104A60000A0003FA00F0049B03430134049314F892
:104A7000011B27488DF828100622FBF781FB002830
:104A800038D0244B1BBB039B073323F007030833A9
:104A90000393099B3344099367E70CFB02320C46EE
:104AA0000120A5E700230134059319464FF00A0CB5
:104AB000204610F8012B303A092A03D9002BC5D023
:104AC0000591C3E70CFB012104460123F0E703AB8A
:104AD00000932A46104B04A93846AFF30080421CCD
:104AE0000646D6D1AB895B063FF52CAF09981DB0C1
:104AF000BDE8F08F03AB00932A46074B04A9384664
:104B0000FFF7F0F9EBE700BF346400083A640008EF
:104B10003E64000800000000674800081F2938B5FF
:104B200004460D4604D9162303604FF0FF3038BD0C
:104B3000426C12B152F821304BB9204600F030F8E7
:104B40002A4601462046BDE8384000F017B8012B40
:104B50000AD0591C03D1162303600120E7E7002483
:104B600042F82540284698470020E0E7024B0146DE
:104B70001868FFF7D3BF00BF8C00002038B5074D81
:104B800000230446084611462B6000F0DFF8431C62
:104B900002D12B6803B1236038BD00BF00040020A0
:104BA00000F0C4B810B50C46B1F90E1000F09CF836
:104BB0000028ABBF636DA3891B1823F48053ACBFDF
:104BC0006365A38110BD2DE9F0411F468B89DB058C
:104BD00005460C46164605D5B1F90E1002230022F3
:104BE00000F068F8A389B4F90E1023F48053A38170
:104BF00032463B462846BDE8F04100F017B810B5F4
:104C00000C46B1F90E1000F055F8431CA38915BFEE
:104C1000606523F4805343F48053A38118BFA381BC
:104C200010BDB1F90E1000F013B8000038B5074DF3
:104C300004460846114600222A601A4600F0ACF8E5
:104C4000431C02D12B6803B1236038BD000400204F
:104C500038B5064D0023044608462B6000F056F890
:104C6000431C02D12B6803B1236038BD000400202F
:104C700038B5074D00230446084611462B6000F066
:104C80004DF8431C02D12B6803B1236038BD00BF2F
:104C90000004002038B5064D0023044608462B606A
:104CA00000F04CF8431C02D12B6803B1236038BDDF
:104CB0000004002038B5074D04460846114600227E
:104CC0002A601A4600F04AF8431C02D12B6803B14F
:104CD000236038BD0004002051F8043C181F002B4D
:104CE000BCBF0B58C018704738B5074D044608467E
:104CF000114600222A601A4600F038F8431C02D1FF
:104D00002B6803B1236038BD00040020024B5822F9
:104D10001A604FF0FF30704700040020024B582209
:104D20001A604FF0FF30704700040020024B5822F9
:104D30001A604FF0FF30704700040020024B5822E9
:104D40001A600020704700BF00040020024B582268
:104D50001A604FF0FF30704700040020024B5822C9
:104D60001A604FF0FF30704700040020024B5822B9
:104D70001A604FF0FF30704700040020044A0549D4
:104D80001368002B08BF0B46184410601846704784
:104D90000404002008040020024B58221A604FF03F
:104DA000FF30704700040020FEE700BFF8B500BFE9
:104DB000F8BC08BC9E467047F8B500BFF8BC08BCFC
:084DC0009E4670470000000050
:104DC800FFFFFFFFFFFFFFFF0000000001000000E2
:104DD80002000000666C617368002825732920684A
:104DE800617320617373657274206661696C6564B0
:104DF8002061742025732E006C6962726172696586
:104E0800732F534655442F736675642F7372632F3F
:104E1800736675642E6300737461747573004572EC
:104E2800726F723A20466C617368207761697420EA
:104E3800627573792068617320616E206572726F84
:104E4800722E006461746100666C6173682D3E693E
:104E58006E69745F6F6B004572726F723A20466CB0
:104E68006173682061646472657373206973206F6D
:104E78007574206F6620626F756E642E00457272BD
:104E88006F723A2043616E277420656E61626C65AB
:104E9800207772697465207374617475732E004588
:104EA80072726F723A2043616E277420646973616D
:104EB800626C6520777269746520737461747573A8
:104EC8002E004572726F723A20466C6173682063D7
:104ED8006869702065726173652053504920636F5B
:104EE8006D6D756E6963617465206572726F722E7F
:104EF800004572726F723A20466C61736820657261
:104F08006173652053504920636F6D6D756E6963D9
:104F1800617465206572726F722E007772697465AC
:104F28005F6772616E203D3D2031207C7C20777266
:104F38006974655F6772616E203D3D2032353600C9
:104F48004572726F723A20466C6173682077726995
:104F580074652053504920636F6D6D756E69636188
:104F68007465206572726F722E004572726F723AA4
:104F78002057726974655F73746174757320726504
:104F8800676973746572206661696C65642E006672
:104F98006C6173682D3E7370692E77720054686572
:104FA80020666C61736820646576696365206D614D
:104FB8006E75666163747572657220494420697301
:104FC800203078253032582C206D656D6F7279202D
:104FD800747970652049442069732030782530320F
:104FE800582C206361706163697479204944206991
:104FF80073203078253032582E004572726F723A1D
:10500800205265616420666C617368206465766906
:105018006365204A45444543204944206572726FC0
:10502800722E005761726E696E673A205468697310
:1050380020666C61736820646576696365206973AE
:10504800206E6F7420666F756E64206F72206E6FAD
:105058007420737570706F72742E0046696E6420C8
:105068006120257320257320666C6173682063684E
:1050780069702E2053697A6520697320256C642035
:1050880062797465732E0046696E64206120257309
:1050980020666C61736820636869702E2053697A92
:1050A8006520697320256C642062797465732E000D
:1050B80046696E64206120666C6173682063686964
:1050C800702E2053697A6520697320256C642062EC
:1050D800797465732E004572726F723A20466C615E
:1050E80073682064657669636520726573657420EA
:1050F8006661696C65642E00466C6173682064653E
:10510800766963652072657365742073756363657A
:1051180073732E00456E74657200257320342D421A
:105128007974652061646472657373696E67206D54
:105138006F646520737563636573732E00457272BF
:105148006F723A20257320342D427974652061648A
:105158006472657373696E67206D6F64652066613C
:10516800696C65642E00257320666C617368206421
:10517800657669636520697320696E697469616C15
:10518800697A6520737563636573732E004572725F
:105198006F723A20257320666C61736820646576A7
:1051A80069636520697320696E697469616C697ADD
:1051B80065206661696C2E00312E312E30005374E3
:1051C80061727420696E697469616C697A652053CB
:1051D800657269616C20466C61736820556E6976EA
:1051E800657273616C2044726976657228534655FE
:1051F8004429205625732E00596F752063616E204F
:1052080067657420746865206C61746573742076B2
:10521800657273696F6E206F6E2068747470733A6C
:105228002F2F6769746875622E636F6D2F61726DB9
:10523800696E6B2F53465544202E00415434354433
:1052480042313631450057323551343042560057D5
:105258003235583430434C00573235583136415680
:1052680000573235513136425600573235513332B4
:10527800425600573235513634435600573235516D
:105288003634445700573235513132384256005778
:105298003235513235364656005353543235564618
:1052A8003038304200535354323556463031364246
:1052B800004D3235503332004D3235503830004DC4
:1052C800323550343000454E323551333242004782
:1052D8004432355136344200474432355131364232
:1052E80000474432355133324300533235464C324D
:1052F80031364B00533235464C3033325000413250
:10530800354C303830004632354C3030340050435C
:10531800543235564630313642004E4D32355131D1
:105328003238455600437970726573730046756A62
:105338006974737500454F4E0041746D656C004D7E
:105348006963726F6E00414D49430053616E796F16
:1053580000496E74656C0045534D54004675646190
:105368006E004879756E646169005353540047694B
:105378006761446576696365004953534900576915
:105388006E626F6E64004D6963726F6E6978004E6D
:105398006F722D4D656D005A4432355131360073A8
:1053A80070693200736675645F77726974655F73DC
:1053B800746174757300736675645F726561645FA8
:1053C800737461747573007365745F77726974655B
:1053D8005F656E61626C65640068617264776172B2
:1053E800655F696E6974006161695F777269746588
:1053F80000706167653235365F6F725F315F627961
:1054080074655F777269746500736675645F657249
:1054180061736500736675645F636869705F657260
:10542800617365006D616B655F6164726573735F5D
:10543800627974655F617272617900736675645F21
:105448007265616400000000435200081F260000D6
:10545800000020000A000000000200008100000097
:105468004E520008EF401300000008000100000041
:10547800001000002000000057520008EF30130011
:1054880000000800010000000010000020000000DB
:1054980060520008EF3015000000200001000000F5
:1054A800001000002000000069520008EF401500BD
:1054B8000000200001000000001000002000000093
:1054C80072520008EF401600000040000100000082
:1054D80000100000200000007B520008EF40170079
:1054E8000000800001000000001000002000000003
:1054F80084520008EF6017000000800001000000DF
:1055080000100000200000008D520008EF40180035
:105518000000000101000000001000002000000051
:1055280097520008EF401900000000020100000037
:105538000010000020000000A1520008BF258E00C6
:10554800000010000600000000100000200000000D
:10555800AD520008BF2541000000200006000000F1
:105568000010000020000000B9520008202016009A
:10557800000040000100000000000100D800000009
:10558800C052000820201400000010000100000094
:1055980000000100D8000000C752000820201300B6
:1055A800000008000100000000000100D800000011
:1055B800CE5200081C301600000040000100000018
:1055C8000010000020000000D7520008C840170053
:1055D8000000800001000000001000002000000012
:1055E800E0520008C840150000002000010000003B
:1055F8000010000020000000E9520008C840160012
:105608000000400001000000001000002000000021
:10561800F2520008014015000000200001000000BF
:105628000010000020000000FC52000801021500D4
:1056380000004000010000000010000020000000F1
:105648000653000837301400000010000100000065
:1056580000100000200000000E5300088C201300EA
:1056680000000800060000000010000020000000F4
:1056780016530008BF254100000020000600000066
:1056880000100000200000002253000852211800DA
:1056980000000001010000000010000020000000D0
:1056A8002D530008010000003553000804000000D5
:1056B8003D5300081C000000415300081F00000073
:1056C80047530008200000004E5300083700000030
:1056D8005353000862000000595300088900000075
:1056E8005F5300088C00000064530008A10000000C
:1056F8006A530008AD00000072530008BF000000A4
:1057080076530008C800000081530008D500000047
:1057180086530008EF0000008E530008C200000006
:1057280097530008520000006C69627261726965E3
:10573800732F534655442F736675642F7372632F06
:10574800736675645F736664702E63006164647267
:10575800203C20314C203C3C203234004572726F92
:10576800723A2043616E2774207265616420534643
:105778004450206865616465722E004572726F72CC
:105788003A20436865636B20534644502073696729
:105798006E6174757265206572726F722E2049741D
:1057A8002773206D75737420626520353034343466
:1057B80036353368282753272027462720274427AC
:1057C80020275027292E004572726F723A2054689C
:1057D800697320726576657273696F6E28562564E1
:1057E8002E2564292053464450206973206E6F7417
:1057F80020737570706F727465642E0043686563FA
:105808006B20534644502068656164657220697353
:10581800204F4B2E20546865207265766572736937
:105828006F6E206973205625642E25642C204E50F7
:105838004E2069732025642E004572726F723A20DB
:1058480043616E27742072656164204A454445436C
:1058580020626173696320666C617368207061728D
:10586800616D65746572206865616465722E0045B6
:1058780072726F723A205468697320726576657225
:1058880073696F6E285625642E256429204A45447D
:10589800454320626173696320666C617368207098
:1058A8006172616D657465722068656164657220F6
:1058B8006973206E6F7420737570706F727465648D
:1058C8002E004572726F723A20546865204A45442A
:1058D800454320626173696320666C617368207058
:1058E8006172616D65746572207461626C65206CAB
:1058F800656E67746820286E6F7720697320256449
:1059080029206572726F722E00436865636B204AA6
:105918004544454320626173696320666C6173681E
:1059280020706172616D6574657220686561646577
:1059380072206973204F4B2E205468652074616271
:105948006C652069642069732025642C2072657653
:10595800657273696F6E206973205625642E2564FD
:105968002C206C656E6774682069732025642C2070
:10597800706172616D65746572207461626C652016
:10598800706F696E746572206973203078253036BF
:105998006C582E005761726E696E673A2043616ECB
:1059A80027742072656164204A454445432062613A
:1059B80073696320666C61736820706172616D65DC
:1059C800746572207461626C652E004A45444543D3
:1059D80020626173696320666C617368207061720C
:1059E800616D65746572207461626C6520696E66AC
:1059F8006F3A004D53422D4C534220203320202033
:105A0800203220202020312020202030005B25302B
:105A180034645D2030782530325820307825303293
:105A280058203078253032582030782530325800C8
:105A380034204B4220457261736520697320737569
:105A480070706F72746564207468726F7567686FC0
:105A5800757420746865206465766963652E2043D3
:105A68006F6D6D616E64206973203078253032580F
:105A78002E00556E69666F726D2034204B4220658A
:105A88007261736520697320756E617661696C61F6
:105A9800626C6520666F722074686973206465762D
:105AA8006963652E004572726F723A20556E696699
:105AB8006F726D2034204B422065726173652073CC
:105AC8007570706F7274656420696E666F726D614F
